:100000000C9433010C945B010C945B010C945B0128
:100010000C945B010C945B010C945B010C945B01F0
:100020000C945B010C945B010C945B010C945B01E0
:100030000C945B010C945B010C945B010C945B01D0
:100040000C94DD0B0C945B010C94AC0A0C94860AA6
:100050000C945B010C945B010C945B010C945B01B0
:100060000C945B010C945B010C945B010C945B01A0
:100070000C945B010C945B010C945B010C945B0190
:100080000C945B010C945B010C945B010C945B0180
:100090000C945B010C945B010C945B010C945B0170
:1000A0000C945B010C945B010C945B010C945B0160
:1000B0000C945B015B035E036103640367036A03E3
:1000C0006D0370035F0A620A550A590A830A830A9C
:1000D000660A6A0A700A740A830A7A0A7E0A464124
:1000E000494C454420746F2073656E642043414E33
:1000F0000000000000240027002A002D0001020457
:100100000810204080010204081020010204081099
:100110002040804001020408040404040404040490
:1001200002020202020203030303030302020305A5
:1001300005050520005641525320002000200020D4
:10014000000A4556454E54533A0020000A4445568D
:10015000494345204E554D424552533A0020000A2E
:10016000494E5445524E414C20564152533A00207C
:10017000000A4E4F444520564152533A0020000A8F
:100180004E4F444520564152533A000A4E554D2099
:10019000564152533A000A4E554D204556454E544D
:1001A0005320564152533A000A4E554D204556456C
:1001B0004E54533A000A466C6167733A000A4E4E39
:1001C0003A000A43414E5F49443A004944454E547F
:1001D0003A004D454D4F52592044554D50005374EF
:1001E0006172740050726F7A6573736F72666568BE
:1001F0006C6572200000000000250028002B002EF6
:1002000000000000002300260029002C000A0D0E2B
:1002100009000302000004050800000000000000BF
:1002200000000000000000007772697465207661AC
:100230007220746F20656570726F6D0053686F7205
:10024000743A204576656E74002020204576656EF0
:100250007420004C6F6E673A204E6F64654E6F20BD
:100260000000BD22B92211241FBECFEFD8E0DEBFAF
:10027000CDBF12E0A0E0B1E0E6E7FDE402C00590EA
:100280000D92AA3CB107D9F726E0AAECB2E001C072
:100290001D92AF31B207E1F711E0C2E3D1E004C033
:1002A0002197FE010E948225C133D107C9F70E9420
:1002B000BB1A0C94AE260C940000DF92EF92FF92D2
:1002C0000F931F93CF93DF93C091F90486EF94E0CF
:1002D0000E94A40C7C0100911D0510911E05801741
:1002E000910789F080917F0590918005029703978F
:1002F00050F4CD3009F46FC0C03109F484C0C1316D
:1003000009F01AC39EC0CD3509F473C180F5C33519
:1003100009F4FEC078F4C03109F475C020F4CD3082
:1003200009F00AC358C0C13109F48BC0C23409F4C2
:10033000B0C002C3C63509F409C138F4C43509F4A4
:10034000ECC0C53509F4F3C0F7C2C73509F41DC1C7
:10035000C83509F0F1C28091C20494E79093EE048D
:100360001093EF040093F0048093F104DBC2C539CD
:1003700009F4C6C1F0F4C23709F457C120F4C137FB
:1003800009F43FC1D9C2C33709F47BC1C53709F0AD
:10039000D3C260910C0560931C056093BF0482E199
:1003A00090E00E94FB0C80911D0590911E0522E5B6
:1003B000B1C2C23B09F416C238F4C63909F4CAC145
:1003C000CC3909F4E6C1B8C2C23D09F43DC2C53F0B
:1003D00009F432C2B1C20115110509F4ADC2809110
:1003E0002905909128052091270536EB3093EE04DE
:1003F0001093EF040093F0042093F1049093F2041F
:100400008093F304B5C080917F0590918005059796
:1004100009F092C2EEEEF4E0119284E0E63FF807B4
:10042000D9F780912B0590912E0520912D053091C3
:100430002C054091280550912A05609127057FEEF3
:1004400015C080917F0590918005059701F58091F9
:100450002505909124052091230530912205409196
:1004600021055091200560911F0572EE7093EE04F6
:100470006093EF045093F0044093F1043093F2043E
:100480002093F3049093F4048093F50475C083E003
:100490007DC180917F05909180050597C1F7F0920D
:1004A0001E05E0921D05C7010E94FC1980911D05E3
:1004B00090911E0522E52093EE049093EF04809323
:1004C000F0041092F1041092F2041092F3041092CE
:1004D000F4041092F50483E090E0909380058093FB
:1004E0007F0581E08093ED0460912905646060934D
:1004F00029056093CF0485E190E00E94FB0C609198
:1005000029056093CF0485E190E00E94FB0C34C084
:100510001092800510927F050FC283E090E09093C7
:10052000800580937F0581E08093320505C280912C
:100530007F0590918005892B09F0FEC160E087E17D
:1005400090E00E94FB0C1092C204F6C180912C0531
:100550009091C204891B90E79093EE041093EF04EE
:100560000093F0048093F1041092F2041092F304CB
:100570001092F4041092F504DF91CF911F910F9126
:10058000FF90EF90DF900C945918D091C204DD23B6
:1005900009F4D2C1F12EC0E082EFE82EDC1709F495
:1005A000CBC18C2F0E941016FC018091D5048823AA
:1005B00011F08AE0EBC08381928121813081E09249
:1005C000EE04F092EF040093F0043093F1042093D2
:1005D000F2049093F3048093F404C093F5040E9412
:1005E0005918882321F08EED90E00E94B318CF5F58
:1005F000D5CFE016F10609F09FC181E00E94B8193D
:100600009BC1C0910C058FEF8C0F0E94DF18909159
:10061000D5049111CECF97E99093EE041093EF0497
:100620000093F004C093F10468C0EEEEF4E086EFAE
:1006300094E011928E179F07E1F70E947519C82F59
:100640008FEF8C0F0E941016FC019091D504992316
:1006500011F086E09BC0838192812181308142EF3D
:100660004093EE041093EF040093F0043093F104F0
:100670002093F2049093F3048093F404C093F50460
:1006800059C120910C0521110BC08BE98093EE0418
:100690001093EF040093F0041092F10488E02DC051
:1006A000822F90E0FC013197E830F105E0F4E65A42
:1006B000FF4F0C9482258091270516C080912A0552
:1006C00013C08091280510C080912C050DC0809129
:1006D0002D050AC080912E0507C080912B0504C00E
:1006E0008091290501C080E09BE99093EE0410936E
:1006F000EF040093F0042093F1048093F20414C1FA
:1007000086EF94E00E94830CAC01B7018BEB94E080
:100710000E94B70DC82F0E94CF1810928505109225
:10072000860510928705109288054C2F65E875E0C4
:100730008BEB94E00E94C00DC8138BCF6C2F70E040
:1007400020E040E08BEB94E00E94FF0C882309F44A
:10075000F3C02FCFC0910C05C150D0910D05C3310E
:1007600049F4D0931C05D093BF046D2F82E190E033
:100770000E94FB0C80912E058C1738F04D2F6C2FAA
:100780008BEB94E00E94290DC0C089E00E9486187E
:10079000D3C00E947519D82F0E94A119C82F80912B
:1007A0002D058C1708F405CF4FEF4C0F6FEF6D0F31
:1007B0008BEB94E00E94510D9091D5049111F9CEEC
:1007C00090911D0520911E0535EB3093EE0420938A
:1007D000EF049093F004D093F104C093F20480935B
:1007E000F304A4C080917F0590918005892B51F579
:1007F0000E94A119182F0E941016EC0140E0612FF1
:100800008BEB94E00E94510D9091D504911121CF72
:100810009B812A813981488153ED5093EE044093A6
:10082000EF043093F0042093F1049093F2041093BA
:10083000F3048093F4047CC080917F05909180053F
:10084000892B51F182E0A2CF86EF94E00E94830CC5
:10085000182F092F0E94A119C82F0E948C19D82F78
:10086000F0928505E0928605009387051093880530
:100870004C2F65E875E08BEB94E00E94C00DC81327
:10088000E8CE6C2F70E02D2F40E08BEB94E00E94BF
:10089000FF0C81118ECE39C086EF94E00E94830C4C
:1008A000082FD92E0E94A119C82F0E948C19D82F69
:1008B0000E947519182FF0928505E0928605D09256
:1008C0008705009388054FEF480F65E875E08BEBCF
:1008D00094E00E94C00D682F70E0212F30E021507D
:1008E00031096217730709F0B4CE4FEF4C0F2D2F6B
:1008F0008BEB94E00E94FF0C90E02C2F30E0215015
:1009000031098217930709F054CE80911D0590910B
:100910001E0529E52093EE049093EF048093F004E4
:100920001092F1041092F2041092F3041092F40465
:100930001092F5040E94591880E0DF91CF911F9129
:100940000F91FF90EF90DF900895AF92BF92CF92FA
:10095000DF92EF92FF920F931F93CF93DF938091DB
:100960000C068F3F29F480910B068F3F09F44FC08E
:100970000E94D10B00910F061091100620911106D4
:1009800030911206DC01CB01801B910BA20BB30B43
:1009900084369105A105B105D0F180917F05909134
:1009A00080050597A9F480910E06813041F460E03E
:1009B00080910C060E94070B10920E061EC061E08B
:1009C00080910C060E94070B81E080930E0615C0F3
:1009D0008091ED04813039F460E080910B060E9433
:1009E000070B61E006C061E080910B060E94070BD7
:1009F00060E080910C060E94070B0E94D10B60936F
:100A00000F06709310068093110690931206809142
:100A100013068F3F09F490C00E94DE0A209114064D
:100A2000892B81F4213009F087C00E94D10B60939B
:100A300081057093820580938305909384051092BD
:100A400014067AC0211178C081E0809314060E94B8
:100A5000D10B009181051091820520918305309181
:100A60008405DC01CB01801B910BA20BB30B8C0125
:100A70009D01095E13402109310907381341210501
:100A80003105C0F42091ED0480917F05909180059F
:100A9000213061F4059739F483E090E0909380056C
:100AA00080937F0549C00E94F11846C0059709F060
:100AB00043C0F2CF81379741A105B105E8F180919C
:100AC000ED04811117C080917F05909180050597F5
:100AD00019F360E080910B060E94070B80E00E94F2
:100AE000B81980917F05909180050497E1F60E94E6
:100AF000A504F7CF1092ED04609129056B7F6093F8
:100B000029056093CF0485E190E00E94FB0C809161
:100B1000290581FF09C08091330590913405909398
:100B20001E0580931D0506C010921E0510921D051E
:100B300080E090E00E94FC1980917F0590918005F3
:100B4000049709F07CC00E94D10B0091810510919F
:100B500082052091830530918405DC01CB01801B47
:100B6000910BA20BB30B893E9340A105B10508F48C
:100B700066C083E090E09093800580937F0540916C
:100B80000506A6E8B5E081E0841740F0209105064F
:100B900030E0E5E8F5E080E090E017C02D919FEFB0
:100BA000980FE92FF0E0EF01CB57DA4F3881EA5781
:100BB000FA4F231718F430839150F3CF20838F5FBF
:100BC000E3CF4191C41730F00196C1E0C80F8217FE
:100BD0009307BCF3C43640F080913005882379F147
:100BE00087E00E9486182BC0C093BF046C2F82E15F
:100BF00090E00E94FB0CC0931C0580913005882377
:100C0000F1F080911D0590911E0522E52093EE04E0
:100C10009093EF048093F0041092F1041092F20488
:100C20001092F3041092F4041092F5046C2F70E00B
:100C300080E090E02EEE34E043E00E946817C1E0CF
:100C4000D0E081E1E82E85E0F82EDD24D39499E50B
:100C5000C92E109231058091790590917A05892BE2
:100C600009F0D9C2D0937A05C093790580917D05AA
:100C700090917E05181619062CF010927A051092A4
:100C80007905C9C280917B0590917C05CC9724F0B1
:100C900010927C0510927B05EFEDF5E0A0917B05AD
:100CA000B0917C05A75CBA4F12968C91819380918C
:100CB0007B0590917C05019690937C0580937B0544
:100CC00080917D0590917E05019790937E0580939C
:100CD0007D0545E0EE3EF40709F710927A05109283
:100CE0007905E9E0F5E01192EE16FF06E1F71092C2
:100CF000150510921705109216051092180580918F
:100D0000DF058093FB048091E105809311058091BC
:100D1000E205809312058091E3058093130580918D
:100D2000E40580931405E5EEF5E08191DF01AD5D0A
:100D3000B1098C9385E0ED3EF807B9F7809109057C
:100D40008093F904843008F4B4C0873009F4B1C04A
:100D5000282F2F7B2F3309F4ACC092EA980F9230E2
:100D600008F4A7C0982F9F7D9F3909F4A2C0863B45
:100D700009F49FC08F3D09F49CC03CEF380F33301D
:100D800008F49AC038EF380F333008F495C03FEDBF
:100D9000380F333008F490C0803409F48DC03CEB38
:100DA000380F373008F488C08C3409F485C0382FE8
:100DB0003F7740EA430F423008F47EC0333609F4EF
:100DC0007BC0903809F478C03EE7380F343008F41F
:100DD00073C0823A09F470C030E4380F323008F43E
:100DE0006BC036EA380F323008F469C030E7380F8C
:100DF000353008F464C038E6380F333008F45FC08B
:100E00009D59923008F45BC0982F977F905B923089
:100E100008F455C09DE4920F923008F450C091E35D
:100E2000980F933008F44BC09CE2980F923008F46E
:100E300046C098E2980F923008F441C093E2980FB0
:100E40009230E8F190E1980F9230C8F19AE0980F53
:100E50009630A8F193E0980F933088F194EF980FB3
:100E6000923080F190EF980F923060F1823451F11E
:100E700090EB980F9A3030F194EA980F923010F17D
:100E800091E9980F9730F0F09BE6980F9330D0F0EF
:100E900095E6980F9230B0F0223BA1F0253B91F0FF
:100EA0009EE2980F923070F0823E61F08F3E69F4BE
:100EB00009C084E090E00BC081E090E008C083E0CE
:100EC00090E005C082E090E002C080E090E0909366
:100ED000FD048093FC048091E0058111D0921805F7
:100EE00080E00E94DF1881FBBB24B0F886EF94E01D
:100EF0000E942E0CA82E882319F0BB2009F45FC194
:100F000086EF94E00E94430C8823C1F086EF94E0C2
:100F10000E94580C8C010097B9F0AC0160E070E0C1
:100F20008BEB94E00E94B70D2091C50430E0482F70
:100F300050E0241735070CF461C136C0AA20F1F047
:100F400021E0B2121BC005C0AA2081F181E0B812D5
:100F50002DC086EF94E00E94830C009779F0AC01DD
:100F600060E070E08BEB94E00E94B70D2091C50427
:100F700030E0482F50E024173507B4F486EF94E0B2
:100F80000E94580C8C01892B89F0A80160E070E068
:100F90008BEB94E00E94B70D2091C50430E0482F00
:100FA00050E02417350714F08F5F01C080E0809374
:100FB000310580911805882389F080911D05909155
:100FC0001E05892B59F060911C0570E080E090E0CF
:100FD0002EEE34E040E00E9468173BCE2091F904E9
:100FE0002D3581F486EF94E00E94A40C20911D051C
:100FF00030911E058217930709F02BCE81E00E94E5
:10100000B81927CE40917F05509180054430510595
:1010100001F58091FB0481111CCE20910506233639
:1010200008F017CE8091110530E1839FC001112493
:1010300090911205929596959770892B8093F8045C
:10104000E22FF0E0EB57FA4F80832F5F20930506E5
:1010500000CE8091FC049091FD04452B09F073C0F3
:101060003091ED0431116FC0029729F4223D19F03F
:10107000253F09F0BDC086EF94E00E94830C082F45
:10108000A92E86EF94E00E94A40C9093850580938E
:101090008605A092870500938805B090C204109140
:1010A000C504B11610F01F5F11C02A2D482F692FFB
:1010B0008BEB94E00E946F0D181738F44B2D65E808
:1010C00075E08BEB94E00E94C00D182F80912C05E9
:1010D000811710F484E01DC08091F904823D11F065
:1010E000853FD1F40E94A119082F0E948C194FEF5F
:1010F000400F612F70E0282F8BEB94E00E94FF0CD3
:1011000090E0202F30E0215031098217930721F021
:1011100086E00E9486189DCD80911D0590911E0548
:10112000C092EE049093EF048093F0041092F104C7
:101130001092F2041092F3041092F4041092F50449
:101140000E94591886CD8230910539F138F4019703
:1011500049F5E0910806F091090617C0E0910606EE
:10116000F09107068330910519F0049731F01AC009
:101170008091290580FD16C008C08091290580FD59
:1011800011C02730C1F50C940000309759F069EB7D
:1011900074E086EF94E0099505C00E945D01882304
:1011A00009F457CDE0910606F0910706309709F44F
:1011B00050CD69EB74E086EF94E009954ACD86EF57
:1011C00094E00E94830C8C0186EF94E00E94A40CB2
:1011D000A801BC018BEB94E00E94B70D2091C504DF
:1011E00030E0482F50E0241735070CF489CEDCCED0
:1011F0000E945D012ECD2E3531F2C7CFAA2009F411
:10120000C4CE41E0B41609F4A4CE86EF94E00E9467
:10121000580C8C01BACE80E0DF91CF911F910F91D5
:10122000FF90EF90DF90CF90BF90AF900895FF9226
:101230000F931F93CF93DF93182FF62EC72FD42F22
:1012400060E08091E6040E94070B83E00E94270C77
:10125000812F0E94270C0F2D1C2FC0E0CD1751F0BD
:10126000C83041F080E00E94270CF80181938F0183
:10127000CF5FF4CF61E08091E604DF91CF911F91C1
:101280000F91FF900C94070BCF92DF92EF92FF9299
:101290000F931F93CF93DF936C017A018B01C0E012
:1012A000D0E0CE15DF0581F0D8016D918D01D6011A
:1012B000ED91FC910190F081E02DC6010995892BFB
:1012C00011F02196EECF7E01C701DF91CF911F91E2
:1012D0000F91FF90EF90DF90CF900895FC01918DDA
:1012E000828D981761F0828DDF01A80FB11D5D9688
:1012F0008C91928D9F5F9F73928F90E008958FEFF6
:101300009FEF0895FC01918D828D981731F0828DA9
:10131000E80FF11D858D90E008958FEF9FEF089500
:10132000FC01918D228D892F90E0805C9F4F821B64
:1013300091098F73992708958AE693E00E94900996
:1013400021E0892B09F420E0822F0895FC01848D8F
:10135000DF01A80FB11DA35ABF4F2C91848D90E0DF
:1013600001968F739927848FA689B7892C93A089BA
:10137000B1898C9180648C93938D848D981306C071
:101380000288F389E02D80818F7D80830895EF921C
:10139000FF920F931F93CF93DF93EC0181E0888F2F
:1013A0009B8D8C8D981305C0E889F989808185FD16
:1013B00024C0F62E0B8D10E00F5F1F4F0F73112707
:1013C000E02E8C8DE8120CC00FB607FCFACFE8892E
:1013D000F989808185FFF5CFCE010E94A609F1CF62
:1013E0008B8DFE01E80FF11DE35AFF4FF0820B8F4A
:1013F000EA89FB898081806207C0EE89FF8960836A
:10140000E889F98980818064808381E090E0DF91C0
:10141000CF911F910F91FF90EF900895CF93DF939D
:10142000EC01888D8823C9F0EA89FB89808185FDDC
:1014300005C0A889B9898C9186FD0FC00FB607FC3D
:10144000F5CF808185FFF2CFA889B9898C9185FF7E
:10145000EDCFCE010E94A609E7CFDF91CF9108958D
:1014600080E090E0892B21F00E949C0981110DC041
:1014700080E090E0892B71F080E090E0892B51F0C2
:101480000E940000811104C008950E940000F0CF66
:101490000C940000089590E0FC013297ED30F105C6
:1014A00090F5EE59FF4F0C948225809180008F7744
:1014B00003C0809180008F7D80938000089584B563
:1014C0008F7702C084B58F7D84BD08958091B00070
:1014D0008F7703C08091B0008F7D8093B000089516
:1014E000809190008F7703C0809190008F7D8093D2
:1014F000900008958091A0008F7703C08091A00094
:101500008F7D8093A00008950E94A9261F920F92BC
:101510000FB60F9211242F933F934F935F936F93C6
:101520007F938F939F93AF93BF93EF93FF938AE63D
:1015300093E00E94A609FF91EF91BF91AF919F9117
:101540008F917F916F915F914F913F912F910F906C
:101550000FBE0F901F9018951F920F920FB60F920B
:1015600011242F938F939F93EF93FF93E0917A032E
:10157000F0917B038081E0918003F091810382FDF3
:1015800012C09081809183038F5F8F7320918403B9
:10159000821751F0E0918303F0E0E659FC4F958FFC
:1015A0008093830301C08081FF91EF919F918F9180
:1015B0002F910F900FBE0F901F901895CF93DF9330
:1015C000282F30E0F901E35FFD4F8491F901E350EA
:1015D000FF4FD491F901E85EFE4FC491CC2391F006
:1015E00081110E944B0AEC2FF0E0EE0FFF1FEF5F1E
:1015F000FD4FA591B491EC91ED2381E090E021F4B1
:1016000080E002C080E090E0DF91CF9108951F93C9
:10161000CF93DF93282F30E0F901E35FFD4F8491F2
:10162000F901E350FF4FD491F901E85EFE4FC491F8
:10163000CC23C1F0162F81110E944B0AEC2FF0E051
:10164000EE0FFF1FEB50FE4FA591B4919FB7F8949A
:10165000111104C08C91D095D82302C0EC91DE2BDF
:10166000DC939FBFDF91CF911F910895CF93DF93BC
:1016700090E0FC01E350FF4F2491FC01E85EFE4F37
:101680008491882361F190E0880F991FFC01EF504D
:10169000FF4FC591D491FC01EB50FE4FA591B49141
:1016A000611109C09FB7F8948881209582238883AF
:1016B000EC912E230BC0623061F49FB7F8948881BF
:1016C000322F309583238883EC912E2B2C939FBF50
:1016D00006C08FB7F894E8812E2B28838FBFDF9147
:1016E000CF9108953FB7F89480913C0390913D03CA
:1016F000A0913E03B0913F0326B5A89B05C02F3FA4
:1017000019F00196A11DB11D3FBFBA2FA92F982F27
:101710008827820F911DA11DB11DBC01CD0142E0A2
:10172000660F771F881F991F4A95D1F708958F92EA
:101730009F92AF92BF92CF92DF92EF92FF926B0196
:101740007C010E94720B4B015C01C114D104E104C5
:10175000F104F1F00E94720BDC01CB0188199909A8
:10176000AA09BB09883E9340A105B10570F321E0A9
:10177000C21AD108E108F10888EE880E83E0981EAD
:10178000A11CB11CC114D104E104F10419F7DDCF8F
:10179000FF90EF90DF90CF90BF90AF909F908F9091
:1017A00008952FB7F89460913803709139038091B0
:1017B0003A0390913B032FBF08951F920F920FB6EB
:1017C0000F9211242F933F938F939F93AF93BF93C7
:1017D0008091380390913903A0913A03B0913B0373
:1017E0003091370323E0230F2D3720F40196A11DFC
:1017F000B11D05C026E8230F0296A11DB11D20933F
:1018000037038093380390933903A0933A03B0933E
:101810003B0380913C0390913D03A0913E03B09126
:101820003F030196A11DB11D80933C0390933D039E
:10183000A0933E03B0933F03BF91AF919F918F91CF
:101840003F912F910F900FBE0F901F9018958EBD56
:1018500000000DB407FEFDCF8EB50895FC01938105
:10186000892F8F7D8059823058F080E3890F823034
:1018700038F081E0903F31F0913F21F080E0089511
:1018800081E008950895FC019381892F8F7D885907
:10189000823058F088E2890F823038F081E0983F3A
:1018A00031F0993F21F080E0089581E00895089596
:1018B000FC0193819B35C1F088E6890F8330A0F04D
:1018C000892F8F798D59823078F088E4890F8230A2
:1018D00058F088E2890F823038F088E0890F843030
:1018E00018F080E090E0089586E0890F823010F0D3
:1018F0009B3519F48489958902C086899789982730
:10190000892798270895FC019381292F2F7B20593F
:10191000263070F080E5890F853050F080E1890F26
:10192000823030F0935F933018F080E090E00895BB
:101930008689978998278927982708950C942026C7
:101940000C9420260C942026FC0193899234A9F152
:1019500080EB890F8B3088F184EA890F823068F13F
:1019600081E9890F873048F180E7890F8F3028F1AE
:1019700080E5890F873008F188E4890F8230E8F02C
:10198000292F2F7B2D5B2230C0F080E3890F86301A
:10199000A0F088E2890F823080F083E2890F8230E4
:1019A00060F0933E51F080E1890F823030F0935F18
:1019B000973018F080E090E0089584899589982701
:1019C0008927982708950895FC018AE291E0918380
:1019D0008083DF015396CF014B961D92A817B9075C
:1019E000E1F7138E148E158E168E178E11A210A28B
:1019F00012A2089508950C9452250C944A25CF9371
:101A0000FC01DB01878190E06817790718F081E01D
:101A1000840F1DC093854917D0F7622FC42F492F1B
:101A200050E04C5F5F4F4A9F90014B9F300D5A9F93
:101A3000300D112485859685820F931F4C2F50E021
:101A40004C5F5F4F840F951F0E94FB0C8C2FCF9132
:101A500008951F93CF93DF93FC0181858617E8F0EB
:101A6000142FC62FD0E0FE01EE0FFF1FE157FB4FF2
:101A7000842F90E0918380836996CE010E94FD0CB3
:101A8000181759F088E292E00E94B318612FCE0136
:101A9000DF91CF911F910C94FB0CDF91CF911F919F
:101AA0000895FC01128E87816817B0F423854217D0
:101AB00098F430E02C5F3F4F629FD001639FB00DE0
:101AC0001124858596858A0F9B1F50E04C5F5F4FE0
:101AD000840F951F0C94FD0C8FEF828F0895AF92A9
:101AE000BF92CF92DF92EF92FF920F931F93CF930B
:101AF000DF93EC018F81A7E0B4E0EBE4F4E090E049
:101B0000E62EF12CC42ED12C30E010E09817F9F01D
:101B1000611102C0442369F0AD90BC901197EA14A2
:101B2000FB0489F49296AD90BC909397CA14DB04A1
:101B300051F4A080B1802A153B0529F4A2A0B3A0DE
:101B40000A151B0541F09F5F12963296DFCF9A85EA
:101B500081E0890F01C0892FDF91CF911F910F91F3
:101B6000FF90EF90DF90CF90BF90AF9008950F93CC
:101B7000252F042F462F672F0E946F0D0F91089578
:101B8000CF92DF92EF92FF921F93CF93DF93FC01EE
:101B90001285411718F081E0810F4DC0142FFB0111
:101BA000DC01842F90E0EC01CC0FDD1FC95FDB4F1F
:101BB000208130E039832883EC01CC0FDD1FC75D25
:101BC000DB4F218130E039832883EC01CC0FDD1F0E
:101BD000C55BDB4F228130E039832883EC01CC0FD9
:101BE000DD1FC359DB4F238130E0398328831B96E7
:101BF0002C911B9730E02C5F3F4F289F7001299F4D
:101C0000F00C389FF00C11241D968D919C911E971D
:101C1000E80EF91E6B0184E0C80ED11CEB01E61A38
:101C2000F70AC7018C0F9D1F69910E94FB0CCC1510
:101C3000DD05B9F7812FDF91CF911F91FF90EF90D4
:101C4000DF90CF900895FC0180E090E0238530E0A4
:101C5000821793073CF4A281B381A80FB91F1C928D
:101C60000196F4CF81E68483158285EC8683178202
:101C7000148A0895EF92FF920F931F93CF93DF93EF
:101C800000D000D0CDB7DEB78C010E94230EF80142
:101C90008285878319821A828AE38B838CEF8C83F7
:101CA000E12CF12CF8014285842F90E00197E81691
:101CB000F906CCF44E2DBE016F5F7F4FC8010E9424
:101CC000C00D8C818F5F8C83811103C08B818F5FEE
:101CD0008B8320E040E0B701C8010E94FF0CFFEFBA
:101CE000EF1AFF0ADFCF19821A8282E18B8387E61F
:101CF0008C834150BE016F5F7F4FC8010E94C00DB1
:101D0000F801628570E06150710920E040E0C8018F
:101D10000E94FF0C46E060E0C8010E94290DFF24EC
:101D2000F39442E06F2DC8010E94290DF394F9E06D
:101D3000FF12F7CF41E06F2DC8010E94290DF394E7
:101D400081E1F812F7CF40E061E1C8010E94290D5E
:101D500040E062E1C8010E94290D41E663E1C8014B
:101D60000E94290D42E064E1C8010E94290D67E547
:101D700080E090E00E94FB0CF801648182E190E039
:101D80000E94FB0CF801658183E190E00E94FB0C4E
:101D9000F801668184E190E00E94FB0CF8016489FF
:101DA00085E190E00E94FB0CF801678187E190E0FB
:101DB0000E94FB0CF801638588E190E00E94FB0C17
:101DC000C8010E94EE0E0F900F900F900F90DF91C0
:101DD000CF911F910F91FF90EF900895CF93DF93D4
:101DE000EC010E94230E80E090E00E94FD0C8735FC
:101DF00019F0CE010E943A0E82E190E00E94FD0CA3
:101E00008C8383E190E00E94FD0C8D8384E190E05F
:101E10000E94FD0C8E8385E190E00E94FD0C8C8B6E
:101E200087E190E00E94FD0C8F83DF91CF910895B0
:101E300022E431E0FC013183208382819381009789
:101E400011F00C9420260895CF93DF93EC010E94AB
:101E5000180FCE01DF91CF910C9420262AE431E0B7
:101E6000FC0121933193CF010C94180FCF93DF9392
:101E7000EC010E942E0FCE01DF91CF910C94202611
:101E800008958F929F92AF92BF92EF92FF920F931D
:101E90001F93CF93DF9325E0E22E23E0F22E06E09E
:101EA00011E0C0E0D0E0812C912C54018394F70123
:101EB00081917F0180FF3CC0F80180810E94D8158C
:101EC0009E0193E0359527959A95E1F7AE0147700D
:101ED00055278823B1F0D501C40104C0880F991F8C
:101EE000AA1FBB1F4A95D2F7F901E553FD4F408168
:101EF000482B4083F901EE5FFC4F80959081892348
:101F000016C0D501C40104C0880F991FAA1FBB1FAA
:101F10004A95D2F7F901E553FD4F482F409550817E
:101F200045234083F901EE5FFC4F2081822B8083A3
:101F300021960F5F1F4FC031D10509F0B8CFDF9157
:101F4000CF911F910F91FF90EF90BF90AF909F9016
:101F50008F9008951F93CF93DF9380FF03C0C82F06
:101F6000CE7F02C0C1E0C80FEC2FF0E0EB5FFC4F6A
:101F7000908191FF5BC090FD59C0EC2FE695E695EE
:101F8000E695F0E0EE5FFC4FD0811C2F17702D2FEF
:101F900030E0012E02C0359527950A94E2F72170B2
:101FA000332741E050E0892F847092FF02C040E067
:101FB00050E024173507D1F5811129C081E090E068
:101FC000A0E0B0E004C0880F991FAA1FBB1F1A959C
:101FD000D2F780958D238083D0E08C2F0E94081348
:101FE00080910103882311F188ED91E00E94DE16B3
:101FF0006AE070E08C2F0E94C11889EA91E00E948B
:10200000DE168D2FDF91CF911F910C94CF1841E0F8
:1020100050E060E070E004C0440F551F661F771F5A
:102020001A95D2F74D2B4083D1E0D7CFDF91CF91D6
:102030001F910895AF92BF92DF92EF92FF920F939C
:102040001F93CF93DF93C82FD62E082F10E0C8011F
:102050008B5F9C4F5C01FC01D081C8018B5E9C4F63
:102060007C01D1FF4BC08091EE02F7018083D2FB4F
:10207000DD27D0F981E0D82780910003882309F477
:102080006BC0A5E0B3E0E5E1F3E080E090E02D91E6
:1020900021FF2EC020FD2CC00817190749F120810F
:1020A00021502E3F28F580910103882389F089EE85
:1020B00091E00E94DE166AE070E08091FF020E94CB
:1020C000C1188EEF91E00E94DE168C2F0E94CF186F
:1020D0008091FF02E82FF0E0E151FD4FC0838F5F58
:1020E000803109F48FE08093FF02F7011082A6C0CF
:1020F000019631968031910551F62EC08FEFF70190
:102100008083862F877FD1E0803911F06D13D0E076
:10211000809101038823C9F080E092E00E94DE16DE
:102120006AE070E08C2F0E94C11886E092E00E9465
:10213000DE166AE070E08D2D0E94C11880E192E009
:102140000E94DE168D2F0E94CF18F501808182FF3C
:1021500003C0D1111CC002C0DD23C9F0EC2FE695ED
:10216000E695E695F0E0EE5FFC4F2C2F277081E0BE
:1021700090E0A0E0B0E004C0880F991FAA1FBB1F29
:102180002A95D2F72081822B8083D1E019C0EC2FD1
:10219000E695E695E695F0E0EE5FFC4F2C2F277074
:1021A00081E090E0A0E0B0E004C0880F991FAA1F72
:1021B000BB1F2A95D2F78095908189238083D0E038
:1021C0008C2F0E940813C11106C0DD2311F0739AF1
:1021D00011C073980FC0C13031F4DD2311F0729A31
:1021E00009C0729807C0F801EA5FFE4F6D2F808129
:1021F0000E94070B80910103882381F080E092E028
:102200000E94DE166AE070E08C2F0E94C11889EAF5
:1022100091E00E94DE168D2F0E94CF18809100035E
:10222000882361F08C2FDF91CF911F910F91FF9048
:10223000EF90DF90BF90AF900C94AA0FDF91CF91F9
:102240001F910F91FF90EF90DF90BF90AF90089596
:10225000CF92DF92EF92FF920F931F93CF93DF9372
:1022600080910103882321F089E192E00E94021607
:1022700005E013E0C0E0D0E0C12CD12C7601C3947E
:10228000F80181918F018370D9F5FE0183E0F59506
:10229000E7958A95E1F7EE5FFC4F80819E012770FC
:1022A0003327482F50E0022E02C0559547950A94D7
:1022B000E2F740FD0DC0B701A601022E04C0440F95
:1022C000551F661F771F0A94D2F7482B40830DC015
:1022D000B701A601022E04C0440F551F661F771FC9
:1022E0000A94D2F7409584238083608170E002C015
:1022F000759567952A95E2F761708C2F0E941A10E8
:102300002196C031D10509F0BBCF8091010388230C
:1023100061F087E292E0DF91CF911F910F91FF90E2
:10232000EF90DF90CF900C940216DF91CF911F9128
:102330000F91FF90EF90DF90CF900895AF92BF92F2
:10234000CF92DF92EF92FF921F93CF93DF93EC0136
:102350007B01FB01E858FF4F108180910103882326
:1023600009F46DC089E392E00E94DE16812F0E947D
:10237000CF18112309F465C0809101038823D1F19E
:1023800089E492E00E94DE16812F0E94CF1885E535
:1023900092E00E94DE16CE010E94430C97012E5F50
:1023A0003F4F6901882339F0CE010E94580CAC01DF
:1023B00060E070E009C0CE010E94830C5C01CE0198
:1023C0000E94A40CA501BC01C6010E94B70DF70133
:1023D000ED58FF4F9081891730F440E0682FC60117
:1023E0000E94510D01C080E00E94CF188CE791E05F
:1023F0000E9402168FEF810F803198F4E82FF0E0F1
:10240000EB5FFC4F908190FDF9C06B81DF91CF9124
:102410001F91FF90EF90DF90CF90BF90AF900C9402
:102420001A10803109F0EAC0DF91CF911F91FF901F
:10243000EF90DF90CF90BF90AF900C94410F1111AF
:10244000D9CF8B81883091F58091CA028823A9F178
:102450001092D5048091C404823108F0ACC08FEF93
:102460008093D504409164035091650390E08417F4
:10247000950709F0A5C01092D5048091C40483315A
:1024800008F0A9C08FEF8093D50440916603509166
:10249000670390E08417950709F0A2C080910103BB
:1024A000882321F080E692E00E9402168B81893019
:1024B00021F48091CA0281119EC08091010388237A
:1024C00009F49CC0CE010E942E0C882389F083E57C
:1024D00092E00E949818CE010E94A40C0E94091953
:1024E00089E492E00E949818CE010E94830C0CC0EF
:1024F000CE010E94430C8823B1F08CE392E00E944D
:102500009818CE010E94580C0E9409198AE791E0A0
:10251000DF91CF911F91FF90EF90DF90CF90BF9010
:10252000AF900C94F01587E792E00E94DE1660E110
:1025300070E08B810E94C1188CE792E00E94DE1649
:10254000CE010E94A40C0E94091983E892E00E9427
:10255000DE162B8D80E1289F900111248C8D8295B1
:1025600086958770822B8A836AE070E00E94C1188A
:102570008BE892E00E94DE168B8990E025E095952D
:1025800087952A95E1F78C836AE070E00E94C11874
:1025900089E992E00E94DE1680917F059091800586
:1025A000DF91CF911F91FF90EF90DF90CF90BF9080
:1025B000AF900C94CE168AE290E00E94FD0C52CFB0
:1025C00080912E05813108F456CF61E18BEB94E0C8
:1025D0000E94290D50CF8BE290E00E94FD0C55CF58
:1025E00080912E05823108F459CF62E18BEB94E0A3
:1025F0000E94290D53CF0E9428115FCFDF91CF9108
:102600001F91FF90EF90DF90CF90BF90AF90089513
:10261000CF93DF93C82F809104032C2F30E0E091FB
:102620000103F091C404D901AB5FBC4F882341F092
:102630008C91982F9170282F2570253021F039C06A
:102640008C9182FF3AC0C830B8F04C2F4770C695C5
:10265000C695C695D0E0CE5FDC4F888190E0042E11
:1026600002C0959587950A94E2F720916603309110
:10267000670380FD4AC03BC08091020390E00C2EAE
:1026800002C0959587950A94E2F7209164033091F2
:10269000650380FD7BC081E090E0A0E0B0E004C075
:1026A000880F991FAA1FBB1FCA95D2F7822B932BA5
:1026B0007CC0911102C081FFC4CFC83008F445C06E
:1026C0004C2F4770C695C695C695AC2FB0E0AE5F4F
:1026D000BC4F8C9190E0042E02C0959587950A948A
:1026E000E2F7209166033091670380FF0EC081E01E
:1026F00090E0A0E0B0E004C0880F991FAA1FBB1FA4
:102700004A95D2F7822B932B0FC081E090E0A0E096
:10271000B0E004C0880F991FAA1FBB1F4A95D2F7CB
:10272000809590958223932390936703809366030B
:10273000F23108F43FC080916603909167039927B6
:102740009093B4048093B30435C04091020350E0E9
:102750000C2E02C0559547950A94E2F72091640328
:102760003091650340FF12C041E050E060E070E04E
:1027700004C0440F551F661F771FCA95D2F7422B1E
:10278000532B509365034093640336C081E090E07F
:10279000A0E0B0E004C0880F991FAA1FBB1FCA9514
:1027A000D2F780959095822393239093650380932D
:1027B000640322C0EE2309F44EC081EA92E00E9435
:1027C000DE166AE070E083E190E00E948B168CECEC
:1027D00091E00E94DE1662E070E0809166039091C5
:1027E00067030E948B168CEC91E00E94DE168091AC
:1027F0006603909167032BC0F13148F08091640328
:102800009091650399279093B2048093B104EE23CD
:1028100011F181EA92E00E94DE166AE070E082E146
:1028200090E00E948B168CEC91E00E94DE1662E034
:1028300070E080916403909165030E948B168CEC8C
:1028400091E00E94DE168091640390916503DF9110
:10285000CF910C94CE16DF91CF9108953F924F9275
:102860005F926F927F928F929F92AF92BF92CF9220
:10287000DF92EF92FF920F931F93CF93DF9300D0DD
:1028800000D000D0CDB7DEB71092320580E00E94B4
:10289000DF18282F237030E0359527952093CD023F
:1028A000982F91709093CA0286958695813049F051
:1028B00030F0823041F0833039F488E205C085E0A1
:1028C00003C08AE001C084E18093EE0284E10E94AB
:1028D000DF18881F8827881F8093010384E10E94E6
:1028E000DF1881708093000380910103882341F0F9
:1028F0008AEA92E00E94DE16809100030E94CF18BF
:1029000080910103882379F084E10E94DF18869585
:1029100081708093040389EB92E00E94DE1680911F
:1029200004030E94CF1805E013E046E0C42E41E006
:10293000D42E85E193E09A838983EEECF2E0FC8368
:10294000EB831E821D82812C912C540183944D8037
:10295000842D8F5F0E94DF18582EF8018081851525
:1029600009F4BFC0E981FA8110828D819E8150FEF9
:1029700049C0892B19F46B98739A0CC0ED81FE81C4
:10298000319719F46A98729A05C062E0F601808165
:102990000E94360B842D0E941016FC0182819381C7
:1029A000982789279827EB81FC8191838083F80100
:1029B0002081852D822782FF8FC04D815E814770E7
:1029C00055278D819E8133E0959587953A95E1F75E
:1029D000FC01E553FD4F208130E0042E02C0359507
:1029E00027950A94E2F7FC01EE5FFC4FD501C40184
:1029F00004C0880F991FAA1FBB1F4A95D2F720FD5C
:102A0000C1C067C0892B11F46B9A0BC0ED81FE81A8
:102A1000319711F46A9A05C061E0F60180810E9445
:102A2000360BF8018081982F95256D807E8023E0FC
:102A3000759467942A95E1F7ED80FE80F7E0EF2228
:102A4000FF24252D227090FF03C0F801508216C08C
:102A50008525F801508282FF11C021110CC0F301BD
:102A6000EE5FFC4F608170E002C075956795EA9457
:102A7000E2F7617015C052FC1AC064C0211114C085
:102A8000F301EE5FFC4FD501C40104C0880F991F0C
:102A9000AA1FBB1FEA94D2F72081822B808361E0BA
:102AA000842D0E941A101BC052FC52C056C0ED81EA
:102AB000FE81EF2B09F06AC0739AF301EE5FFC4FC1
:102AC000D501C40104C0880F991FAA1FBB1FEA9437
:102AD000D2F72081822B8083842D0E940813F80175
:102AE00050828D819E8101969E838D830F5F1F4F43
:102AF0009FEFC91AD90AE981FA813196FA83E983ED
:102B00008B819C8102969C838B83ED81FE817097E3
:102B100009F01DCF26960FB6F894DEBF0FBECDBFCD
:102B2000DF91CF911F910F91FF90EF90DF90CF90A9
:102B3000BF90AF909F908F907F906F905F904F90DD
:102B40003F9008958D819E81892B59F473980EC012
:102B50008D819E81892BD1F4AFCFED81FE81EF2B4A
:102B6000A9F3ED81FE81319709F57298F301EE5FCB
:102B7000FC4FD501C40104C0880F991FAA1FBB1FB9
:102B8000EA94D2F7809590818923A5CF8D819E818B
:102B9000019711F4729A91CF33243394632DF60187
:102BA00080810E94070B311088CFE0CF312CF6CF07
:102BB0008A3129F42CB123FB222720F906C0893160
:102BC00039F42CB122FB222720F981E0282706C006
:102BD0000E94DE0A21E0892B09F020E0822F08956F
:102BE000009769F0FC0101900020E9F73197AF01EF
:102BF000481B590BBC018AE693E00C94440980E021
:102C000090E00895CF93DF930E94F015EC018AE7DE
:102C100091E00E94F0158C0F9D1FDF91CF910895D8
:102C20001092CB041092CC041092CD041092CE04DA
:102C30001092D5049091C504981720F09091C20489
:102C4000981720F481E08093D50421C090E0FC0126
:102C5000EE0FFF1FE95FFB4F20812093CB04FC01A7
:102C6000EE0FFF1FE75DFB4F20812093CC04FC019A
:102C7000EE0FFF1FE55BFB4F20812093CD04880FF3
:102C8000991FFC01E359FB4F80818093CE048BECAC
:102C900094E008958F929F92AF92BF920F931F93EB
:102CA000CF93DF93CDB7DEB7A1970FB6F894DEBF11
:102CB0000FBECDBF19A2423008F44AE08E010F5D6D
:102CC0001F4F842E912CA12CB12CA50194010E94A0
:102CD0006025E62FB901CA0101501109EA3014F448
:102CE000E05D01C0E95CD801EC93232B242B252B5C
:102CF00061F7C8010E94F015A1960FB6F894DEBFE7
:102D00000FBECDBFDF91CF911F910F91BF90AF90BC
:102D10009F908F900895CF92DF92EF92FF92CF9382
:102D2000DF936115710559F4682F8AE693E0DF910E
:102D3000CF91FF90EF90DF90CF900C94C7096C017A
:102D4000990FEE08FF086A307105E9F4F7FE19C023
:102D50006DE28AE693E00E94C709EC0166277727B7
:102D6000CB016C197D098E099F094AE00E944A1621
:102D70008C0F9D1FDF91CF91FF90EF90DF90CF9050
:102D800008954AE001C0462FC701B601DF91CF91F7
:102D9000FF90EF90DF90CF900C944A16CF93DF9383
:102DA0006AE070E00E948B16EC018AE791E00E94D5
:102DB000F0158C0F9D1FDF91CF9108950C94F015A5
:102DC0001F93CF93DF93182FC9EBD4E060E08DA55C
:102DD0000E94070B83E00E94270C812F0E94270C82
:102DE00080E00E94270C182F61E08DA50E94070B40
:102DF000812FDF91CF911F910895FF920F931F9321
:102E0000CF93DF93F82E062F142FC9EBD4E060E0A8
:102E10008DA50E94070B85E00E94270C8F2D0E9434
:102E2000270C802F0E94270C812F0E94270C61E025
:102E30008DA5DF91CF911F910F91FF900C94070BFF
:102E4000FF920F931F93CF93DF93C82FF62E072F78
:102E5000142F60E08091E6040E94070B82E00E943C
:102E6000270C8C2F0E94270CCF2DD02FCE01810F45
:102E7000911D8C01C017D10721F089910E94270C68
:102E8000F9CF61E08091E604DF91CF911F910F911E
:102E9000FF900C94070B0F931F93CF93DF93082F92
:102EA000162FC9EBD4E060E08DA50E94070B82E0ED
:102EB0000E94270C802F0E94270C812F0E94270C34
:102EC00061E08DA5DF91CF911F910F910C94070BBD
:102ED0004F925F926F928F929F92AF92BF92CF92DA
:102EE000DF92FF920F931F93CF93DF9300D000D018
:102EF000CDB7DEB71092D6046093D7047093D80490
:102F00008093D9049093DA04493008F048E0409364
:102F1000DB041092E404ACEDB4E0F90150E0CF0121
:102F2000821B930B841795071CF481918D93F7CF27
:102F3000A12CB12C40904E0150904F016090500157
:102F40004E0124E0820E911C49825A826B82CE018E
:102F500001966C01F82E0D2DF60111916F01812F54
:102F60000E94E016982F987083FD02C01F5F05C075
:102F70008C149D0489F710E092E0FFEFAF1ABF0AAE
:102F8000923029F422E3A216B104F1F67CC082E368
:102F9000A816B10409F477C04091DB046CED74E02D
:102FA00085E0810F0E9420178091E404813029F48C
:102FB0008091DB0480648093DB046091DB0484E017
:102FC000810F0E944B174091D7045091D804609113
:102FD000D9047091DA048091D6048130B1F44C8325
:102FE0005B83AB0166277727942F9C71842F8370B6
:102FF000E8E09E9F800D112488608A8365E05695E5
:1030000047956A95E1F749830DC0CA0123E096957B
:1030100087952A95E1F789834295440F407E4A833C
:103020001C821B8244E06F2D702F812F0E9420177D
:10303000115048E068E0812F0E94FD16C12CD12C70
:10304000FFEFCF1ADF0A812F0E94E01683FF05C031
:1030500022E3C216D104A1F718C082E3C816D10436
:10306000A1F01092D7041092D8041092D9041092B3
:10307000DA041092DB041092D6041092E404109249
:10308000E50480E003C086E001C087E00F900F9068
:103090000F900F90DF91CF911F910F91FF90DF90D4
:1030A000CF90BF90AF909F908F906F905F904F9018
:1030B0000895CF93DF93C091EE04C295C695C77073
:1030C000CF5F81E08093EB048093EC0460911C055A
:1030D00070E080E090E02EEE34E04C2F0E94681704
:1030E000811102C080E00FC0D3E060911C0570E048
:1030F00080E090E02EEE34E04C2F0E946817882389
:1031000089F3D15091F7DF91CF910895E9EBF4E085
:10311000ADE1B5E09C9111962C913FE635AB26AB25
:1031200097AB80AF11AE12AE13AE14AE0C9459181B
:103130000F931F93CF93DF938C01C0E0D0E0F80191
:10314000EC0FFD1F6491662341F08AE693E00E9434
:10315000C709892B11F02196F2CFCE01DF91CF91D3
:103160001F910F910895CF93DF930E949818EC015F
:103170008AE791E00E94F0158C0F9D1FDF91CF919F
:103180000895AB01682F4115510521F48AE693E0BB
:103190000C94C70970E080E090E00C944A16CF933D
:1031A000DF936AE070E00E94C118EC018AE791E0C9
:1031B0000E94F0158C0F9D1FDF91CF910895109202
:1031C000D5049091C404891720F08FEF8093D50423
:1031D0000895E82FF0E0EE0FFF1FE157FB4F8081CD
:1031E0000895E9EBF4E085E090E09093800580930A
:1031F0007F05ADE1B5E08C9111969C9120E525AB62
:1032000096AB87AB10AE11AE12AE13AE14AE0C94EB
:103210005918BC0180E090E04AE00C944A161F93D4
:10322000CF93DF938823A1F0EB0183E10E94DF18A5
:10323000182F83E10E94DF1880E98093EE0410923A
:10324000EF041093F004D093F104C093F2040FC084
:1032500080911D0590911E0528E92093EE0490931E
:10326000EF048093F0047093F1046093F2041092E1
:10327000F3041092F4041092F504DF91CF911F91A2
:103280000C9459181F93CF93DF938823A1F0EB017F
:1032900083E10E94DF18182F83E10E94DF1881E983
:1032A0008093EE041092EF041093F004D093F10495
:1032B000C093F2040FC080911D0590911E0529E96D
:1032C0002093EE049093EF048093F0047093F10444
:1032D0006093F2041092F3041092F4041092F50437
:1032E000DF91CF911F910C9459188091F904823786
:1032F00021F08C3911F0853B19F480910C0508956B
:10330000853F19F480910E050895823F19F480914C
:103310001005089580E008958091F904853B19F423
:1033200080910E0508959EE2980F923018F48091D6
:103330000F050895853F19F480911005089580E0E8
:1033400008958091F9048C3911F0853B19F480912E
:103350000D050895823B11F0823D19F480910E0510
:103360000895853F19F480910F05089580E0089530
:10337000CF93DF93CDB7DEB728970FB6F894DEBFB3
:103380000FBECDBF109205068093300584E090E01B
:103390009093800580937F0582E08093EB0483E027
:1033A0008093EC0460911C0570E080E090E0FE01E9
:1033B0003196AE01475F5F4F9F011192E417F50709
:1033C000E1F741E04093E40440E00E946817109266
:1033D000E4040E94D10B6093810570938205809371
:1033E00083059093840528960FB6F894DEBF0FBE30
:1033F000CDBFDF91CF910895CF93DF93C9EBD4E098
:103400009F838887692F83E190E00E94FB0C688589
:1034100084E190E0DF91CF910C94FB0C0F931F930C
:10342000CF93DF9300D000D0CDB7DEB7182F109226
:10343000D6041092D7041092D8041092D904109296
:10344000DA0444E0BE016F5F7F4F0E9417092A81B2
:103450003981822F90E065E0959587956A95E1F72F
:1034600048E0349F800D911D1124092E000CAA0BF9
:10347000BB0B8093D7049093D804A093D904B09346
:10348000DA0423FF29C032E0880F991FAA1FBB1F4F
:103490003A95D1F72370820F911DA11DB11DBA2F4E
:1034A000A92F982F88272B81820F911DA11DB11D57
:1034B000BA2FA92F982F88272C81820F911DA11D2B
:1034C000B11D8093D7049093D804A093D904B093EE
:1034D000DA0481E08093D6048FEF810F0E94E0161A
:1034E000082F84E0810F0E94E01603FF04C091E0E2
:1034F0009093E40402C01092E404482F4F7040936C
:10350000DB046CED74E085E0810F0E9417090F90D9
:103510000F900F900F90DF91CF911F910F91089511
:103520001F93CF93DF93C9EBD4E060E08DA50E9499
:10353000070B80EA0E94270C80E00E94270C182FBE
:1035400061E08DA50E94070B812FDF91CF911F9124
:103550000895CF93C82F482F60EE8FE00E94FD168C
:103560008FE00E94E016982F907E81E09C1301C0AE
:1035700080E0CF910895789484B5826084BD84B54D
:10358000816084BD85B5826085BD85B5816085BD5E
:1035900080916E00816080936E0010928100809116
:1035A000810082608093810080918100816080939E
:1035B0008100809180008160809380008091B100C3
:1035C00084608093B1008091B00081608093B000EE
:1035D0008091910082608093910080919100816040
:1035E0008093910080919000816080939000809101
:1035F000A10082608093A1008091A10081608093EE
:10360000A1008091A00081608093A00080917A0049
:10361000846080937A0080917A00826080937A003F
:1036200080917A00816080937A0080917A0080682E
:1036300080937A001092C1003E9A61E080E00E947F
:10364000360B61E081E00E94360B0E94D10B683896
:10365000734181059105E8F460E080E00E94070B6A
:1036600060E081E00E94070B64E670E080E090E09B
:103670000E94970B61E080E00E94070B61E081E00F
:103680000E94070B64EF71E080E090E00E94970BCE
:10369000DCCF61E080E00E94070B61E081E00E94E6
:1036A000070B3E98469A06E011E0C0E0D0E0209774
:1036B00011F46B9A0AC0C130D10511F46A9A05C0A1
:1036C00061E0D8018C910E94360B21960F5F1F4F4D
:1036D000C031D10561F7AFE1B5E0FD01119205E020
:1036E000E732F007D9F7EEE5F1E081918D9311E033
:1036F000E636F107D1F787E5809328058DE08093C2
:10370000270581E080932A0582E080932B05809134
:10371000290583608093290585EC90E0A0E0B0E066
:103720008093330590933405A0933505B093360507
:10373000D1E036991BC00E94D10B4B015C01C1E066
:103740000E94D10BDC01CB0188199909AA09BB0998
:10375000883E9340A105B10508F084C5CC2349F308
:10376000C6B1C6FBCC27C0F9CD27EACF61E080E027
:103770000E94070B61E081E00E94070B8EE991E156
:1037800090930706809306068AE08093E60461E042
:103790000E94360B61E08091E6040E94070BC4E1B1
:1037A000D0E042E2A42E41E0B42E57E0E52E51E0F5
:1037B000F52ECFB6F89480912503811126C0F5012E
:1037C0008491F7012491E82FF0E0EE0FFF1FEF50F6
:1037D000FF4FA591B4919C91822F892321F461E040
:1037E0008AE00E94070B61E08AE00E94360B8CB5EC
:1037F00080618CBD8CB580648CBD61E08DE00E94E1
:10380000360B61E08BE00E94360B809125038F5FC1
:1038100080932503CFBE60E08091E6040E94070BF1
:1038200080EC0E94270C61E08091E6040E94070B67
:103830006AE070E080E090E00E94970B80E80E94D0
:10384000A91A882381F06AE070E080E090E00E948D
:10385000970B6EE170E080E090E00E94970B21975B
:1038600009F0A7CF4BC06AE070E080E090E00E94D2
:10387000970B61E08AE20E944B1761EB89E20E949C
:103880004B1765E088E20E944B176AE070E080E029
:1038900090E00E94970B10E360E0812F0E944B178D
:1038A00060E080E1810F0E944B1760E080E2810FB1
:1038B0000E944B171F5F1E3379F760E080E60E947D
:1038C0004B1760E080E70E944B1763E08BE20E9499
:1038D0004B1744E064E680E60E94FD1640E060E697
:1038E00080E70E94FD1680E00E94A91A8111ABCFEB
:1038F0006AE070E080E090E00E94970B8FEF809389
:10390000130662E00E94360B84E10E94DF18881FD4
:103910008827881F80930103882309F478C1E091E8
:103920007A03F0917B0382E08083E0917603F0914B
:1039300077031082E0917803F091790380E180832E
:1039400010928203E0917E03F0917F0386E08083F2
:10395000E0917C03F0917D03808180618083E09120
:103960007C03F0917D03808188608083E0917C03FB
:10397000F0917D03808180688083E0917C03F091E9
:103980007D0380818F7D8083C5E0D0E068EE73E0A9
:1039900080E090E00E94970B87E691E00E94DE169F
:1039A0002197A1F78CE791E00E94021689E691E049
:1039B0000E94DE1681E090E00E94CE168BEB94E030
:1039C0000E94EE0E82ED91E00E94B3188BEC91E024
:1039D0000E94981880E090E00E94FD0C60E170E089
:1039E0000E94C11882EC91E00E94981860E170E09A
:1039F0008091BF040E94C1188DEB91E00E9498183D
:103A00008091C0049091C1049827892798279093AA
:103A1000D1048093D0040E94091985EB91E00E94A3
:103A2000981860E170E08091CF040E94C11888EA84
:103A300091E00E94981860E170E08091C2040E94B9
:103A4000C11886E991E00E94981860E170E08091C9
:103A5000C6040E94C1188BE891E00E94981860E1AA
:103A600070E08091C4040E94C1188FE791E00E9429
:103A70009818C0E08091C404C81778F48C2F90E0A7
:103A800049960E94FD0C60E170E00E94C1188DE72C
:103A900091E00E949818CF5FEDCF81E791E00E94FE
:103AA0009818C0E08091C404C81790F4EC2FF0E09F
:103AB000EE0FFF1FE157FB4F60E170E080819181C5
:103AC0000E948B168FE691E00E949818CF5FEACF94
:103AD0008FE591E00E949818C2E0D0E0CE010E94EC
:103AE000FD0C60E170E00E94C1188DE591E00E943C
:103AF00098182196C231D10589F78CE491E00E9493
:103B0000981810E08091C704181718F5C12FD0E05D
:103B1000CC0FDD1F8091CA042E01480E511CC2013A
:103B20000E94FD0C60E170E00E94C1188091CA04FF
:103B30003E01680E711CC30101960E94FD0C60E1FC
:103B400070E00E94C1188AE491E00E9498181F5FFB
:103B5000D9CF81E491E00E94B318C091C804D091FC
:103B6000C90410E08091C504181708F050C07E0108
:103B700004E0E00EF11CCE010E94FD0C60E170E05B
:103B80000E94C11821968FE391E00E949818CE15EB
:103B9000DF0589F78DE391E00E949818A12EB12CE2
:103BA000AA0CBB1CE12CF12CF701EA0DFB1DE95F0F
:103BB000FB4F60E170E0808191810E948B168BE366
:103BC00091E00E94981822E2E20EF11C38E8E31618
:103BD000F10451F785E391E00E94981800E080918C
:103BE000C604081770F4CE010E94FD0C60E170E07D
:103BF0000E94C118219683E391E00E9498180F5FFC
:103C0000EECF8AE791E00E94F0151F5FABCF809165
:103C1000010381110EC010920B0681E080930C0607
:103C200061E080E00E94360B61E080910C060E940A
:103C3000360BF89489E0E0E0F0E08093570034918F
:103C4000E3E0F0E0809357002491E2E0F0E080931D
:103C500057009491E1E0F0E08093570084917894CC
:103C6000C1E03F3F09F4C0E02C3509F0CE5FE2E04F
:103C7000E90FE23020F0CC5F8F3F19F406C08F3F90
:103C800011F0C85F02C0CC2369F18091010381115A
:103C900002C0C1E014C084EE91E00E9498186AE06E
:103CA00070E08C2F0E94C1188DE791E00E940216EF
:103CB00068EE73E080E090E00E94970BECCF8D2DD2
:103CC0008C278170D82E682F80E00E94070B6D2D05
:103CD00081E00E94070B64EF71E080E090E00E94B9
:103CE000970BEDCF0E942E148091CA02882309F40D
:103CF00052C081E10E94DF188093020382E10E949A
:103D0000DF1880930303A5E0B3E020E030E0C12C8E
:103D1000D12C7601C3948D918570853091F5F90190
:103D2000C3E0F595E795CA95E1F7EE5FFC4F80811A
:103D3000A90147705527682F70E0042E02C07595C1
:103D400067950A94E2F760FD0EC02601370104C0B2
:103D5000440C551C661C771C4A95D2F7B301A2018E
:103D6000482B40830EC03601470104C0660C771C07
:103D7000881C991C4A95D2F7B401A301409584236D
:103D800080832F5F3F4F2031310529F60E94410F7C
:103D90000E94281150C08FE791E00E940216C5E0F2
:103DA000D3E000E010E0C12CD12C7601C39429911E
:103DB00020FF3BC0F801A3E0F595E795AA95E1F750
:103DC000C8018770992722FF16C04601570104C019
:103DD000880C991CAA1CBB1C8A95D2F7AF014553CD
:103DE0005D4FDA012C9128292C93EE5FFC4F208146
:103DF000882D822B16C02601370104C0440C551CA7
:103E0000661C771C8A95D2F7D301C2018095DF0129
:103E1000A553BD4F9C9198239C93EE5FFC4F9081DE
:103E200089238083802F0E9408130F5F1F4F00316A
:103E3000110509F0BCCF80910103882321F08EED9C
:103E400091E00E94B318ECE32E2E312C812C912CA2
:103E5000540183940E94720B609333037093340374
:103E6000809335039093360300912F031091300314
:103E700020913103309132036B017C01C01AD10AC9
:103E8000E20AF30A49EEC41643E0D406E104F10461
:103E900048F40E94A504809132058823A1F10E9474
:103EA0002E1431C060932F0370933003809331033D
:103EB00090933203C0E00E94901A837001F1F8C120
:103EC0008091E7048093F5058091E8048093F605DE
:103ED0008091E9048093F7058091EA048093F805C6
:103EE0004093F3058091E40481110DC21092F40512
:103EF0008091790590917A05892B09F408C2CF5FEA
:103F0000C23039F2D8CF8091330390913403A0911D
:103F10003503B091360340912B0350912C036091EF
:103F20002D0370912E032C013D01441A550A660A97
:103F3000770A01E5401603EC50066104710458F558
:103F40008091330390913403A0913503B0913603EF
:103F500040912703509128036091290370912A030F
:103F60002C013D01441A550A660A770A09E84016F1
:103F700003E150066104710408F460C180932703D3
:103F800090932803A0932903B0932A0380912603DA
:103F900011E0180F78C080932B0390932C03A0930B
:103FA0002D03B0932E0355E1E52E53E0F52E0EECD4
:103FB00012E065E0C62E63E0D62E76E0672E71E053
:103FC000772EC0E0D0E0D7018C9181508E3F08F071
:103FD00044C08C93811141C0F601808180FD03C0F3
:103FE00082FDE0C1EBC181FF38C0D8016D917C91A9
:103FF00081E09091CD02911180E00E944219809160
:104000000103882351F182EB91E00E94DE1680ECDF
:1040100091E00E94DE1682EC91E00E94DE16F8012B
:10402000808191810E9409198BEC91E00E94DE163B
:104030006AE070E08091CD020E94C1188091CD02AB
:10404000882319F081E591E002C088E591E00E94A3
:10405000DE168EEC91E00E9402162196FFEFEF1A19
:10406000FF0A0E5F1F4F2FEFC21AD20A3FEF631AEB
:10407000730AC031D10509F0A6CF62CF181709F431
:10408000D8C021961C2F1F70C12FD0E0AE014B5F0E
:104090005C4F7A01DA019C9190FFF0CF10932603D8
:1040A000181709F4C6C0FE01EA5FFE4F80810E9426
:1040B000D815082F482F50E0CE0133E0959587950D
:1040C0003A95E1F7FC01E553FD4F7081612F677070
:1040D000272F30E0062E02C0359527950A94E2F787
:1040E000217033274217530709F091C0FC01EE5F9E
:1040F000FC4F9081292F30E0062E02C03595279580
:104100000A94E2F7217033274217530709F496C047
:104110002401350104C0440C551C661C771C6A95AB
:10412000D2F7B301A201002319F0492B408304C048
:104130004095842F89238083812F0E940813D70103
:104140008C9182FF04C091E0011190E0092F81FD64
:1041500011C09091CD02CC0FDD1FFE01E253FD4F47
:104160006081718181E0011118C0911180E00E948D
:10417000421917C0FE01EB5EFC4F002309F445C055
:104180008081811140C0CC0FDD1FFE01E253FD4F45
:104190006081718181E09091CD02911180E00E9457
:1041A0000F1980910103882309F448C082EB91E044
:1041B0000E94DE166AE070E0802F0E94C11882EC37
:1041C00091E00E94DE16C253DD4F888199810E94E2
:1041D00009198BEC91E00E94DE166AE070E0809194
:1041E000CD020E94C1188091CD02882319F081E58B
:1041F00091E002C088E591E00E94DE168EEC91E02D
:104200000E9402161BC0108219C088E20CC0D501A2
:10421000C40104C0880F991FAA1FBB1F6A95D2F75B
:10422000002319F0872B808309C080957823708341
:1042300005C02F96CF70DD27C093260380917F05A0
:1042400090918005039759F4369909C00E94D10BCB
:10425000613177428105910510F00E94F1180E94AA
:10426000300AF8CDCC2309F464CA8BEB94E00E94A9
:104270003A0E81E08093ED046091290564606093BB
:1042800029056093CF0485E190E00E94FB0C6091CA
:1042900029056093CF0485E190E00E94FB0C60E06B
:1042A00081E00E94070B60E080E00E94070BFFCFD7
:1042B0000E94901AC11108C080FF21CE81E60E94A1
:1042C0000E1A40E061E007C081FF19CE81E70E942D
:1042D0000E1A40E062E08CE20E94FD164091DB0481
:1042E000E9EBF4E09F01295B344031968091DB04D7
:1042F00090E0281739070CF0E3CD82A1DF01A15C23
:10430000BE4F8C93EFCF51E05093F405F1CD81E097
:1043100090E090937A05809379058091770590914C
:104320007805CC9724F01092780510927705E3EF8A
:10433000F5E080917705909178052191DC01A75CEB
:10434000BA4F12962C930196909378058093770537
:1043500080917D0590917E05019690937E058093D6
:104360007D05A2E0B6E0AE17BF0719F7CD97ACF018
:1043700080917B0590917C050F968C3391052CF4F0
:1043800090937C0580937B0504C010927C0510926D
:104390007B0530927E0520927D0510927A05109261
:1043A0007905ADCD209711F4739A05C0C130D105C0
:1043B00009F0D0C0729A5524539405C0209709F093
:1043C000D1C07398512C80910403882311F1FE0110
:1043D00043E0F595E7954A95E1F7CE018770992777
:1043E000EE5FFC4FA501940104C0220F331F441F50
:1043F000551F8A95D2F7DA01C901552019F020819D
:10440000822B03C080959081892380838C2F0E940A
:10441000081380910103882381F080E092E00E94DC
:10442000DE166AE070E0CE010E948B168FE891E004
:104430000E94DE16852D0E94CF18809100038823EC
:1044400009F40BCE8091FF02882309F406CE8091F7
:10445000EF02282F30E0F901EB5FFC4F408141FF74
:1044600055C040FD53C0F901EB5EFC4F9091EE0248
:104470009083E82FE695E695E695982F977042FD94
:1044800057C0F0E0EE5FFC4FB501A40104C0440F3B
:10449000551F661F771F9A95D2F79081492B40834D
:1044A000552453940E940813E091EF02E11106C0D5
:1044B000552011F0739A11C073980FC0E13031F498
:1044C000552011F0729A09C0729807C0F0E0EA5FB7
:1044D000FE4F652D80810E94070B80910103882388
:1044E00089F087E991E00E94DE166AE070E0809131
:1044F000EF020E94C11889EA91E00E94DE16852D24
:104500000E94CF188091EF020E94AA0F8091FF02B3
:1045100081508093FF02EFEEF2E090E09F012F5E6A
:104520003240281739070CF098CD21812193F6CF1E
:10453000F0E0EE5FFC4FB501A40104C0440F551F2D
:10454000661F771F9A95D2F7409590814923408343
:10455000512CA8CF55245394652DD3018C910E94E2
:10456000070B31CFC130D10511F472982BCF512CEC
:10457000F3CF89EB94E00C942E0F6F927F928F9281
:104580009F92AF92BF92CF92DF92EF92FF920F93E2
:104590001F93CF93DF93CDB7DEB7C654D1090FB6C3
:1045A000F894DEBF0FBECDBF10926D0310926C0366
:1045B00088EE93E0A0E0B0E080936E0390936F03E9
:1045C000A0937003B09371038AE191E090936B0321
:1045D00080936A0385EC90E0909377038093760351
:1045E00084EC90E0909379038093780380EC90E0E2
:1045F00090937B0380937A0381EC90E090937D030A
:1046000080937C0382EC90E090937F0380937E0301
:1046100086EC90E090938103809380031092830353
:104620001092840310928503109286038AE491E02D
:104630009093BA048093B90482E491E09093BC040F
:104640008093BB0486EF94E00E94E40C8AE391E03F
:1046500090931B0580931A05EFE1F5E087E295E062
:1046600020E321938E179F07E1F782E391E0909377
:104670003A058093390510922F051092050627E11F
:10468000FE013196A6EDB4E001900D922A95E1F776
:104690009A83898321961FAE1EAE219723961FAE63
:1046A0001EAE239725961FAE1EAE259727961FAEEA
:1046B0001EAE2797DE011396EBE3F5E08D91819313
:1046C00045E0E737F407D1F71092780510927705A7
:1046D00010927A051092790510927C0510927B0554
:1046E00010927E0510927D0582E491E09A83898381
:1046F00085E18A8781E18B8781E08C878D878EE2D7
:10470000888B80E390E09F878E8781E090E00E9415
:1047100088259C838B83CE0101960E94230ECE01B7
:1047200001960E94EE0EDA842FE8E22E24E0F22EAB
:1047300000E010E01B8E0D1510F08FEF04C0C801D3
:1047400049960E94FD0C90E0F701819391937F01BF
:104750000F5F1F4F0531110569F7EB847884CC8416
:10476000D12CF4E0CF0ED11C87E0882E84E0982E67
:104770009BE4A92E94E0B92E0E851F85F12C6624AA
:104780006394198A1A8A1B8A1C8A1B8EEF1410F0F4
:104790007F1410F46B8E13C0C8010E94FD0C898B2E
:1047A000C80101960E94FD0C8A8BC80102960E94E6
:1047B000FD0C8B8BC80103960E94FD0C8C8B3989F4
:1047C000832F90E0F401819391934F012A89822FE6
:1047D00090E091A380A39B89492F50E0F50141937C
:1047E00051935F018C89482F50E051A340A3F3946B
:1047F0000C0D1D1DF1E1FF12C4CF4B815C81509364
:10480000BE044093BD044D814093BF044E8140934C
:10481000C0044F814093C10448854093C204498538
:104820004093C3044A854093C404E092C5044C8578
:104830004093C6044D854093C7044E855F855093D1
:10484000C9044093C80448894093CA043093CB04F8
:104850002093CC049093CD048093CE048D898093D3
:10486000CF048E899F899093D1048093D004888D42
:104870008093D204898D8093D3048A8D8093D4044D
:104880008B8D8093D504CE0101960E94180F8AE388
:1048900091E09A838983DE011696CE010E96FD0182
:1048A00020E32193E817F907E1F78B8180931C053A
:1048B0008C819D8190931E0580931D05EFE1F5E0AD
:1048C0008D91819345E0E732F407D1F78E8580938F
:1048D00027058F85809328058889809329058989F4
:1048E00080932A058A8980932B0581E180932C058A
:1048F00085E180932E0581E080932D05CE01019600
:104900000E94E40C8B818093F8048C818093F904DD
:104910008D818093FA048E818093FB048F8198852A
:104920009093FD048093FC0489859A859093FF04FD
:104930008093FE048B859C859093010580930005F0
:104940008D859E8590930305809302058F859889B8
:10495000909305058093040589899A8990930705AA
:10496000809306058B8980930805DE015496E9E063
:10497000F5E08D91819385E0E131F807D1F78C8DD9
:10498000809311058D8D809312058E8D8093130574
:104990008F8D8093140588A18093150589A19AA114
:1049A00090931705809316058BA1809318058CA111
:1049B0008093190580912F05816080932F051092B7
:1049C00030050FEF00930B0600930C0611E01093D7
:1049D0000D0610920E060E94D10B60930F06709385
:1049E00010068093110690931206109207061092FB
:1049F00006061092160610921506109231051093B5
:104A0000320500931306109314068CE291E0A0E0A7
:104A1000B0E08093330590933405A0933505B093AF
:104A200036058BEB94E00E94EE0E8091C0049091CD
:104A3000C1049827892798279093D1048093D004A4
:104A400090931E0580931D058091BF0480931C05E3
:104A50008091CF04809329051093ED0483E090E0CA
:104A60009093800580937F05CA5BDF4F0FB6F89463
:104A7000DEBF0FBECDBFDF91CF911F910F91FF9091
:104A8000EF90DF90CF90BF90AF909F908F907F90EE
:104A90006F900895F999FECF92BD81BDF89A99273C
:104AA00080B50895262FF999FECF1FBA92BD81BD1A
:104AB00020BD0FB6F894FA9AF99A0FBE01960895A0
:104AC000A1E21A2EAA1BBB1BFD010DC0AA1FBB1F12
:104AD000EE1FFF1FA217B307E407F50720F0A21B84
:104AE000B30BE40BF50B661F771F881F991F1A94F1
:104AF00069F760957095809590959B01AC01BD011B
:104B0000CF010895EE0FFF1F0590F491E02D099459
:104B10000F931F93CF93DF938230910510F482E0BF
:104B200090E0E0911D06F0911E0620E030E0A0E04C
:104B3000B0E0309719F1408151810281138148170B
:104B40005907C8F08417950769F4109731F0129649
:104B50000C93129713961C9327C000931D06109375
:104B60001E0622C02115310519F04217530718F40B
:104B70009A01BD01EF01DF01F801DBCF21153105FD
:104B8000F9F0281B390B2430310580F48A819B8190
:104B90006115710521F0FB019383828304C090931A
:104BA0001E0680931D06FE01329644C0FE01E20FF0
:104BB000F31F8193919322503109398328833AC09E
:104BC00020911B0630911C06232B41F420910201F9
:104BD0003091030130931C0620931B0620910001A5
:104BE000309101012115310541F42DB73EB74091B7
:104BF000040150910501241B350BE0911B06F09137
:104C00001C06E217F307A0F42E1B3F0B28173907E9
:104C100078F0AC014E5F5F4F2417350748F04E0F18
:104C20005F1F50931C0640931B068193919302C013
:104C3000E0E0F0E0CF01DF91CF911F910F91089557
:104C4000CF93DF93009709F481C0FC013297138260
:104C50001282A0911D06B0911E06109781F420814A
:104C60003181820F931F20911B0630911C0628175B
:104C7000390751F5F0931C06E0931B0667C0ED0160
:104C800020E030E0CE17DF0740F44A815B819E01CF
:104C900041155105F1F0EA01F5CFD383C28340817C
:104CA0005181840F951FC817D90759F488819981BC
:104CB000840F951F0296918380838A819B819383C1
:104CC00082832115310529F4F0931E06E0931D0619
:104CD0003DC0E901FB83EA8349915991C40FD51F77
:104CE000EC17FD0761F480819181840F951F029676
:104CF000E90199838883828193819B838A83E0E0A1
:104D0000F0E012968D919C911397009719F0FD0198
:104D1000DC01F7CF8D919C9111979D012E5F3F4F44
:104D2000820F931F20911B0630911C06281739070C
:104D300069F4309729F410921E0610921D0602C0E5
:104D400013821282B0931C06A0931B06DF91CF91B1
:104D5000089581E090E0F8940C94AE2611E0C2E34F
:104D6000D1E004C0FE010E9482252196C333D10701
:064D7000C9F7F894FFCF23
:104D760000001F0680001A19100F12130E021103ED
:104D860004050607080900000000C7094409900940
:104D96006E0982090E0A00000000E30C9E0C00005A
:104DA6000000400FA20C00000000FA0CA00C00004E
:104DB6000000180F240F000000002E0F360F3040A1
:104DC600502073686F727400206C6F6E67004152DA
:104DD60044555F43414E002A004172647543414E7B
:104DE6002056657273696F6E20000D0A00210073EC
:104DF6006176656F7574707574206E65696E0020D6
:104E0600205374617465007665727A6F65676572A2
:104E160074657220506F727400202053746174653B
:104E2600200050696E2072656164696E673A2000E1
:104E3600300020204576656E742000202000206713
:104E46006573656E64657400426974204E616368BB
:104E5600626172706F727420005665727A6F656750
:104E66006572746520417573676162652000202054
:104E7600506F7274200020206F6E5F6F6666200090
:104E8600202073746174652000736574416C6C4FE7
:104E960075747075747300736574416C6C4F7574BA
:104EA60070757473456E646500557365725F4675FB
:104EB6006E6374696F6E3A20004576656E744D6157
:104EC60074636820004576656E745661723A2000F8
:104ED600496E7320454550524F4D20676573706586
:104EE600696368657274004F50433A00204E6F64E0
:104EF600653A002043616E49443A00204D6573735C
:104F060061676553697A653A002053746174653A3E
:104F16000056617256616C75650050756C735F73EF
:104F260070656963686572200053686F775F616BAF
:0A4F3600745F73746174652000005D
:00000001FF
