:100000000C94F2000C941A010C941A010C941A012D
:100010000C941A010C941A010C941A010C941A01F4
:100020000C941A010C941A010C941A010C941A01E4
:100030000C941A010C941A010C941A010C941A01D4
:100040000C948E0B0C941A010C945D0A0C94370AD4
:100050000C941A010C941A010C941A010C941A01B4
:100060000C941A010C941A011A031D032003230394
:10007000260329032C032F034641494C4544207491
:100080006F2073656E642043414E00000000002421
:100090000027002A00010204081020408001020409
:1000A00008102001020408102004040404040404BD
:1000B00004020202020202030303030303200056A8
:1000C00041525320002000200020000A4556454E92
:1000D00054533A0020000A444556494345204E55A2
:1000E0004D424552533A0020000A494E5445524E63
:1000F000414C20564152533A0020000A4E4F44458D
:1001000020564152533A0020000A4E4F4445205693
:100110004152533A000A4E554D20564152533A002F
:100120000A4E554D204556454E5453205641525384
:100130003A000A4E554D204556454E54533A000A52
:10014000466C6167733A000A4E4E3A000A43414ECC
:100150005F49443A004944454E543A004D454D4F9D
:1001600052592044554D50005374617274005072BE
:100170006F7A6573736F726665686C6572200000D4
:10018000000000250028002B0000000000230026AE
:10019000002900000000080002010000030407001D
:1001A00000000000000000777269746520766172BB
:1001B00020746F20656570726F6D0053686F727484
:1001C0003A204576656E74002020204576656E7471
:1001D00020004C6F6E673A204E6F64654E6F2000B2
:1001E000CD21C92111241FBECFEFD8E0DEBFCDBF86
:1001F00012E0A0E0B1E0E6E9FBE402C005900D9258
:10020000AC3CB107D9F726E0ACECB2E001C01D92DE
:10021000A132B207E1F710E0C1EFD0E004C02197AE
:10022000FE010E949224C03FD107C9F70E94201A04
:100230000C94BE250C940000DF92EF92FF920F9376
:100240001F93CF93DF93C091FB0488EF94E00E944B
:10025000550C7C0100911F05109120058017910716
:1002600089F080918105909182050297039750F45F
:10027000CD3009F46FC0C03109F484C0C13109F038
:100280001AC39EC0CD3509F473C180F5C33509F496
:10029000FEC078F4C03109F475C020F4CD3009F007
:1002A0000AC358C0C13109F48BC0C23409F4B0C0CC
:1002B00002C3C63509F409C138F4C43509F4ECC0E9
:1002C000C53509F4F3C0F7C2C73509F41DC1C835F7
:1002D00009F0F1C28091C40494E79093F004109364
:1002E000F1040093F2048093F304DBC2C53909F4EE
:1002F000C6C1F0F4C23709F457C120F4C13709F47C
:100300003FC1D9C2C33709F47BC1C53709F0D3C295
:1003100060910E0560931E056093C10482E190E038
:100320000E94AC0C80911F059091200522E5B1C27E
:10033000C23B09F416C238F4C63909F4CAC1CC3933
:1003400009F4E6C1B8C2C23D09F43DC2C53F09F493
:1003500032C2B1C20115110509F4ADC280912B055D
:1003600090912A052091290536EB3093F0041093E3
:10037000F1040093F2042093F3049093F404809327
:10038000F504B5C08091810590918205059709F02B
:1003900092C2E0EFF4E0119284E0E83FF807D9F769
:1003A00080912D059091300520912F0530912E05DB
:1003B00040912A0550912C05609129057FEE15C0CA
:1003C0008091810590918205059701F5809127051F
:1003D0009091260520912505309124054091230513
:1003E000509122056091210572EE7093F0046093A4
:1003F000F1045093F2044093F3043093F4042093F7
:10040000F5049093F6048093F70475C083E07DC1F2
:1004100080918105909182050597C1F7F0922005A2
:10042000E0921F05C7010E94611980911F059091FC
:10043000200522E52093F0049093F1048093F204C8
:100440001092F3041092F4041092F5041092F60442
:100450001092F70483E090E09093820580938105E9
:1004600081E08093EF0460912B05646060932B051D
:100470006093D10485E190E00E94AC0C60912B0563
:100480006093D10485E190E00E94AC0C34C01092DE
:100490008205109281050FC283E090E0909382055F
:1004A0008093810581E08093340505C280918105A8
:1004B00090918205892B09F0FEC160E087E190E010
:1004C0000E94AC0C1092C404F6C180912E0590914C
:1004D000C404891B90E79093F0041093F1040093F7
:1004E000F2048093F3041092F4041092F504109235
:1004F000F6041092F704DF91CF911F910F91FF90B6
:10050000EF90DF900C94BE17D091C404DD2309F462
:10051000D2C1F12EC0E082EFE82EDC1709F4CBC186
:100520008C2F0E947515FC018091D704882311F04F
:100530008AE0EBC08381928121813081E092F004D6
:10054000F092F1040093F2043093F3042093F40446
:100550009093F5048093F604C093F7040E94BE17AD
:10056000882321F088E790E00E941818CF5FD5CF4C
:10057000E016F10609F09FC181E00E941D199BC1A0
:10058000C0910E058FEF8C0F0E9444189091D704F4
:100590009111CECF97E99093F0041093F10400935A
:1005A000F204C093F30468C0E0EFF4E088EF94E055
:1005B00011928E179F07E1F70E94DA18C82F8FEF6C
:1005C0008C0F0E947515FC019091D704992311F0AE
:1005D00086E09BC0838192812181308142EF4093EC
:1005E000F0041093F1040093F2043093F304209389
:1005F000F4049093F5048093F604C093F70459C172
:1006000020910E0521110BC08BE98093F00410930B
:10061000F1040093F2041092F30488E02DC0822FBD
:1006200090E0FC013197E830F105E0F4EC5CFF4F1D
:100630000C9492248091290516C080912C0513C03A
:1006400080912A0510C080912E050DC080912F0544
:100650000AC08091300507C080912D0504C08091AB
:100660002B0501C080E09BE99093F0041093F10406
:100670000093F2042093F3048093F40414C188EFF0
:1006800094E00E94340CAC01B7018DEB94E00E9421
:10069000680DC82F0E9434181092870510928805A3
:1006A0001092890510928A054C2F67E875E08DEB52
:1006B00094E00E94710DC8138BCF6C2F70E020E086
:1006C00040E08DEB94E00E94B00C882309F4F3C065
:1006D0002FCFC0910E05C150D0910F05C33149F401
:1006E000D0931E05D093C1046D2F82E190E00E944B
:1006F000AC0C809130058C1738F04D2F6C2F8DEBA2
:1007000094E00E94DA0CC0C089E00E94EB17D3C0CD
:100710000E94DA18D82F0E940619C82F80912F0541
:100720008C1708F405CF4FEF4C0F6FEF6D0F8DEB6B
:1007300094E00E94020D9091D7049111F9CE90910E
:100740001F052091200535EB3093F0042093F10430
:100750009093F204D093F304C093F4048093F504CF
:10076000A4C08091810590918205892B51F50E944A
:100770000619182F0E947515EC0140E0612F8DEBD2
:1007800094E00E94020D9091D704911121CF9B819A
:100790002A813981488153ED5093F0044093F1044C
:1007A0003093F2042093F3049093F4041093F5042F
:1007B0008093F6047CC08091810590918205892BFD
:1007C00051F182E0A2CF88EF94E00E94340C182F00
:1007D000092F0E940619C82F0E94F118D82FF092F5
:1007E0008705E09288050093890510938A054C2FB0
:1007F00067E875E08DEB94E00E94710DC813E8CEB8
:100800006C2F70E02D2F40E08DEB94E00E94B00C37
:1008100081118ECE39C088EF94E00E94340C082FED
:10082000D92E0E940619C82F0E94F118D82F0E94B5
:10083000DA18182FF0928705E0928805D092890582
:1008400000938A054FEF480F67E875E08DEB94E061
:100850000E94710D682F70E0212F30E02150310986
:100860006217730709F0B4CE4FEF4C0F2D2F8DEBAD
:1008700094E00E94B00C90E02C2F30E02150310920
:100880008217930709F054CE80911F05909120059F
:1008900029E52093F0049093F1048093F2041092E0
:1008A000F3041092F4041092F5041092F6041092DE
:1008B000F7040E94BE1780E0DF91CF911F910F9146
:1008C000FF90EF90DF900895AF92BF92CF92DF92AA
:1008D000EF92FF920F931F93CF93DF9380910E06B9
:1008E0008F3F29F480910D068F3F09F44FC00E947D
:1008F000820B00911106109112062091130630917F
:100900001406DC01CB01801B910BA20BB30B8436C8
:100910009105A105B105D0F18091810590918205E5
:100920000597A9F480911006813041F460E0809130
:100930000E060E94B80A109210061EC061E0809157
:100940000E060E94B80A81E08093100615C08091BF
:10095000EF04813039F460E080910D060E94B80AFE
:1009600061E006C061E080910D060E94B80A60E077
:1009700080910E060E94B80A0E94820B60931106B5
:1009800070931206809313069093140680911506B7
:100990008F3F09F490C00E948F0A20911606892B80
:1009A00081F4213009F087C00E94820B6093830597
:1009B00070938405809385059093860510921606A2
:1009C0007AC0211178C081E0809316060E94820BC4
:1009D000009183051091840520918505309186054D
:1009E000DC01CB01801B910BA20BB30B8C019D0191
:1009F000095E1340210931090738134121053105EA
:100A0000C0F42091EF0480918105909182052130FE
:100A100061F4059739F483E090E090938205809328
:100A2000810549C00E94561846C0059709F043C089
:100A3000F2CF81379741A105B105E8F18091EF042C
:100A4000811117C08091810590918205059719F356
:100A500060E080910D060E94B80A80E00E941D1996
:100A600080918105909182050497E1F60E946404CB
:100A7000F7CF1092EF0460912B056B7F60932B05ED
:100A80006093D10485E190E00E94AC0C80912B052D
:100A900081FF09C08091350590913605909320051E
:100AA00080931F0506C01092200510921F0580E05C
:100AB00090E00E94611980918105909182050497D0
:100AC00009F07CC00E94820B00918305109184057F
:100AD0002091850530918605DC01CB01801B910BAF
:100AE000A20BB30B893E9340A105B10508F466C083
:100AF00083E090E090938205809381054091070602
:100B0000A8E8B5E081E0841740F02091070630E0C6
:100B1000E7E8F5E080E090E017C02D919FEF980F97
:100B2000E92FF0E0EF01C957DA4F3881E857FA4F63
:100B3000231718F430839150F3CF20838F5FE3CFD6
:100B40004191C41730F00196C1E0C80F8217930796
:100B5000BCF3C43640F080913205882379F187E0F8
:100B60000E94EB172BC0C093C1046C2F82E190E070
:100B70000E94AC0CC0931E05809132058823F1F0D1
:100B800080911F059091200522E52093F004909319
:100B9000F1048093F2041092F3041092F404109282
:100BA000F5041092F6041092F7046C2F70E080E0C8
:100BB00090E020EF34E043E00E94CD16C1E0D0E0A9
:100BC00083E1E82E85E0F82EDD24D39499E5C92E43
:100BD0001092330580917B0590917C05892B09F05B
:100BE000D9C2D0937C05C0937B0580917F059091FD
:100BF0008005181619062CF010927C0510927B05C2
:100C0000C9C280917D0590917E05CC9724F0109209
:100C10007E0510927D05E1EEF5E0A0917D05B09195
:100C20007E05A55CBA4F12968C91819380917D05CB
:100C300090917E05019690937E0580937D0580912D
:100C40007F059091800501979093800580937F05A3
:100C500045E0E03FF40709F710927C0510927B0510
:100C6000EBE0F5E01192EE16FF06E1F710921705A2
:100C7000109219051092180510921A058091E1053D
:100C80008093FD048091E305809313058091E40532
:100C9000809314058091E505809315058091E60504
:100CA00080931605E7EEF5E08191DF01AD5DB109B6
:100CB0008C9385E0EF3EF807B9F780910B058093A0
:100CC000FB04843008F4B4C0873009F4B1C0282F85
:100CD0002F7B2F3309F4ACC092EA980F923008F4BE
:100CE000A7C0982F9F7D9F3909F4A2C0863B09F4C5
:100CF0009FC08F3D09F49CC03CEF380F333008F49F
:100D00009AC038EF380F333008F495C03FED380FF4
:100D1000333008F490C0803409F48DC03CEB380FB8
:100D2000373008F488C08C3409F485C0382F3F77F9
:100D300040EA430F423008F47EC0333609F47BC0EA
:100D4000903809F478C03EE7380F343008F473C0A7
:100D5000823A09F470C030E4380F323008F46BC0C6
:100D600036EA380F323008F469C030E7380F3530D2
:100D700008F464C038E6380F333008F45FC09D597A
:100D8000923008F45BC0982F977F905B923008F404
:100D900055C09DE4920F923008F450C091E3980F33
:100DA000933008F44BC09CE2980F923008F446C090
:100DB00098E2980F923008F441C093E2980F923075
:100DC000E8F190E1980F9230C8F19AE0980F9630D0
:100DD000A8F193E0980F933088F194EF980F923038
:100DE00080F190EF980F923060F1823451F190EBE6
:100DF000980F9A3030F194EA980F923010F191E9FF
:100E0000980F9730F0F09BE6980F9330D0F095E66E
:100E1000980F9230B0F0223BA1F0253B91F09EE27A
:100E2000980F923070F0823E61F08F3E69F409C0F5
:100E300084E090E00BC081E090E008C083E090E0A7
:100E400005C082E090E002C080E090E09093FF0453
:100E50008093FE048091E2058111D0921A0580E012
:100E60000E94441881FBBB24B0F888EF94E00E94F4
:100E7000DF0BA82E882319F0BB2009F45FC188EF8F
:100E800094E00E94F40B8823C1F088EF94E00E9464
:100E9000090C8C010097B9F0AC0160E070E08DEBBB
:100EA00094E00E94680D2091C70430E0482F50E084
:100EB000241735070CF461C136C0AA20F1F021E0F7
:100EC000B2121BC005C0AA2081F181E0B8122DC06A
:100ED00088EF94E00E94340C009779F0AC0160E058
:100EE00070E08DEB94E00E94680D2091C70430E023
:100EF000482F50E024173507B4F488EF94E00E949F
:100F0000090C8C01892B89F0A80160E070E08DEB61
:100F100094E00E94680D2091C70430E0482F50E013
:100F20002417350714F08F5F01C080E080933305EC
:100F300080911A05882389F080911F0590912005E2
:100F4000892B59F060911E0570E080E090E020EF61
:100F500034E040E00E94CD163BCE2091FB042D35BD
:100F600081F488EF94E00E94550C20911F05309188
:100F700020058217930709F02BCE81E00E941D19EE
:100F800027CE40918105509182054430510501F5ED
:100F90008091FD0481111CCE20910706233608F0B4
:100FA00017CE8091130530E1839FC00111249091E9
:100FB0001405929596959770892B8093FA04E22FE9
:100FC000F0E0E957FA4F80832F5F2093070600CEA9
:100FD0008091FE049091FF04452B09F073C030917D
:100FE000EF0431116FC0029729F4223D19F0253F1B
:100FF00009F0BDC088EF94E00E94340C082FA92EA0
:1010000088EF94E00E94550C9093870580938805A3
:10101000A092890500938A05B090C4041091C7047A
:10102000B11610F01F5F11C02A2D482F692F8DEBCC
:1010300094E00E94200D181738F44B2D67E875E0F6
:101040008DEB94E00E94710D182F80912E05811771
:1010500010F484E01DC08091FB04823D11F0853FB7
:10106000D1F40E940619082F0E94F1184FEF400F8B
:10107000612F70E0282F8DEB94E00E94B00C90E07F
:10108000202F30E0215031098217930721F086E0AC
:101090000E94EB179DCD80911F0590912005C09275
:1010A000F0049093F1048093F2041092F3041092F0
:1010B000F4041092F5041092F6041092F7040E94C2
:1010C000BE1786CD8230910539F138F4019749F584
:1010D000E0910A06F0910B0617C0E0910806F09126
:1010E00009068330910519F0049731F01AC08091F8
:1010F0002B0580FD16C008C080912B0580FD11C016
:101100002730C1F50C940000309759F06BEB74E078
:1011100088EF94E0099505C00E941C01882309F41A
:1011200057CDE0910806F0910906309709F450CDAB
:101130006BEB74E088EF94E009954ACD88EF94E07A
:101140000E94340C8C0188EF94E00E94550CA80199
:10115000BC018DEB94E00E94680D2091C70430E043
:10116000482F50E0241735070CF489CEDCCE0E94BE
:101170001C012ECD2E3531F2C7CFAA2009F4C4CEE2
:1011800041E0B41609F4A4CE88EF94E00E94090C63
:101190008C01BACE80E0DF91CF911F910F91FF902B
:1011A000EF90DF90CF90BF90AF900895FF920F9394
:1011B0001F93CF93DF93182FF62EC72FD42F60E005
:1011C0008091E8040E94B80A83E00E94D80B812F26
:1011D0000E94D80B0F2D1C2FC0E0CD1751F0C83046
:1011E00041F080E00E94D80BF80181938F01CF5F1E
:1011F000F4CF61E08091E804DF91CF911F910F91CE
:10120000FF900C94B80ACF92DF92EF92FF920F9367
:101210001F93CF93DF936C017A018B01C0E0D0E084
:10122000CE15DF0581F0D8016D918D01D601ED91CC
:10123000FC910190F081E02DC6010995892B11F0F8
:101240002196EECF7E01C701DF91CF911F910F91C3
:10125000FF90EF90DF90CF900895089580E090E0A8
:101260000895FC01538D448D252F30E0842F90E0AC
:10127000821B930B541710F0CF9608950197089591
:10128000FC01918D828D981761F0828DDF01A80F8E
:10129000B11D5D968C91928D9F5F9F73928F90E0B0
:1012A00008958FEF9FEF0895FC01918D828D98171F
:1012B00031F0828DE80FF11D858D90E008958FEF5C
:1012C0009FEF0895FC01918D228D892F90E0805C25
:1012D0009F4F821B91098F73992708958CE693E0A5
:1012E0000E94620921E0892B09F420E0822F0895F1
:1012F000FC01848DDF01A80FB11DA35ABF4F2C91B3
:10130000848D90E001968F739927848FA689B78981
:101310002C93A089B1898C9180648C93938D848D5A
:10132000981306C00288F389E02D80818F7D808329
:101330000895EF92FF920F931F93CF93DF93EC01E9
:1013400081E0888F9B8D8C8D981305C0E889F98981
:10135000808185FD24C0F62E0B8D10E00F5F1F4F9E
:101360000F731127E02E8C8DE8120CC00FB607FC0E
:10137000FACFE889F989808185FFF5CFCE010E94F7
:101380007809F1CF8B8DFE01E80FF11DE35AFF4F75
:10139000F0820B8FEA89FB898081806207C0EE8929
:1013A000FF896083E889F98980818064808381E096
:1013B00090E0DF91CF911F910F91FF90EF900895F2
:1013C000CF93DF93EC01888D8823C9F0EA89FB89EC
:1013D000808185FD05C0A889B9898C9186FD0FC0E3
:1013E0000FB607FCF5CF808185FFF2CFA889B989B8
:1013F0008C9185FFEDCFCE010E947809E7CFDF9178
:10140000CF91089580E090E0892B29F00E946E0929
:1014100081110C9400000895833081F028F481300C
:1014200099F08230A1F008958730A9F08830B9F0A2
:101430008430D1F4809180008F7D03C08091800042
:101440008F7780938000089584B58F7702C084B52C
:101450008F7D84BD08958091B0008F7703C0809107
:10146000B0008F7D8093B00008950E94B9251F922F
:101470000F920FB60F9211242F933F934F935F93C8
:101480006F937F938F939F93AF93BF93EF93FF934C
:101490008CE693E00E947809FF91EF91BF91AF91A4
:1014A0009F918F917F916F915F914F913F912F917C
:1014B0000F900FBE0F901F9018951F920F920FB6AE
:1014C0000F9211242F938F939F93EF93FF93E091AB
:1014D0007C03F0917D038081E0918203F09183038E
:1014E00082FD12C09081809185038F5F8F73209160
:1014F0008603821751F0E0918503F0E0E459FC4F38
:10150000958F8093850301C08081FF91EF919F911A
:101510008F912F910F900FBE0F901F901895CF9322
:10152000DF93282F30E0F901ED56FE4F8491F90149
:10153000EB56FF4FD491F901E755FF4FC491CC23EF
:1015400091F081110E940C0AEC2FF0E0EE0FFF1FCA
:10155000E757FE4FA591B491EC91ED2381E090E027
:1015600021F480E002C080E090E0DF91CF91089507
:101570001F93CF93DF93282F30E0F901ED56FE4FF4
:101580008491F901EB56FF4FD491F901E755FF4FD4
:10159000C491CC23C1F0162F81110E940C0AEC2FAC
:1015A000F0E0EE0FFF1FE158FE4FA591B4919FB7F9
:1015B000F894111104C08C91D095D82302C0EC91FD
:1015C000DE2BDC939FBFDF91CF911F910895CF93C6
:1015D000DF9390E0FC01EB56FF4F2491FC01E755AF
:1015E000FF4F8491882361F190E0880F991FFC01DF
:1015F000E557FF4FC591D491FC01E158FE4FA591ED
:10160000B491611109C09FB7F89488812095822315
:101610008883EC912E230BC0623061F49FB7F8945D
:101620008881322F309583238883EC912E2B2C9345
:101630009FBF06C08FB7F894E8812E2B28838FBFF9
:10164000DF91CF9108953FB7F89480913E03909138
:101650003F03A0914003B091410326B5A89B05C06C
:101660002F3F19F00196A11DB11D3FBFBA2FA92F21
:10167000982F8827820F911DA11DB11DBC01CD019E
:1016800042E0660F771F881F991F4A95D1F708958A
:101690008F929F92AF92BF92CF92DF92EF92FF9282
:1016A0006B017C010E94230B4B015C01C114D1042E
:1016B000E104F104F1F00E94230BDC01CB01881955
:1016C0009909AA09BB09883E9340A105B10570F3A9
:1016D00021E0C21AD108E108F10888EE880E83E003
:1016E000981EA11CB11CC114D104E104F10419F726
:1016F000DDCFFF90EF90DF90CF90BF90AF909F90A5
:101700008F9008952FB7F89460913A0370913B033E
:1017100080913C0390913D032FBF08951F920F923B
:101720000FB60F9211242F933F938F939F93AF93F4
:10173000BF9380913A0390913B03A0913C03B091F9
:101740003D033091390323E0230F2D3720F4019618
:10175000A11DB11D05C026E8230F0296A11DB11DD4
:101760002093390380933A0390933B03A0933C0367
:10177000B0933D0380913E0390913F03A0914003BD
:10178000B09141030196A11DB11D80933E0390933A
:101790003F03A0934003B0934103BF91AF919F914A
:1017A0008F913F912F910F900FBE0F901F90189522
:1017B0008EBD00000DB407FEFDCF8EB50895FC016F
:1017C0009381892F8F7D8059823058F080E3890F73
:1017D000823038F081E0903F31F0913F21F080E09D
:1017E000089581E008950895FC019381892F8F7DEC
:1017F0008859823058F088E2890F823038F081E0D1
:10180000983F31F0993F21F080E0089581E00895FC
:101810000895FC0193819B35C1F088E6890F8330E0
:10182000A0F0892F8F798D59823078F088E4890F64
:10183000823058F088E2890F823038F088E0890FD2
:10184000843018F080E090E0089586E0890F8230BF
:1018500010F09B3519F48489958902C0868997898F
:101860009827892798270895FC019381292F2F7B9A
:101870002059263070F080E5890F853050F080E1E6
:10188000890F823030F0935F933018F080E090E061
:1018900008958689978998278927982708950C9411
:1018A00030250C9430250C943025FC01938992341A
:1018B000A9F180EB890F8B3088F184EA890F82309F
:1018C00068F181E9890F873048F180E7890F8F300F
:1018D00028F180E5890F873008F188E4890F82308C
:1018E000E8F0292F2F7B2D5B2230C0F080E3890F99
:1018F0008630A0F088E2890F823080F083E2890F81
:10190000823060F0933E51F080E1890F823030F0F8
:10191000935F973018F080E090E00895848995896E
:1019200098278927982708950895FC018CE291E073
:1019300091838083DF015396CF014B961D92A817A8
:10194000B907E1F7138E148E158E168E178E11A21D
:1019500010A212A2089508950C9462240C945A24A3
:10196000CF93FC01DB01878190E06817790718F0BD
:1019700081E0840F1DC093854917D0F7622FC42FD3
:10198000492F50E04C5F5F4F4A9F90014B9F300DB5
:101990005A9F300D112485859685820F931F4C2FF9
:1019A00050E04C5F5F4F840F951F0E94AC0C8C2F52
:1019B000CF9108951F93CF93DF93FC018185861704
:1019C000E8F0142FC62FD0E0FE01EE0FFF1FEF56F8
:1019D000FB4F842F90E0918380836996CE010E9413
:1019E000AE0C181759F087EA91E00E941818612F81
:1019F000CE01DF91CF911F910C94AC0CDF91CF9170
:101A00001F910895FC01128E87816817B0F4238519
:101A1000421798F430E02C5F3F4F629FD001639FE4
:101A2000B00D1124858596858A0F9B1F50E04C5F71
:101A30005F4F840F951F0C94AE0C8FEF828F08952B
:101A4000AF92BF92CF92DF92EF92FF920F931F93CC
:101A5000CF93DF93EC018F81A9E0B4E0EDE4F4E0F3
:101A600090E0E62EF12CC42ED12C30E010E0981737
:101A7000F9F0611102C0442369F0AD90BC90119758
:101A8000EA14FB0489F49296AD90BC909397CA1423
:101A9000DB0451F4A080B1802A153B0529F4A2A0F3
:101AA000B3A00A151B0541F09F5F12963296DFCF57
:101AB0009A8581E0890F01C0892FDF91CF911F9115
:101AC0000F91FF90EF90DF90CF90BF90AF9008956F
:101AD0000F93252F042F462F672F0E94200D0F9163
:101AE0000895CF92DF92EF92FF921F93CF93DF93EF
:101AF000FC011285411718F081E0810F4DC0142FB1
:101B0000FB01DC01842F90E0EC01CC0FDD1FC75FEF
:101B1000DB4F208130E039832883EC01CC0FDD1FBF
:101B2000C55DDB4F218130E039832883EC01CC0F88
:101B3000DD1FC35BDB4F228130E039832883EC015A
:101B4000CC0FDD1FC159DB4F238130E0398328835F
:101B50001B962C911B9730E02C5F3F4F289F700104
:101B6000299FF00C389FF00C11241D968D919C91AB
:101B70001E97E80EF91E6B0184E0C80ED11CEB0124
:101B8000E61AF70AC7018C0F9D1F69910E94AC0CE1
:101B9000CC15DD05B9F7812FDF91CF911F91FF9013
:101BA000EF90DF90CF900895FC0180E090E02385D6
:101BB00030E0821793073CF4A281B381A80FB91FCC
:101BC0001C920196F4CF81E68483158285EC86838E
:101BD0001782148A0895EF92FF920F931F93CF9369
:101BE000DF9300D000D0CDB7DEB78C010E94D40DBA
:101BF000F8018285878319821A828AE38B838CEFAE
:101C00008C83E12CF12CF8014285842F90E0019720
:101C1000E816F906CCF44E2DBE016F5F7F4FC80168
:101C20000E94710D8C818F5F8C83811103C08B8129
:101C30008F5F8B8320E040E0B701C8010E94B00CA9
:101C4000FFEFEF1AFF0ADFCF19821A8282E18B833E
:101C500087E68C834150BE016F5F7F4FC8010E94B1
:101C6000710DF801628570E06150710920E040E07B
:101C7000C8010E94B00C46E060E0C8010E94DA0C86
:101C8000FF24F39442E06F2DC8010E94DA0CF39414
:101C9000F9E0FF12F7CF41E06F2DC8010E94DA0C86
:101CA000F39481E1F812F7CF40E061E1C8010E94AE
:101CB000DA0C40E062E1C8010E94DA0C41E663E11F
:101CC000C8010E94DA0C42E064E1C8010E94DA0C0B
:101CD00067E580E090E00E94AC0CF801648182E14D
:101CE00090E00E94AC0CF801658183E190E00E94D5
:101CF000AC0CF801668184E190E00E94AC0CF80124
:101D0000648985E190E00E94AC0CF801678187E16D
:101D100090E00E94AC0CF801638588E190E00E949D
:101D2000AC0CC8010E949F0E0F900F900F900F9067
:101D3000DF91CF911F910F91FF90EF900895CF9376
:101D4000DF93EC010E94D40D80E090E00E94AE0C85
:101D5000873519F0CE010E94EB0D82E190E00E94E0
:101D6000AE0C8C8383E190E00E94AE0C8D8384E105
:101D700090E00E94AE0C8E8385E190E00E94AE0C54
:101D80008C8B87E190E00E94AE0C8F83DF91CF9126
:101D9000089524E431E0FC01318320838281938122
:101DA000009711F00C9430250895CF93DF93EC0148
:101DB0000E94C90ECE01DF91CF910C9430252CE406
:101DC00031E0FC0121933193CF010C94C90ECF93E4
:101DD000DF93EC010E94DF0ECE01DF91CF910C94D6
:101DE000302508958F929F92AF92BF92EF92FF920B
:101DF0000F931F93CF93DF9327E0E22E23E0F22E81
:101E000006E011E0C0E0D0E0812C912C54018394D5
:101E1000F70181917F0180FF3CC0F80180810E9421
:101E200031159E0193E0359527959A95E1F7AE011E
:101E3000477055278823B1F0D501C40104C0880F2D
:101E4000991FAA1FBB1F4A95D2F7F901E353FD4F13
:101E50004081482B4083F901EC5FFC4F80959081D5
:101E6000892316C0D501C40104C0880F991FAA1F79
:101E7000BB1F4A95D2F7F901E353FD4F482F409518
:101E8000508145234083F901EC5FFC4F2081822B78
:101E9000808321960F5F1F4FC031D10509F0B8CF65
:101EA000DF91CF911F910F91FF90EF90BF90AF9076
:101EB0009F908F9008951F93CF93DF9380FF03C06F
:101EC000C82FCE7F02C0C1E0C80FEC2FF0E0E95F61
:101ED000FC4F908191FF5BC090FD59C0EC2FE695BF
:101EE000E695E695F0E0EC5FFC4FD0811C2F177073
:101EF0002D2F30E0012E02C0359527950A94E2F788
:101F00002170332741E050E0892F847092FF02C096
:101F100040E050E024173507D1F5811129C081E058
:101F200090E0A0E0B0E004C0880F991FAA1FBB1F7B
:101F30001A95D2F780958D238083D0E08C2F0E9454
:101F4000A91280910303882311F18AED91E00E9488
:101F500043166AE070E08C2F0E9426188BEA91E00D
:101F60000E9443168D2FDF91CF911F910C9434184E
:101F700041E050E060E070E004C0440F551F661F70
:101F8000771F1A95D2F74D2B4083D1E0D7CFDF9141
:101F9000CF911F910895AF92BF92DF92EF92FF927F
:101FA0000F931F93CF93DF93C82FD62E082F10E0E7
:101FB000C801895F9C4F5C01FC01D081C801895E2A
:101FC0009C4F7C01D1FF4BC08091F002F7018083D0
:101FD000D2FBDD27D0F981E0D82780910203882346
:101FE00009F46BC0A7E0B3E0E7E1F3E080E090E044
:101FF0002D9121FF2EC020FD2CC00817190749F193
:10200000208121502E3F28F580910303882389F0F9
:102010008BEE91E00E9443166AE070E0809101032C
:102020000E94261880E092E00E9443168C2F0E94A6
:10203000341880910103E82FF0E0EF50FD4FC0838A
:102040008F5F803109F48FE080930103F7011082E4
:1020500096C0019631968031910551F62EC08FEFD2
:10206000F7018083862F877FD1E0803911F06D13CF
:10207000D0E0809103038823C9F082E092E00E94BF
:1020800043166AE070E08C2F0E94261888E092E0E8
:102090000E9443166AE070E08D2D0E94261882E1AE
:1020A00092E00E9443168D2F0E943418F501808122
:1020B00082FF03C0D1111CC002C0DD23C9F0EC2F88
:1020C000E695E695E695F0E0EC5FFC4F2C2F277047
:1020D00081E090E0A0E0B0E004C0880F991FAA1F43
:1020E000BB1F2A95D2F72081822B8083D1E019C0B3
:1020F000EC2FE695E695E695F0E0EC5FFC4F2C2F93
:10210000277081E090E0A0E0B0E004C0880F991F44
:10211000AA1FBB1F2A95D2F78095908189238083BF
:10212000D0E08C2F0E94A912F801EA5FFE4F6D2FBC
:1021300080810E94B80A80910303882381F082E0A5
:1021400092E00E9443166AE070E08C2F0E942618ED
:102150008BEA91E00E9443168D2F0E9434188091E3
:102160000203882361F08C2FDF91CF911F910F9193
:10217000FF90EF90DF90BF90AF900C945B0FDF91DA
:10218000CF911F910F91FF90EF90DF90BF90AF9094
:102190000895CF92DF92EF92FF920F931F93CF9308
:1021A000DF9380910303882321F08BE192E00E946A
:1021B000671507E013E0C0E0D0E0C12CD12C760118
:1021C000C394F80181918F018370D9F5FE0183E0FA
:1021D000F595E7958A95E1F7EC5FFC4F80819E01CC
:1021E00027703327482F50E0022E02C0559547959F
:1021F0000A94E2F740FD0DC0B701A601022E04C00B
:10220000440F551F661F771F0A94D2F7482B40834F
:102210000DC0B701A601022E04C0440F551F661F52
:10222000771F0A94D2F7409584238083608170E001
:1022300002C0759567952A95E2F761708C2F0E9410
:10224000CB0F2196C031D10509F0BBCF809103039C
:10225000882361F089E292E0DF91CF911F910F9185
:10226000FF90EF90DF90CF900C946715DF91CF91A6
:102270001F910F91FF90EF90DF90CF900895AF9254
:10228000BF92CF92DF92EF92FF921F93CF93DF9393
:10229000EC017B01FB01E858FF4F108180910303A3
:1022A000882309F46DC08BE392E00E944316812FCE
:1022B0000E943418112309F465C080910303882318
:1022C000D1F18BE492E00E944316812F0E943418D2
:1022D00087E592E00E944316CE010E94F40B97011D
:1022E0002E5F3F4F6901882339F0CE010E94090C0F
:1022F000AC0160E070E009C0CE010E94340C5C01CA
:10230000CE010E94550CA501BC01C6010E94680DBA
:10231000F701ED58FF4F9081891730F440E0682FA6
:10232000C6010E94020D01C080E00E9434188EE7B1
:1023300091E00E9467158FEF810F803198F4E82FAC
:10234000F0E0E95FFC4F908190FDF9C06B81DF9177
:10235000CF911F91FF90EF90DF90CF90BF90AF9003
:102360000C94CB0F803109F0EAC0DF91CF911F911F
:10237000FF90EF90DF90CF90BF90AF900C94F20E53
:102380001111D9CF8B81883091F58091CC028823AF
:10239000A9F11092D7048091C604823108F0ACC034
:1023A0008FEF8093D704409166035091670390E0CC
:1023B0008417950709F0A5C01092D7048091C60430
:1023C000833108F0A9C08FEF8093D7044091680350
:1023D0005091690390E08417950709F0A2C080919D
:1023E0000303882321F082E692E00E9467158B8127
:1023F000893021F48091CC0281119EC08091030329
:10240000882309F49CC0CE010E94DF0B882389F049
:1024100082ED91E00E94FD17CE010E94550C0E94B2
:102420006E1888EC91E00E94FD17CE010E94340CDA
:102430000CC0CE010E94F40B8823B1F08BEB91E02D
:102440000E94FD17CE010E94090C0E946E188CE7B5
:1024500091E0DF91CF911F91FF90EF90DF90CF90AF
:10246000BF90AF900C94551589E792E00E944316F7
:1024700060E170E08B810E9426188EE792E00E9456
:102480004316CE010E94550C0E946E1885E892E01A
:102490000E9443162B8D80E1289F900111248C8D82
:1024A000829586958770822B8A836AE070E00E940D
:1024B00026188DE892E00E9443168B8990E025E073
:1024C000959587952A95E1F78C836AE070E00E94E4
:1024D00026188BE992E00E94431680918105909125
:1024E0008205DF91CF911F91FF90EF90DF90CF9009
:1024F000BF90AF900C9433168AE290E00E94AE0C2D
:1025000052CF80913005813108F456CF61E18DEBD7
:1025100094E00E94DA0C50CF8BE290E00E94AE0C67
:1025200055CF80913005823108F459CF62E18DEBAF
:1025300094E00E94DA0C53CF0E94C9105FCFDF9164
:10254000CF911F91FF90EF90DF90CF90BF90AF9011
:102550000895CF93DF93C82F809106032C2F30E08E
:10256000E0910303F091C604D901A95FBC4F882311
:1025700041F08C91982F9170282F2570253021F0F3
:1025800039C08C9182FF3AC0C830B8F04C2F4770E8
:10259000C695C695C695D0E0CC5FDC4F888190E0AB
:1025A000042E02C0959587950A94E2F7209168035E
:1025B0003091690380FD4AC03BC08091040390E0E4
:1025C0000C2E02C0959587950A94E2F72091660338
:1025D0003091670380FD7BC081E090E0A0E0B0E037
:1025E00004C0880F991FAA1FBB1FCA95D2F7822B60
:1025F000932B7CC0911102C081FFC4CFC83008F476
:1026000045C04C2F4770C695C695C695AC2FB0E017
:10261000AC5FBC4F8C9190E0042E02C095958795DD
:102620000A94E2F7209168033091690380FF0EC09D
:1026300081E090E0A0E0B0E004C0880F991FAA1FDD
:10264000BB1F4A95D2F7822B932B0FC081E090E0FD
:10265000A0E0B0E004C0880F991FAA1FBB1F4A95D5
:10266000D2F780959095822393239093690380936A
:102670006803F23108F43FC08091680390916903C8
:1026800099279093B6048093B50435C04091040314
:1026900050E00C2E02C0559547950A94E2F7209120
:1026A00066033091670340FF12C041E050E060E0F4
:1026B00070E004C0440F551F661F771FCA95D2F7FC
:1026C000422B532B509367034093660336C081E03F
:1026D00090E0A0E0B0E004C0880F991FAA1FBB1FC4
:1026E000CA95D2F7809590958223932390936703A0
:1026F0008093660322C0EE2309F44EC083EA92E081
:102700000E9443166AE070E083E190E00E94F015B9
:102710008EEC91E00E94431662E070E080916803C5
:10272000909169030E94F0158EEC91E00E9443168F
:1027300080916803909169032BC0F13148F080913A
:1027400066039091670399279093B4048093B30430
:10275000EE2311F183EA92E00E9443166AE070E0F2
:1027600082E190E00E94F0158EEC91E00E94431609
:1027700062E070E080916603909167030E94F0151B
:102780008EEC91E00E94431680916603909167035E
:10279000DF91CF910C943316DF91CF9108952F9252
:1027A0003F924F925F926F927F928F929F92AF92E1
:1027B000BF92CF92DF92EF92FF920F931F93CF932E
:1027C000DF9300D000D000D0CDB7DEB71092340533
:1027D00080E00E944418282F237030E0359527951B
:1027E0002093CF02982F91709093CC028695869576
:1027F000813049F030F0823041F0833039F488E2A2
:1028000005C085E003C08AE001C084E18093F00246
:1028100084E10E944418881F8827881F809303033F
:1028200084E10E9444188170809302038091030325
:10283000882341F08CEA92E00E94431680910203C3
:102840000E94341880910303882379F084E10E9468
:10285000441886958170809306038BEB92E00E946A
:102860004316809106030E94341807E013E046E007
:10287000C42E41E0D42E87E193E09C838B83E0ED6E
:10288000F2E0FA83E9831E821D82812C912C54018F
:1028900083944D80842D8F5F0E944418582EF80138
:1028A0008081851509F4ABC0EB81FC81108250FE5C
:1028B0003DC062E0F60180810E94E70A8D810E949E
:1028C0007515FC0182819381982789279827E981D2
:1028D000FA8191838083F8012081852D822782FFF0
:1028E00089C04D815E81477055278D819E8133E07F
:1028F000959587953A95E1F7FC01E353FD4F2081CB
:1029000030E0042E02C0359527950A94E2F7FC01C9
:10291000EC5FFC4FD501C40104C0880F991FAA1FAA
:10292000BB1F4A95D2F720FD61C05DC0F601308023
:1029300061E0832D0E94E70AF8018081982F952598
:102940006D807E8023E0759467942A95E1F7ED8091
:10295000FE80F7E0EF22FF24252D227090FF03C0B8
:10296000F801508213C08525F801508282FF0EC005
:10297000211122C0F301EC5FFC4F608170E002C0C6
:1029800075956795EA94E2F7617012C0211114C041
:10299000F301EC5FFC4FD501C40104C0880F991FFF
:1029A000AA1FBB1FEA94D2F72081822B808361E0AB
:1029B0008D810E94CB0F21C061E0F52DF4702F2E88
:1029C00052FE60E0832D0E94B80AF301EC5FFC4FD9
:1029D000D501C40104C0880F991FAA1FBB1FEA9428
:1029E000D2F7222019F02081822B03C0809590819C
:1029F00089238083842D0E94A912F80150828D8141
:102A00009E8101969E838D830F5F1F4F9FEFC91A92
:102A1000D90AEB81FC813196FC83EB8389819A8111
:102A200002969A838983ED81FE81709709F031CFF8
:102A300026960FB6F894DEBF0FBECDBFDF91CF91C3
:102A40001F910F91FF90EF90DF90CF90BF90AF90CC
:102A50009F908F907F906F905F904F903F902F90BE
:102A600008959CEE980F9230C0F48E50806480934D
:102A70007C0080917A00806480937A0080917A0053
:102A800086FDFCCF809178002091790090E0922B18
:102A900021E08D3291403CF005C00E948F0A21E078
:102AA000892B09F020E0822F0895009769F0FC013E
:102AB00001900020E9F73197AF01481B590BBC0189
:102AC0008CE693E00C94030980E090E00895CF93A6
:102AD000DF930E945515EC018CE791E00E9455159B
:102AE0008C0F9D1FDF91CF9108951092CD0410920D
:102AF000CE041092CF041092D0041092D70490917B
:102B0000C704981720F09091C404981720F481E02E
:102B10008093D70421C090E0FC01EE0FFF1FE75F18
:102B2000FB4F20812093CD04FC01EE0FFF1FE55DDC
:102B3000FB4F20812093CE04FC01EE0FFF1FE35BCF
:102B4000FB4F20812093CF04880F991FFC01E1598E
:102B5000FB4F80818093D0048DEC94E008958F9298
:102B60009F92AF92BF920F931F93CF93DF93CDB7F6
:102B7000DEB7A1970FB6F894DEBF0FBECDBF19A286
:102B8000423008F44AE08E010F5D1F4F842E912CD5
:102B9000A12CB12CA50194010E947024E62FB9014B
:102BA000CA0101501109EA3014F4E05D01C0E95C8A
:102BB000D801EC93232B242B252B61F7C8010E940D
:102BC0005515A1960FB6F894DEBF0FBECDBFDF91AD
:102BD000CF911F910F91BF90AF909F908F900895CC
:102BE000CF92DF92EF92FF92CF93DF936115710541
:102BF00059F4682F8CE693E0DF91CF91FF90EF902E
:102C0000DF90CF900C9499096C01990FEE08FF08A2
:102C10006A307105E9F4F7FE19C06DE28CE693E0C5
:102C20000E949909EC0166277727CB016C197D0971
:102C30008E099F094AE00E94AF158C0F9D1FDF91FE
:102C4000CF91FF90EF90DF90CF9008954AE001C0C0
:102C5000462FC701B601DF91CF91FF90EF90DF9033
:102C6000CF900C94AF15CF93DF936AE070E00E9491
:102C7000F015EC018CE791E00E9455158C0F9D1F1B
:102C8000DF91CF9108950C9455151F93CF93DF9347
:102C9000182FCBEBD4E060E08DA50E94B80A83E04A
:102CA0000E94D80B812F0E94D80B80E00E94D80B85
:102CB000182F61E08DA50E94B80A812FDF91CF9176
:102CC0001F910895FF920F931F93CF93DF93F82ED8
:102CD000062F142FCBEBD4E060E08DA50E94B80A3C
:102CE00085E00E94D80B8F2D0E94D80B802F0E9468
:102CF000D80B812F0E94D80B61E08DA5DF91CF9179
:102D00001F910F91FF900C94B80AFF920F931F939D
:102D1000CF93DF93C82FF62E072F142F60E08091FA
:102D2000E8040E94B80A82E00E94D80B8C2F0E940F
:102D3000D80BCF2DD02FCE01810F911D8C01C01744
:102D4000D10721F089910E94D80BF9CF61E08091E1
:102D5000E804DF91CF911F910F91FF900C94B80A76
:102D60000F931F93CF93DF93082F162FCBEBD4E055
:102D700060E08DA50E94B80A82E00E94D80B802FE7
:102D80000E94D80B812F0E94D80B61E08DA5DF91A6
:102D9000CF911F910F910C94B80A4F925F926F924E
:102DA0008F929F92AF92BF92CF92DF92FF920F933A
:102DB0001F93CF93DF9300D000D0CDB7DEB7109232
:102DC000D8046093D9047093DA048093DB04909361
:102DD000DC04493008F048E04093DD041092E6043A
:102DE000AEEDB4E0F90150E0CF01821B930B8417E4
:102DF00095071CF481918D93F7CFA12CB12C4090B5
:102E0000500150905101609052014E0124E0820E19
:102E1000911C49825A826B82CE0101966C01F82E78
:102E20000D2DF60111916F01812F0E944516982FEB
:102E3000987083FD02C01F5F05C08C149D0489F744
:102E400010E092E0FFEFAF1ABF0A923029F422E3BC
:102E5000A216B104F1F67CC082E3A816B10409F40D
:102E600077C04091DD046EED74E085E0810F0E9433
:102E700085168091E604813029F48091DD04806418
:102E80008093DD046091DD0484E0810F0E94B01620
:102E90004091D9045091DA046091DB047091DC0414
:102EA0008091D8048130B1F44C835B83AB016627F9
:102EB0007727942F9C71842F8370E8E09E9F800D6C
:102EC000112488608A8365E0569547956A95E1F7F5
:102ED00049830DC0CA0123E0969587952A95E1F7AD
:102EE00089834295440F407E4A831C821B8244E0C2
:102EF0006F2D702F812F0E948516115048E068E0D9
:102F0000812F0E946216C12CD12CFFEFCF1ADF0A4D
:102F1000812F0E94451683FF05C022E3C216D1040B
:102F2000A1F718C082E3C816D104A1F01092D90409
:102F30001092DA041092DB041092DC041092DD048B
:102F40001092D8041092E6041092E70480E003C0C7
:102F500086E001C087E00F900F900F900F90DF91F7
:102F6000CF911F910F91FF90DF90CF90BF90AF90C6
:102F70009F908F906F905F904F900895CF93DF93C5
:102F8000C091F004C295C695C770CF5F81E0809371
:102F9000ED048093EE0460911E0570E080E090E007
:102FA00020EF34E04C2F0E94CD16811102C080E04A
:102FB0000FC0D3E060911E0570E080E090E020EF4C
:102FC00034E04C2F0E94CD16882389F3D15091F71D
:102FD000DF91CF910895EBEBF4E0AFE1B5E09C9188
:102FE00011962C913FE635AB26AB97AB80AF11AE77
:102FF00012AE13AE14AE0C94BE170F931F93CF9363
:10300000DF938C01C0E0D0E0F801EC0FFD1F64916C
:10301000662341F08CE693E00E949909892B11F018
:103020002196F2CFCE01DF91CF911F910F9108959C
:10303000CF93DF930E94FD17EC018CE791E00E9493
:1030400055158C0F9D1FDF91CF910895AB01682F0F
:103050004115510521F48CE693E00C94990970E038
:1030600080E090E00C94AF15CF93DF936AE070E0BE
:103070000E942618EC018CE791E00E9455158C0FF8
:103080009D1FDF91CF9108951092D7049091C604AF
:10309000891720F08FEF8093D7040895E82FF0E090
:1030A000EE0FFF1FEF56FB4F80810895EBEBF4E02E
:1030B00085E090E09093820580938105AFE1B5E0D3
:1030C0008C9111969C9120E525AB96AB87AB10AE09
:1030D00011AE12AE13AE14AE0C94BE17BC0180E05C
:1030E00090E04AE00C94AF151F93CF93DF938823B1
:1030F000A1F0EB0183E10E944418182F83E10E94A4
:10310000441880E98093F0041092F1041093F204C3
:10311000D093F304C093F4040FC080911F059091E5
:10312000200528E92093F0049093F1048093F204A1
:103130007093F3046093F4041092F5041092F60473
:103140001092F704DF91CF911F910C94BE171F933B
:10315000CF93DF938823A1F0EB0183E10E94441811
:10316000182F83E10E94441881E98093F0041092A3
:10317000F1041093F204D093F304C093F4040FC04D
:1031800080911F059091200529E92093F0049093E8
:10319000F1048093F2047093F3046093F4041092AA
:1031A000F5041092F6041092F704DF91CF911F916D
:1031B0000C94BE178091FB04823721F08C3911F0FA
:1031C000853B19F480910E050895853F19F480918F
:1031D00010050895823F19F480911205089580E04A
:1031E00008958091FB04853B19F4809110050895A2
:1031F0009EE2980F923018F4809111050895853F52
:1032000019F480911205089580E008958091FB04DF
:103210008C3911F0853B19F480910F050895823B9C
:1032200011F0823D19F4809110050895853F19F43D
:1032300080911105089580E00895CF93DF93CDB775
:10324000DEB728970FB6F894DEBF0FBECDBF109241
:1032500007068093320584E090E090938205809386
:10326000810582E08093ED0483E08093EE04609119
:103270001E0570E080E090E0FE013196AE01475FF0
:103280005F4F9F011192E417F507E1F741E040938A
:10329000E60440E00E94CD161092E6040E94820BE4
:1032A00060938305709384058093850590938605CC
:1032B00028960FB6F894DEBF0FBECDBFDF91CF9139
:1032C0000895CF93DF93CBEBD4E09F838887692F5A
:1032D00083E190E00E94AC0C688584E190E0DF918E
:1032E000CF910C94AC0C0F931F93CF93DF9300D02E
:1032F00000D0CDB7DEB7182F1092D8041092D904A1
:103300001092DA041092DB041092DC0444E0BE0157
:103310006F5F7F4F0E94D6082A813981822F90E00B
:1033200065E0959587956A95E1F748E0349F800DB3
:10333000911D1124092E000CAA0BBB0B8093D904FC
:103340009093DA04A093DB04B093DC0423FF29C03C
:1033500032E0880F991FAA1FBB1F3A95D1F723703F
:10336000820F911DA11DB11DBA2FA92F982F88275B
:103370002B81820F911DA11DB11DBA2FA92F982F4E
:1033800088272C81820F911DA11DB11D8093D90426
:103390009093DA04A093DB04B093DC0481E0809383
:1033A000D8048FEF810F0E944516082F84E0810F0B
:1033B0000E94451603FF04C091E09093E60402C00A
:1033C0001092E604482F4F704093DD046EED74E0D8
:1033D00085E0810F0E94D6080F900F900F900F90FC
:1033E000DF91CF911F910F9108951F93CF93DF939A
:1033F000CBEBD4E060E08DA50E94B80A80EA0E9481
:10340000D80B80E00E94D80B182F61E08DA50E9498
:10341000B80A812FDF91CF911F910895CF93C82FC4
:10342000482F60EE8FE00E9462168FE00E944516E2
:10343000982F907E81E09C1301C080E0CF91089589
:10344000789484B5826084BD84B5816084BD85B57F
:10345000826085BD85B5816085BD80916E0081608B
:1034600080936E0010928100809181008260809331
:103470008100809181008160809381008091800033
:103480008160809380008091B10084608093B1005E
:103490008091B00081608093B00080917A00846058
:1034A00080937A0080917A00826080937A00809184
:1034B0007A00816080937A0080917A00806880939E
:1034C0007A001092C1003E9A61E080E00E94E70A13
:1034D00061E081E00E94E70A0E94820B6838734134
:1034E00081059105E8F460E080E00E94B80A60E0A0
:1034F00081E00E94B80A64E670E080E090E00E94FB
:10350000480B61E080E00E94B80A61E081E00E941F
:10351000B80A64EF71E080E090E00E94480BDCCFD5
:1035200061E080E00E94B80A61E081E00E94B80A90
:103530003E98469AC6E0D1E061E089910E94E70A90
:1035400011E0C631D107C1F7A1E2B5E0FD0111924A
:1035500025E0E932F207D9F7E0E6F1E081918D93B9
:1035600031E0E836F307D1F787E580932A058DE04F
:103570008093290581E080932C0582E080932D05BE
:1035800080912B05836080932B0585EC90E0A0E073
:10359000B0E08093350590933605A0933705B0933E
:1035A0003805D1E036991BC00E94820B4B015C01AB
:1035B000C1E00E94820BDC01CB0188199909AA099C
:1035C000BB09883E9340A105B10508F031C6CC2364
:1035D00049F3C6B1C6FBCC27C0F9CD27EACF61E0DD
:1035E00080E00E94B80A61E081E00E94B80A8FE39F
:1035F00091E190930906809308068AE08093E8049D
:1036000061E00E94E70A61E08091E8040E94B80A44
:10361000C4E1D0E043EBA42E40E0B42E5FE9E52EF8
:1036200050E0F52ECFB6F89480912703811126C083
:10363000F5018491F7012491E82FF0E0EE0FFF1FD0
:10364000E557FF4FA591B4919C91822F892321F4D6
:1036500061E08AE00E94B80A61E08AE00E94E70A1D
:103660008CB580618CBD8CB580648CBD61E08DE0D3
:103670000E94E70A61E08BE00E94E70A809127033D
:103680008F5F80932703CFBE60E08091E8040E94A3
:10369000B80A80EC0E94D80B61E08091E8040E9497
:1036A000B80A6AE070E080E090E00E94480B80E891
:1036B0000E940E1A882381F06AE070E080E090E0BA
:1036C0000E94480B6EE170E080E090E00E94480BA1
:1036D000219709F0A7CF4BC06AE070E080E090E04E
:1036E0000E94480B61E08AE20E94B01661EB89E219
:1036F0000E94B01665E088E20E94B0166AE070E0B1
:1037000080E090E00E94480B10E360E0812F0E946F
:10371000B01660E080E1810F0E94B01660E080E2A8
:10372000810F0E94B0161F5F1E3379F760E080E6BC
:103730000E94B01660E080E70E94B01663E08BE262
:103740000E94B01644E064E680E60E94621640E003
:1037500060E680E70E94621680E00E940E1A8111E6
:10376000ABCF6AE070E080E090E00E94480B8FEF02
:103770008093150662E00E94E70A84E10E944418E3
:10378000881F8827881F80930303882309F478C142
:10379000E0917C03F0917D0382E08083E0917803E7
:1037A000F09179031082E0917A03F0917B0380E13C
:1037B000808310928403E0918003F091810386E07E
:1037C0008083E0917E03F0917F038081806180831C
:1037D000E0917E03F0917F03808188608083E09197
:1037E0007E03F0917F03808180688083E0917E0377
:1037F000F0917F0380818F7D8083C5E0D0E068EE0B
:1038000073E080E090E00E94480B89E691E00E941E
:1038100043162197A1F78EE791E00E9467158BE68A
:1038200091E00E94431681E090E00E9433168DEBF8
:1038300094E00E949F0E8CE591E00E94181885E5A7
:1038400091E00E94FD1780E090E00E94AE0C60E1E4
:1038500070E00E9426188CE491E00E94FD1760E160
:1038600070E08091C1040E94261887E491E00E94D4
:10387000FD178091C2049091C30498278927982747
:103880009093D3048093D2040E946E188FE391E04A
:103890000E94FD1760E170E08091D1040E9426181B
:1038A00082E391E00E94FD1760E170E08091C40422
:1038B0000E94261880E291E00E94FD1760E170E00E
:1038C0008091C8040E94261885E191E00E94FD17AE
:1038D00060E170E08091C6040E94261889E091E0C2
:1038E0000E94FD17C0E08091C604C81778F48C2FA1
:1038F00090E049960E94AE0C60E170E00E942618AC
:1039000087E091E00E94FD17CF5FEDCF8BEF90E055
:103910000E94FD17C0E08091C604C81790F4EC2FF8
:10392000F0E0EE0FFF1FEF56FB4F60E170E080818B
:1039300091810E94F01589EF90E00E94FD17CF5F02
:10394000EACF89EE90E00E94FD17C2E0D0E0CE0100
:103950000E94AE0C60E170E00E94261887EE90E0B5
:103960000E94FD172196C231D10589F786ED90E0BE
:103970000E94FD1710E08091C904181718F5C12F97
:10398000D0E0CC0FDD1F8091CC042E01480E511CDD
:10399000C2010E94AE0C60E170E00E942618809186
:1039A000CC043E01680E711CC30101960E94AE0C4E
:1039B00060E170E00E94261884ED90E00E94FD17FF
:1039C0001F5FD9CF8BEC90E00E941818C091CA04F9
:1039D000D091CB0410E08091C704181708F050C0B4
:1039E0007E0104E0E00EF11CCE010E94AE0C60E10D
:1039F00070E00E942618219689EC90E00E94FD1745
:103A0000CE15DF0589F787EC90E00E94FD17A12E07
:103A1000B12CAA0CBB1CE12CF12CF701EA0DFB1D0B
:103A2000E75FFB4F60E170E0808191810E94F015BB
:103A300085EC90E00E94FD1722E2E20EF11C38E8CE
:103A4000E316F10451F78FEB90E00E94FD1700E0C0
:103A50008091C804081770F4CE010E94AE0C60E19A
:103A600070E00E94261821968DEB90E00E94FD17D1
:103A70000F5FEECF8CE791E00E9455151F5FABCF33
:103A80008091030381110EC010920D0681E0809396
:103A90000E0661E080E00E94E70A61E080910E0678
:103AA0000E94E70AF89489E0E0E0F0E08093570094
:103AB0003491E3E0F0E0809357002491E2E0F0E0FD
:103AC000809357009491E1E0F0E080935700849157
:103AD0007894C1E03F3F09F4C0E02C3509F0CE5F97
:103AE000E2E0E90FE23020F0CC5F8F3F19F406C02E
:103AF0008F3F11F0C85F02C0CC2369F180910303AE
:103B0000811102C0C1E014C08EE691E00E94FD1751
:103B10006AE070E08C2F0E9426188FE791E00E94E7
:103B2000671568EE73E080E090E00E94480BECCFF0
:103B30008D2D8C278170D82E682F80E00E94B80AC6
:103B40006D2D81E00E94B80A64EF71E080E090E0A2
:103B50000E94480BEDCF0E94CF138091CC028823A6
:103B600009F452C081E10E9444188093040382E169
:103B70000E94441880930503A7E0B3E020E030E002
:103B8000C12CD12C7601C3948D918570853091F52F
:103B9000F901C3E0F595E795CA95E1F7EC5FFC4FB5
:103BA0008081A90147705527682F70E0042E02C05C
:103BB000759567950A94E2F760FD0EC026013701FE
:103BC00004C0440C551C661C771C4A95D2F7B301FF
:103BD000A201482B40830EC03601470104C0660C89
:103BE000771C881C991C4A95D2F7B401A301409513
:103BF000842380832F5F3F4F2031310529F60E94B7
:103C0000F20E0E94C91050C081E891E00E94671531
:103C1000C7E0D3E000E010E0C12CD12C7601C394C2
:103C2000299120FF3BC0F801A3E0F595E795AA95FF
:103C3000E1F7C8018770992722FF16C04601570196
:103C400004C0880C991CAA1CBB1C8A95D2F7AF0132
:103C500043535D4FDA012C9128292C93EC5FFC4FE4
:103C60002081882D822B16C02601370104C0440C08
:103C7000551C661C771C8A95D2F7D301C20180952A
:103C8000DF01A353BD4F9C9198239C93EC5FFC4FA5
:103C9000908189238083802F0E94A9120F5F1F4F7C
:103CA0000031110509F0BCCF80910303882321F076
:103CB00088E691E00E941818ECE32E2E312C812C1E
:103CC000912C540183940E94230B609335037093CD
:103CD000360380933703909338030091310310919A
:103CE000320320913303309134036B017C01C01AFD
:103CF000D10AE20AF30A49EEC41643E0D406E1040D
:103D0000F10448F40E946404809134058823A1F1F1
:103D10000E94CF1331C060933103709332038093BC
:103D2000330390933403C0E00E94F519837001F1CE
:103D3000A5C28091E9048093F7058091EA048093FD
:103D4000F8058091EB048093F9058091EC04809351
:103D5000FA054093F5058091E6048111BAC21092EC
:103D6000F60580917B0590917C05892B09F4B5C2FD
:103D7000CF5FC23039F2D8CF8091350390913603AE
:103D8000A0913703B091380340912D0350912E0339
:103D900060912F03709130032C013D01441A550AA4
:103DA000660A770A01E5401603EC500661047104C7
:103DB00058F58091350390913603A0913703B09167
:103DC00038034091290350912A0360912B0370918D
:103DD0002C032C013D01441A550A660A770A09E8AA
:103DE000401603E150066104710408F40DC280938B
:103DF000290390932A03A0932B03B0932C03809163
:103E0000280311E0180F25C180932D0390932E03F2
:103E1000A0932F03B093300357E1E52E53E0F52E26
:103E200000ED12E067E0C62E63E0D62E76E0672E46
:103E300071E0772EC0E0D0E0D7018C9181508E3FA9
:103E400008F0F1C08C938111EEC0F601808180FDF5
:103E5000B0C055245394F82FF4704F2E82FF512C8C
:103E6000652DD3018C910E94B80A809106038823A6
:103E700011F1FE0143E0F595E7954A95E1F7CE0192
:103E800087709927EC5FFC4FA501940104C0220FB5
:103E9000331F441F551F8A95D2F7DA01C901442008
:103EA00019F02081822B03C0809590818923808323
:103EB0008C2F0E94A91280910303882381F082E055
:103EC00092E00E9443166AE070E0CE010E94F01575
:103ED00081E991E00E944316852D0E94341880915B
:103EE0000203882309F49FC080910103882309F409
:103EF0009AC08091F102282F30E0F901E95FFC4F70
:103F0000408141FF45C040FD43C0F901E95EFC4FDF
:103F10009091F0029083E82FE695E695E695982F2C
:103F2000977042FD24C2F0E0EC5FFC4FB501A401A4
:103F300004C0440F551F661F771F9A95D2F79081D2
:103F4000492B4083552453940E94A912E091F10219
:103F5000F0E0EA5FFE4F652D80810E94B80A8091F3
:103F60000303882389F089E991E00E9443166AE0FF
:103F700070E08091F1020E9426188BEA91E00E9485
:103F80004316852D0E9434188091F1020E945B0F28
:103F900080910103815080930103E1EFF2E090E012
:103FA0009F01215F324028173907ECF521812193C9
:103FB000F7CF81FF38C0D8016D917C9181E090915D
:103FC000CF02911180E00E94A718809103038823FB
:103FD00051F184EB91E00E94431682EC91E00E9443
:103FE000431684EC91E00E944316F8018081918190
:103FF0000E946E188DEC91E00E9443166AE070E01A
:104000008091CF020E9426188091CF02882319F058
:1040100083E591E002C08AE591E00E94431680EDBD
:1040200091E00E9467152196FFEFEF1AFF0A0E5FDD
:104030001F4F2FEFC21AD20A3FEF631A730AC03123
:10404000D10509F0F9CEB5CE811709F4D8C0219673
:104050001C2F1F70C12FD0E0AE01495F5C4F7A0169
:10406000DA019C9190FFF0CF10932803811709F497
:10407000C6C0FE01EA5FFE4F80810E943115082F05
:10408000482F50E0CE0133E0959587953A95E1F7BA
:10409000FC01E353FD4F7081612F6770272F30E0E3
:1040A000062E02C0359527950A94E2F72170332732
:1040B0004217530709F092C0FC01EC5FFC4F90815E
:1040C000292F30E0062E02C0359527950A94E2F795
:1040D000217033274217530709F496C02401350194
:1040E00004C0440C551C661C771C6A95D2F7B301BA
:1040F000A201002319F0492B408304C04095842F6E
:1041000089238083812F0E94A912D7018C9182FF7D
:1041100004C091E0011190E0092F81FD11C0909140
:10412000CF02CC0FDD1FFE01E053FD4F6081718196
:1041300081E0011118C0911180E00E94A71817C0FA
:10414000FE01E95EFC4F002309F445C08081811126
:1041500040C0CC0FDD1FFE01E053FD4F6081718137
:1041600081E09091CF02911180E00E9474188091BB
:104170000303882309F448C084EB91E00E944316AE
:104180006AE070E0802F0E94261884EC91E00E9483
:104190004316C053DD4F888199810E946E188DECC3
:1041A00091E00E9443166AE070E08091CF020E9485
:1041B00026188091CF02882319F083E591E002C090
:1041C0008AE591E00E94431680ED91E00E94671518
:1041D0001BC0108219C0B8E2B08316C0D501C4015B
:1041E00004C0880F991FAA1FBB1F6A95D2F700232E
:1041F00011F0872B02C080958723808305C02F96FE
:10420000CF70DD27C09328038091810590918205AE
:10421000039759F4369909C00E94820B61317742A5
:104220008105910510F00E9456180E94020A4BCD9C
:10423000CC2309F4B7C98DEB94E00E94EB0D81E02B
:104240008093EF0460912B05646060932B0560936D
:10425000D10485E190E00E94AC0C60912B05609345
:10426000D10485E190E00E94AC0C60E081E00E9406
:10427000B80A60E080E00E94B80AFFCF0E94F519FA
:10428000C11108C080FF74CD81E60E94731940E01F
:1042900061E007C081FF6CCD81E70E94731940E0A7
:1042A00062E08CE20E9462164091DD04EBEBF4E0E8
:1042B0009F012B5B344031968091DD0490E02817FC
:1042C00039070CF036CD82A1DF01A15CBE4F8C9383
:1042D000EFCF51E05093F60544CD81E090E090930C
:1042E0007C0580937B058091790590917A05CC9728
:1042F00024F010927A0510927905E5EFF5E08091AF
:10430000790590917A052191DC01A55CBA4F12964E
:104310002C93019690937A058093790580917F057F
:104320009091800501969093800580937F05A6E08B
:10433000E430FA0721F7CD97ACF080917D0590919C
:104340007E050F968C3391052CF490937E05809317
:104350007D0504C010927E0510927D053092800587
:1043600020927F0510927C0510927B0501CDF0E034
:10437000EC5FFC4FB501A40104C0440F551F661F3C
:10438000771F9A95D2F74095908149234083512C0D
:10439000DBCD8BEB94E00C94DF0E6F927F928F92CB
:1043A0009F92AF92BF92CF92DF92EF92FF920F93C4
:1043B0001F93CF93DF93CDB7DEB7C654D1090FB6A5
:1043C000F894DEBF0FBECDBF10926F0310926E0344
:1043D00088EE93E0A0E0B0E08093700390937103C7
:1043E000A0937203B09373038AE191E090936D03FD
:1043F00080936C0385EC90E090937903809378032D
:1044000084EC90E090937B0380937A0380EC90E0BF
:1044100090937D0380937C0381EC90E090937F03E5
:1044200080937E0382EC90E09093810380938003DD
:1044300086EC90E09093830380938203109285032F
:104440001092860310928703109288038CE491E007
:104450009093BC048093BB0484E491E09093BE04E9
:104460008093BD0488EF94E00E94950C8CE391E06A
:1044700090931D0580931C05E1E2F5E089E295E04B
:1044800020E321938E179F07E1F784E391E0909357
:104490003C0580933B05109231051092070627E1F9
:1044A000FE013196A8EDB4E001900D922A95E1F756
:1044B0009A83898321961FAE1EAE219723961FAE45
:1044C0001EAE239725961FAE1EAE259727961FAECC
:1044D0001EAE2797DE011396EDE3F5E08D918193F3
:1044E00045E0E937F407D1F710927A051092790583
:1044F00010927C0510927B0510927E0510927D052E
:104500001092800510927F0584E491E09A8389835C
:1045100085E18A8781E18B8781E08C878D878EE2B8
:10452000888B80E390E09F878E8781E090E00E94F7
:1045300098249C838B83CE0101960E94D40DCE01DA
:1045400001960E949F0EDA8421E9E22E24E0F22EE9
:1045500000E010E01B8E0D1510F08FEF04C0C801B5
:1045600049960E94AE0C90E0F701819391937F01F0
:104570000F5F1F4F0531110569F7EB847884CC84F8
:10458000D12CF4E0CF0ED11C89E0882E84E0982E47
:104590009DE4A92E94E0B92E0E851F85F12C66248A
:1045A0006394198A1A8A1B8A1C8A1B8EEF1410F0D6
:1045B0007F1410F46B8E13C0C8010E94AE0C898B5F
:1045C000C80101960E94AE0C8A8BC80102960E9417
:1045D000AE0C8B8BC80103960E94AE0C8C8B398974
:1045E000832F90E0F401819391934F012A89822FC8
:1045F00090E091A380A39B89492F50E0F50141935E
:1046000051935F018C89482F50E051A340A3F3944C
:104610000C0D1D1DF1E1FF12C4CF4B815C81509345
:10462000C0044093BF044D814093C1044E81409328
:10463000C2044F814093C30448854093C404498514
:104640004093C5044A854093C604E092C7044C8554
:104650004093C8044D854093C9044E855F855093AF
:10466000CB044093CA0448894093CC043093CD04D2
:104670002093CE049093CF048093D0048D898093AF
:10468000D1048E899F899093D3048093D204888D1E
:104690008093D404898D8093D5048A8D8093D60429
:1046A0008B8D8093D704CE0101960E94C90E8CE3B6
:1046B00091E09A838983DE011696CE010E96FD0164
:1046C00020E32193E817F907E1F78B8180931E051A
:1046D0008C819D819093200580931F05E1E2F5E098
:1046E0008D91819345E0E932F407D1F78E8580936F
:1046F00029058F8580932A05888980932B058989D0
:1047000080932C058A8980932D0581E180932E0565
:1047100085E18093300581E080932F05CE010196DD
:104720000E94950C8B818093FA048C818093FB040A
:104730008D818093FC048E818093FD048F81988508
:104740009093FF048093FE0489859A8590930105D8
:10475000809300058B859C859093030580930205CB
:104760008D859E8590930505809304058F85988996
:10477000909307058093060589899A899093090586
:10478000809308058B8980930A05DE015496EBE03F
:10479000F5E08D91819385E0E331F807D1F78C8DB9
:1047A000809313058D8D809314058E8D8093150550
:1047B0008F8D8093160588A18093170589A19AA1F2
:1047C00090931905809318058BA180931A058CA1ED
:1047D00080931B0580913105816080933105109293
:1047E00032050FEF00930D0600930E0611E01093B3
:1047F0000F06109210060E94820B609311067093B0
:1048000012068093130690931406109209061092D4
:10481000080610921806109217061092330510938E
:10482000340500931506109316068CE291E0A0E083
:10483000B0E08093350590933605A0933705B0938B
:1048400038058DEB94E00E949F0E8091C2049091F8
:10485000C3049827892798279093D3048093D20480
:104860009093200580931F058091C10480931E05BD
:104870008091D10480932B051093EF0483E090E0A6
:104880009093820580938105CA5BDF4F0FB6F89441
:10489000DEBF0FBECDBFDF91CF911F910F91FF9073
:1048A000EF90DF90CF90BF90AF909F908F907F90D0
:1048B0006F900895F999FECF92BD81BDF89A99271E
:1048C00080B50895262FF999FECF1FBA92BD81BDFC
:1048D00020BD0FB6F894FA9AF99A0FBE0196089582
:1048E000A1E21A2EAA1BBB1BFD010DC0AA1FBB1FF4
:1048F000EE1FFF1FA217B307E407F50720F0A21B66
:10490000B30BE40BF50B661F771F881F991F1A94D2
:1049100069F760957095809590959B01AC01BD01FC
:10492000CF010895EE0FFF1F0590F491E02D09943B
:104930000F931F93CF93DF938230910510F482E0A1
:1049400090E0E0911F06F091200620E030E0A0E02A
:10495000B0E0309719F140815181028113814817ED
:104960005907C8F08417950769F4109731F012962B
:104970000C93129713961C9327C000931F06109355
:10498000200622C02115310519F04217530718F4EB
:104990009A01BD01EF01DF01F801DBCF21153105DF
:1049A000F9F0281B390B2430310580F48A819B8172
:1049B0006115710521F0FB019383828304C09093FC
:1049C000200680931F06FE01329644C0FE01E20FCE
:1049D000F31F8193919322503109398328833AC080
:1049E00020911D0630911E06232B41F420910201D7
:1049F0003091030130931E0620931D062091000183
:104A0000309101012115310541F42DB73EB7409198
:104A1000040150910501241B350BE0911D06F09116
:104A20001E06E217F307A0F42E1B3F0B28173907C9
:104A300078F0AC014E5F5F4F2417350748F04E0FFA
:104A40005F1F50931E0640931D068193919302C0F1
:104A5000E0E0F0E0CF01DF91CF911F910F91089539
:104A6000CF93DF93009709F481C0FC013297138242
:104A70001282A0911F06B0912006109781F4208128
:104A80003181820F931F20911D0630911E06281739
:104A9000390751F5F0931E06E0931D0667C0ED013E
:104AA00020E030E0CE17DF0740F44A815B819E01B1
:104AB00041155105F1F0EA01F5CFD383C28340815E
:104AC0005181840F951FC817D90759F4888199819E
:104AD000840F951F0296918380838A819B819383A3
:104AE00082832115310529F4F0932006E0931F06F7
:104AF0003DC0E901FB83EA8349915991C40FD51F59
:104B0000EC17FD0761F480819181840F951F029657
:104B1000E90199838883828193819B838A83E0E082
:104B2000F0E012968D919C911397009719F0FD017A
:104B3000DC01F7CF8D919C9111979D012E5F3F4F26
:104B4000820F931F20911D0630911E0628173907EA
:104B500069F4309729F41092200610921F0602C0C3
:104B600013821282B0931E06A0931D06DF91CF918F
:104B7000089581E090E0F8940C94BE2510E0C1EF18
:104B8000D0E004C0FE010E9492242196C23FD107CA
:064B9000C9F7F894FFCF05
:104B96000000210680001514100F12130E021103D7
:104BA60004050607080900000000990903093109F0
:104BB600E00962094009540900000000940C4F0CFA
:104BC60000000000F10E530C00000000AB0C510C6D
:104BD60000000000C90ED50E00000000DF0EE70E33
:104BE6003040502073686F727400206C6F6E6700DF
:104BF600415244555F43414E002A00417264754359
:104C0600414E2056657273696F6E20000D0A0021B1
:104C160000736176656F7574707574206E65696E64
:104C26000020205374617465007665727A6F65673B
:104C3600657274657220506F72740020205374611F
:104C46007465200050696E2072656164696E673A0A
:104C56002000300020204576656E7420002020005C
:104C660020676573656E64657400426974204E61E1
:104C76006368626172706F727420005665727A6F33
:104C860065676572746520417573676162652000AA
:104C96002020506F7274200020206F6E5F6F666652
:104CA6002000202073746174652000736574416C64
:104CB6006C4F75747075747300736574416C6C4FCA
:104CC600757470757473456E646500557365725FAF
:104CD60046756E6374696F6E3A20004576656E742C
:104CE6004D6174636820004576656E745661723A4C
:104CF6002000496E7320454550524F4D206765731D
:104D06007065696368657274004F50433A00204EBF
:104D16006F64653A002043616E49443A00204D6550
:104D2600737361676553697A653A002053746174D9
:104D3600653A0056617256616C75650050756C7304
:104D46005F7370656963686572200053686F775F8B
:0C4D5600616B745F737461746520000071
:00000001FF
