:100000000C9402010C942A010C942A010C942A01EC
:100010000C942A010C942A010C942A010C942A01B4
:100020000C942A010C942A010C942A010C942A01A4
:100030000C942A010C942A010C942A010C942A0194
:100040000C940F260C942A010C94E8270C941A287F
:100050000C942A010C942A010C942A010C942A0174
:100060000C942A010C942A010C942A010C942A0164
:100070000C942A010C942A010C942A010C942A0154
:100080000C942A010C942A010C942A010C942A0144
:100090000C942A010C942A010C942A010C942A0134
:1000A0000C942A010C942A010C942A010C942A0124
:1000B0000C942A012F1E321E351E381E3B1E3E1E7A
:1000C000411E441EC9227222CD22C7227522C72298
:1000D00078227B227E22C722C72281228422872285
:1000E0008A228E22C7229122D1229F22A222C722B7
:1000F000A522C722A922AC22B022C722C722B3223E
:10010000B722BA22BE22C122C722C4222F273227F9
:10011000252729275327532736273A2740274427BF
:1001200053274A274E2753686F72743A20457665E5
:100130006E74002020204576656E7420004C6F6E32
:10014000673A204E6F64654E6F200053746172747D
:100150000050726F7A6573736F726665686C657252
:1001600020004641494C454420746F2073656E64FD
:100170002043414E00777269746520766172207465
:100180006F20656570726F6D000A0D0E0900030225
:10019000000004050800000000000000000000004E
:1001A0000000000001020408102040800102040841
:1001B00010200102040810204080400102040804BD
:1001C00004040404040404020202020202030303FE
:1001D00003030302020305050505000000002300D8
:1001E000260029002C0000000000250028002B001C
:1001F0002E0000000000240027002A002D00110E10
:100200004A281C0E11241FBECFEFD8E0DEBFCDBFA1
:1002100012E0A0E0B1E0E2ECF8E502C005900D923A
:10022000AA3BB107D9F726E0AAEBB2E001C01D92C4
:10023000A431B207E1F710E0C1E0D1E004C021979A
:10024000FE010E94082BCF3FD107C9F70E94F92970
:100250000C94542C0C9400008A3129F42CB123FB0B
:10026000222720F906C0893139F42CB122FB22273C
:1002700020F981E0282706C00E94BF2721E0892BB2
:1002800009F020E0822F0895CF93E82F8091BF02DC
:100290002E2F30E0D901A550BD4F882341F08C911D
:1002A000982F9170282F2570253021F04DC08C910A
:1002B00082FF4EC0E830B8F0CE2FC770E695E695C5
:1002C000E695F0E0EA50FD4F808190E00C2E02C0F0
:1002D000959587950A94E2F72091B3043091B40480
:1002E00080FD60C04DC08091F60290E00E2E02C0ED
:1002F000959587950A94E2F72091B1043091B20464
:1003000080FD0EC081E090E0A0E0B0E004C0880F66
:10031000991FAA1FBB1FEA95D2F7822B932B0FC000
:1003200081E090E0A0E0B0E004C0880F991FAA1F10
:10033000BB1FEA95D2F780959095822393239093E3
:10034000B2048093B10498C0911102C081FFB0CF74
:10035000E830E0F1CE2FC770E695E695E695F0E03F
:10036000EA50FD4F808190E00C2E02C09595879554
:100370000A94E2F72091B3043091B40480FF12C0D4
:1003800041E050E060E070E004C0440F551F661F7C
:10039000771FCA95D2F7422B532B5093B404409346
:1003A000B30435C081E090E0A0E0B0E004C0880F65
:1003B000991FAA1FBB1FCA95D2F7809590958223DB
:1003C00093239093B4048093B30421C04091F60228
:1003D00050E00E2E02C0559547950A94E2F7209101
:1003E000B1043091B20440FF9BCF41E050E060E0A7
:1003F00070E004C0440F551F661F771FEA95D2F7BF
:10040000422B532B5093B2044093B10435C040911A
:10041000B30462E18DE293E00E94621C8091D302FA
:10042000882309F463C069E171E083E795E00E94E5
:10043000DA284AE050E063E170E083E795E00E944B
:10044000DA2963EE71E083E795E00E94DA28609193
:10045000B3047091B40442E050E083E795E00E9459
:10046000DA2963EE71E083E795E00E94DA28609173
:10047000B3047091B40433C04091B10461E18DE2E2
:1004800093E00E94621C8091D302882379F169E194
:1004900071E083E795E00E94DA284AE050E062E1EB
:1004A00070E083E795E00E94DA2963EE71E083E76C
:1004B00095E00E94DA286091B1047091B20442E0A4
:1004C00050E083E795E00E94DA2963EE71E083E76C
:1004D00095E00E94DA286091B1047091B2044AE07C
:1004E00050E083E795E0CF910C94E129CF910895F6
:1004F00061E18DE293E00E94E71B4091B1045091CD
:10050000B20490E08417950729F062E18BE293E052
:100510000E94851162E18DE293E00E94E71B409109
:10052000B3045091B40490E08417950729F063E177
:100530008BE293E00E9485118091D302882331F0F1
:1005400062E271E083E795E00C94F92808951F9327
:10055000CF93DF9380FF03C0C82FCE7F02C0C1E0DE
:10056000C80FEC2FF0E0E550FD4F908191FF66C081
:1005700090FD64C0EC2FE695E695E695F0E0EA5034
:10058000FD4FD0811C2F17702D2F30E0012E02C09F
:10059000359527950A94E2F72170332741E050E022
:1005A000892F847092FF02C040E050E02417350785
:1005B00009F044C0811133C081E090E0A0E0B0E0D8
:1005C00004C0880F991FAA1FBB1F1A95D2F78095E8
:1005D0008D238083D0E08C2F0E9444018091D30230
:1005E000882361F169E371E083E795E00E94DA28EE
:1005F0004AE050E06C2F83E795E00E9461296AE4AD
:1006000071E083E795E00E94DA284AE050E06D2F20
:1006100083E795E0DF91CF911F910C94682941E029
:1006200050E060E070E004C0440F551F661F771F64
:100630001A95D2F74D2B4083D1E0CDCFDF91CF91EA
:100640001F910895AF92BF92DF92EF92FF920F93A6
:100650001F93CF93DF93C82FD62E082F10E0C80129
:1006600085509D4F5C01FC01D081C801855F9C4F86
:100670007C01D1FF56C08091FA02F7018083D2FB42
:10068000DD27D0F981E0D8278091C002882309F4C2
:1006900084C0ABEFB2E0EBE0F3E080E090E02D91BE
:1006A00021FF38C020FD36C00817190799F12081B5
:1006B00021502E3F78F58091D3028823D9F063E54D
:1006C00071E083E795E00E94DA284AE050E060910B
:1006D000C10283E795E00E94612968E671E083E743
:1006E00095E00E94DA284AE050E06C2F83E795E01D
:1006F0000E9468298091C102E82FF0E0EE53FD4F7F
:10070000C0838F5F803109F48FE08093C102F701CD
:100710001082BFC0019631968031910509F0BFCF9C
:100720003CC08FEFF7018083862F877FD1E080392F
:1007300011F06D13D0E08091D302882339F16AE67D
:1007400071E083E795E00E94DA284AE050E06C2FE0
:1007500083E795E00E94612960E771E083E795E017
:100760000E94DA284AE050E06D2D83E795E00E9470
:1007700061296AE771E083E795E00E94DA284AE0A0
:1007800050E06D2F83E795E00E946829F501808194
:1007900082FF03C0D1111CC002C0DD23C9F0EC2FC1
:1007A000E695E695E695F0E0EA50FD4F2C2F277090
:1007B00081E090E0A0E0B0E004C0880F991FAA1F7C
:1007C000BB1F2A95D2F72081822B8083D1E019C0EC
:1007D000EC2FE695E695E695F0E0EA50FD4F2C2FDC
:1007E000277081E090E0A0E0B0E004C0880F991F7E
:1007F000AA1FBB1F2A95D2F78095908189238083F9
:10080000D0E08C2F0E944401C11106C0DD2311F0FD
:10081000739A11C073980FC0C13031F4DD2311F009
:10082000729A09C0729807C0F801EA5FFE4F6D2FF7
:1008300080810E9490278091D3028823D1F06AE6BC
:1008400071E083E795E00E94DA284AE050E06C2FDF
:1008500083E795E00E9461296AE471E083E795E00F
:100860000E94DA284AE050E06D2F83E795E00E946D
:1008700068298091C002882361F08C2FDF91CF918D
:100880001F910F91FF90EF90DF90BF90AF900C946D
:10089000A702DF91CF911F910F91FF90EF90DF9012
:1008A000BF90AF9008953F924F925F926F927F9268
:1008B0008F929F92AF92BF92CF92DF92EF92FF9270
:1008C0000F931F93CF93DF9300D000D000D0CDB70C
:1008D000DEB71092A40361E08BE293E00E949C17C4
:1008E000282F237030E0359527952093F902982F13
:1008F00091709093F80286958695813049F030F09A
:10090000823041F0833039F488E205C085E003C0CD
:100910008AE001C084E18093FA0265E18BE293E012
:100920000E949C1781708093C0028091D30288231B
:1009300071F063E871E083E795E00E94DA284AE00D
:1009400050E06091C00283E795E00E94682965E16C
:100950008BE293E00E949C17869581708093BF0282
:100960008091D302882371F062E971E083E795E01A
:100970000E94DA284AE050E06091BF0283E795E0E8
:100980000E9468290BEF12E046E0C42E41E0D42E0D
:100990008BE093E09A838983E4EDF2E0FC83EB83C0
:1009A0001E821D82812C912C540183944D80642DD4
:1009B0006E5F8BE293E00E949C17582EF8018081B5
:1009C000581609F4C1C0E981FA8110828D819E8197
:1009D00050FE4BC0892B19F46B98739A0CC0ED81B3
:1009E000FE81319719F46A98729A05C062E0F601A7
:1009F00080810E945427642D8DE293E00E94051BA4
:100A0000FC0182819381982789279827EB81FC81BB
:100A100091838083F8012081852D822782FF8FC0FA
:100A20004D815E81477055278D819E8133E095957C
:100A300087953A95E1F7FC01EC50FD4F208130E0BD
:100A4000042E02C0359527950A94E2F7FC01EA507E
:100A5000FD4FD501C40104C0880F991FAA1FBB1FF9
:100A60004A95D2F720FDC1C067C0892B11F46B9A5B
:100A70000BC0ED81FE81319711F46A9A05C061E0E7
:100A8000F60180810E945427F8018081952D9827D6
:100A90006D807E8023E0759467942A95E1F7ED8060
:100AA000FE80F7E0EF22FF24252D227090FF03C087
:100AB000F801508216C08525F801508282FF11C0CE
:100AC00021110CC0F301EA50FD4F608170E002C0BB
:100AD00075956795EA94E2F7617015C052FC1AC0EB
:100AE00064C0211114C0F301EA50FD4FD501C401C7
:100AF00004C0880F991FAA1FBB1FEA94D2F7208158
:100B0000822B808361E0842D0E9422031BC052FC53
:100B100052C056C0ED81FE81EF2B09F06AC0739A76
:100B2000F301EA50FD4FD501C40104C0880F991F9D
:100B3000AA1FBB1FEA94D2F72081822B8083842DC9
:100B40000E944401F80150828D819E8101969E830E
:100B50008D830F5F1F4F9FEFC91AD90AE981FA8170
:100B60003196FA83E9838B819C8102969C838B83E7
:100B7000ED81FE81709709F019CF26960FB6F89493
:100B8000DEBF0FBECDBFDF91CF911F910F91FF90C0
:100B9000EF90DF90CF90BF90AF909F908F907F901D
:100BA0006F905F904F903F9008958D819E81892B2B
:100BB00059F473980EC08D819E81892BD1F4AFCFEB
:100BC000ED81FE81EF2BA9F3ED81FE81319709F5CF
:100BD0007298F301EA50FD4FD501C40104C0880F9B
:100BE000991FAA1FBB1FEA94D2F780959081892391
:100BF000A5CF8D819E81019711F4729A91CF3324F4
:100C00003394632DF60180810E949027311088CFA4
:100C1000E0CF312CF6CF0E946526609327037093B6
:100C200028038093290390932A030E9465266093EA
:100C3000BB027093BC028093BD029093BE020895E4
:100C4000FF920F931F93CF93DF93C091BA02D0E02E
:100C50008E01000F111F0C521D4FFF24F394809141
:100C6000BA02282F30E0295F3F4F2C173D070CF4C4
:100C70003DC0C031D105B4F5E091D202F0E0E550BD
:100C8000FD4F808180FF2EC0FE0183E0F595E79542
:100C90008A95E1F7EA50FD4F808190E09E01277030
:100CA000332702C0959587952A95E2F78170FE015A
:100CB000E550FD4F908192FD8F259091F902F8014A
:100CC0004081518161E0882339F0911160E08BE22D
:100CD00093E00E94EC1706C0911160E08BE293E074
:100CE0000E94211821960E5F1F4FB9CF885F809315
:100CF000BA024091BB025091BC026091BD0270915A
:100D0000BE0248575C4E6F4F7F4F4093BB025093DB
:100D1000BC026093BD027093BE02803151F4109208
:100D2000BA021092BB021092BC021092BD02109245
:100D3000BE02DF91CF911F910F91FF9008955F92B6
:100D40006F927F928F929F92AF92BF92CF92DF92DB
:100D5000EF92FF920F931F93CF93DF930E9465262C
:100D600060932703709328038093290390932A03A9
:100D70000091230310912403209125033091260331
:100D80006B017C01C01AD10AE20AF30A97018601BD
:100D9000053611052105310560F06093230370933A
:100DA000240380932503909326038BE293E00E9413
:100DB00056188BE293E00E944F178091A403811193
:100DC0000E9453048091BB029091BC02A091BD028D
:100DD000B091BE020097A105B105D9F0C0902703DC
:100DE000D0902803E0902903F0902A03C81AD90A6A
:100DF000EA0AFB0A8BE293E00E94E20E9C01A0E16A
:100E0000B7E20E940E2B6C157D058E059F0508F438
:100E1000EEC18091270390912803A0912903B091FE
:100E20002A0340911F035091200360912103709188
:100E300022037C018D01E41AF50A060B170BB80199
:100E4000A7014135534C6105710558F58091270381
:100E500090912803A0912903B0912A0340911B038C
:100E600050911C0360911D0370911E036C017D0164
:100E7000C41AD50AE60AF70A09E8C01603E1D00643
:100E8000E104F10408F48FC180931B0390931C03C9
:100E9000A0931D03B0931E038091D20211E0180F9E
:100EA00090C080931F0390932003A0932103B093DD
:100EB00022030BE013E044EDE42E42E0F42E5BEF5E
:100EC000C52E52E0D52E66E0662E61E0762EC0E09B
:100ED000D0E0812C912C54018394F80180818150C1
:100EE0008E3F08F058C08083811155C0F601808183
:100EF00080FD03C082FD7EC189C181FF4CC0F70126
:100F00004081518161E08091F902811160E08BE2C2
:100F100093E00E9421188091D3028823E1F169ECCB
:100F200071E083E795E00E94DA2867ED71E083E7DE
:100F300095E00E94DA2869ED71E083E795E00E9470
:100F4000DA28F701608171814AE050E083E795E09B
:100F50000E947A2962EE71E083E795E00E94DA2828
:100F60004AE050E06091F90283E795E00E94612930
:100F70008091F902811103C069EA71E002C062EA5E
:100F800071E083E795E00E94DA2865EE71E083E77F
:100F900095E00E94F92821960F5F1F4FF2E0EF0EB7
:100FA000F11C2FEFC21AD20A3FEF631A730AC03145
:100FB000D10509F092CF4ACF811709F4EFC02196ED
:100FC0001C2F1F70C12FD0E0AE0145505D4F7A013C
:100FD000FA01908190FFF0CF1093D202811709F4AB
:100FE000DDC0FE01EA5FFE4F80810E942C01082FC8
:100FF000482F50E0FE0123E0F595E7952A95E1F7AB
:10100000DF01AC50BD4F9C91812F8770292F30E0BC
:10101000082E02C0359527950A94E2F721703327F0
:101020004217530709F0A6C0EA50FD4F9081292FBF
:1010300030E0082E02C0359527950A94E2F721701A
:1010400033274217530709F4AEC041E050E060E097
:1010500070E004C0440F551F661F771F8A95D2F7B2
:10106000002319F0492B408303C0409594239083BB
:10107000812F0E944401F701808182FF04C091E02A
:10108000011190E0092F81FD13C08091F902CC0F6E
:10109000DD1FFE01EC52FD4F4081518161E00111E5
:1010A0001AC0811160E08BE293E00E94211819C000
:1010B000FE01E55FFC4F002309F459C080818111D6
:1010C00054C0CC0FDD1FFE01EC52FD4F4081518119
:1010D00061E08091F902811160E08BE293E00E946F
:1010E000EC178091D302882309F45DC069EC71E0AC
:1010F00083E795E00E94DA284AE050E0602F83E71A
:1011000095E00E94612969ED71E083E795E00E9416
:10111000DA28CC52DD4F688179814AE050E083E7DC
:1011200095E00E947A2962EE71E083E795E00E94E3
:10113000DA284AE050E06091F90283E795E00E94E6
:1011400061298091F902811103C069EA71E002C04E
:1011500062EA71E083E795E00E94DA2865EE71E0CB
:1011600083E795E00E94F9281EC010821CC088E227
:10117000808319C041E050E060E070E004C0440F9B
:10118000551F661F771F8A95D2F7002319F0492B48
:101190004C9309C0409594239C9305C02F96CF7023
:1011A000DD27C093D2028091F1039091F20303975F
:1011B00009F01CC136991AC10E9459266131774243
:1011C0008105910508F412C18BE293E0DF91CF9184
:1011D0001F910F91FF90EF90DF90CF90BF90AF9055
:1011E0009F908F907F906F905F900C94DC100E9486
:1011F00020060FCE209711F4739A05C0C130D10597
:1012000009F0E5C0729A5524539405C0209709F05F
:10121000E6C07398512C8091BF02882311F1FE0122
:1012200033E0F595E7953A95E1F7CE018770992778
:10123000EA50FD4FA501940104C0220F331F441F43
:10124000551F8A95D2F7DA01C901552019F020817E
:10125000822B03C080959081892380838C2F0E94EC
:1012600044018091D3028823D1F06AE671E083E7DC
:1012700095E00E94DA284AE050E0BE0183E795E05D
:101280000E94DA296FEA71E083E795E00E94DA288C
:101290004AE050E0652D83E795E00E94682980913F
:1012A000C002882309F477CE8091C102882309F413
:1012B00072CE8091C202282F30E0F901E550FD4F37
:1012C000908191FF5FC090FD5DC0F901E55FFC4F2B
:1012D0004091FA024083E82FE695E695E695282F9F
:1012E000277092FD61C0F0E0EA50FD4FB501A40106
:1012F00004C0440F551F661F771F2A95D2F79081AF
:10130000492B4083552453940E944401E091C2022A
:10131000E11106C0552011F0739A11C073980FC0E7
:10132000E13031F4552011F0729A09C0729807C06B
:10133000F0E0EA5FFE4F652D80810E94902780914A
:10134000D3028823D9F067EB71E083E795E00E9430
:10135000DA284AE050E06091C20283E795E00E94FB
:1013600061296AE471E083E795E00E94DA284AE0A7
:1013700050E0652D83E795E00E9468298091C202C4
:101380000E94A7028091C10281508093C102E2ECC9
:10139000F2E090E09F01225C3240281739070CF000
:1013A000FACD21812193F6CFF0E0EA50FD4FB5014F
:1013B000A40104C0440F551F661F771F2A95D2F75A
:1013C00040952081942F92239083512C9DCF5524BA
:1013D0005394652DF30180810E9490271CCFC1306A
:1013E000D10511F4729816CF512CF3CFDF91CF9124
:1013F0001F910F91FF90EF90DF90CF90BF90AF9033
:101400009F908F907F906F905F900895CF92DF9222
:10141000EF92FF920F931F93CF93DF938091D302AC
:10142000882331F06FEE71E083E795E00E94F928A0
:101430000BEF12E0C0E0D0E0C12CD12C7601C394B8
:10144000F80181918F018370D9F5FE0183E0F59554
:10145000E7958A95E1F7EA50FD4F80819E0127705C
:101460003327482F50E0022E02C0559547950A9425
:10147000E2F740FD0DC0B701A601022E04C0440FE3
:10148000551F661F771F0A94D2F7482B40830DC063
:10149000B701A601022E04C0440F551F661F771F17
:1014A0000A94D2F7409584238083608170E002C063
:1014B000759567952A95E2F761708C2F0E9422033B
:1014C0002196C031D10509F0BBCF8091D30288238A
:1014D00071F06DEF71E083E795E0DF91CF911F919F
:1014E0000F91FF90EF90DF90CF900C94F928DF914F
:1014F000CF911F910F91FF90EF90DF90CF900895C3
:101500008F929F92AF92BF92CF92DF92EF92FF9213
:101510000F931F93CF93DF9306E011E06801E12C56
:10152000F12CE114F10411F46B980BC021E0E216E8
:10153000F10411F46A9805C060E0F60180810E9410
:101540005427FFEFEF1AFF0A2FEFC21AD20A80E1E9
:10155000E816F10431F73E9A61E080E00E945427DA
:1015600061E081E00E9454270E9459266838734147
:1015700081059105E8F460E080E00E94902760E03A
:1015800081E00E94902764E670E080E090E00E9495
:101590008A2661E080E00E94902761E081E00E945D
:1015A000902764EF71E080E090E00E948A26DCCF13
:1015B00061E080E00E94902761E081E00E94902736
:1015C0003E98469AE6E0CE2EE1E0DE2EE12CF12CAC
:1015D000E114F10411F46B9A0BC0F1E0EF16F10481
:1015E00011F46A9A05C061E0F60180810E945427D7
:1015F000FFEFEF1AFF0A2FEFC21AD20A80E1E816B6
:10160000F10431F748E050E06FE072E08CE893E0DD
:101610000E94091E87E580939A038DE080939903C9
:1016200082E380939C0382E080939D0361E08CE8D9
:1016300093E00E94491E61E08CE893E00E94571EEF
:1016400085EC90E0A0E0B0E08093A5039093A60322
:10165000A093A703B093A803BB24B39436991BC0EF
:101660000E9459266B017C01C1E00E945926DC01D1
:10167000CB018C199D09AE09BF09883E9340A10595
:10168000B10508F08DC1CC2349F3C6B1C6FBCC2708
:10169000C0F9CB25EACF61E080E00E94902761E0AD
:1016A00081E00E94902785EF9CE0909379048093DD
:1016B00078046AE08BE293E00E94180F8FEF80932A
:1016C000850462E00E9454271092D30241E060E05A
:1016D0008BE293E00E94CB15F89489E0E0E0F0E023
:1016E000809357003491E3E0F0E080935700249119
:1016F000E2E0F0E0809357009491E1E0F0E0809325
:10170000570084917894C1E03F3F09F4C0E02C3544
:1017100009F0CE5FE2E0E90FE23020F0CC5F8F3FCE
:1017200019F406C08F3F11F0C85F02C0CC2389F1C5
:101730008091D302811102C0C1E01AC061E571E05D
:1017400083E795E00E94B6284AE050E06C2F83E7DB
:1017500095E00E94612968E172E083E795E00E94CC
:10176000F92868EE73E080E090E00E948A26E6CFD8
:10177000DC27D1706D2F80E00E9490276D2F81E0D3
:101780000E94902764EF71E080E090E00E948A263A
:10179000EFCFCBEFD2E0FE0183E6819323E0EB3085
:1017A000F207D9F70E9453048091F802882309F4C4
:1017B00099C062E18BE293E00E949C178093F6024D
:1017C00063E18BE293E00E949C178093F702ABEFFA
:1017D000B2E080E090E0C12CD12C7601C3942D9131
:1017E0002570253049F5FC0163E0F595E7956A958C
:1017F000E1F7EA50FD4F2081AC0147705527622F79
:1018000070E0042E02C0759567950A94E2F74601D0
:10181000570104C0880C991CAA1CBB1C4A95D2F71E
:1018200060FD05C0B501A401422B408305C0B50190
:10183000A40140952423208301968031910579F6F7
:10184000E12CF12C812C912C54018394899180FFFF
:101850003CC0F80180810E942C01970143E035953E
:1018600027954A95E1F7A701477055278823B1F0DE
:10187000D501C40104C0880F991FAA1FBB1F4A9538
:10188000D2F7F901EC50FD4F4081482B4083F9011C
:10189000EA50FD4F80959081892316C0D501C4017F
:1018A00004C0880F991FAA1FBB1F4A95D2F7F901E0
:1018B000EC50FD4F482F4095508145234083F9015E
:1018C000EA50FD4F2081822B8083FFEFEF1AFF0A41
:1018D0000F5F1F4F20E1E216F10409F0B7CF0E941D
:1018E000060A48C000E010E0C12CD12C7601C39458
:1018F000499140FF39C0C80123E0959587952A9505
:10190000E1F798012770332742FF15C0B701A60100
:1019100004C0440F551F661F771F2A95D2F7FC019C
:10192000EC50FD4F2081242B2083FC01EA50FD4F19
:101930008081482B15C0B701A60104C0440F551F74
:10194000661F771F2A95D2F74095FC01EC50FD4F9A
:10195000208124232083FC01EA50FD4F808148230D
:101960004083802F0E9444010F5F1F4F00311105FB
:1019700009F0BECF8091D302882351F16BE471E06E
:1019800083E795E0DF91CF911F910F91FF90EF904A
:10199000DF90CF90BF90AF909F908F900C94E728EE
:1019A000CC2309F45BCE8BE293E00E94C8158BE256
:1019B00093E00E9490168BE293E00E944D1660E047
:1019C00081E00E94902760E080E00E949027FFCF96
:1019D000DF91CF911F910F91FF90EF90DF90CF900B
:1019E000BF90AF909F908F900895EF92FF921F93BA
:1019F000CF93DF93EC017B01FB01E858FF4F10818F
:101A00008091D302882309F459C06AE172E083E728
:101A100095E00E94DA284AE050E0612F83E795E0E4
:101A20000E946829112309F44BC08091D3028823B6
:101A300029F16AE272E083E795E00E94DA284AE041
:101A400050E0612F83E795E00E94682966E372E029
:101A500083E795E00E94DA2840E0BE01C7010E94BA
:101A6000A0174AE050E0682F83E795E00E946829BC
:101A70006DE972E083E795E00E94F928115010317A
:101A800098F4E12FF0E0E550FD4F808180FDC3C068
:101A9000CE010E94951E682F812FDF91CF911F915B
:101AA000FF90EF900C942203103109F0B4C0DF9145
:101AB000CF911F91FF90EF900C940B061111DECF88
:101AC000CE010E94951E883021F48091F802811188
:101AD0009CC0CE010E94951E893021F48091F802AD
:101AE000811196C08091D302882309F494C0CE015D
:101AF0000E9447208823D1F06DE371E083E795E0F1
:101B00000E94B628CE010E94E71F4AE050E0BC01C7
:101B100083E795E00E947A2963E371E083E795E02B
:101B20000E94B628CE010E94FC1F0EC0CE010E946A
:101B300032208823A9F066E271E083E795E00E94F5
:101B4000B628CE010E9411204AE050E0BC0183E794
:101B500095E0DF91CF911F91FF90EF900C94802939
:101B600061E472E083E795E00E94DA28CE010E94EA
:101B7000951E40E150E0682F83E795E00E946129BF
:101B800066E472E083E795E00E94DA28CE010E94C5
:101B9000E71F4AE050E0BC0183E795E00E947A2904
:101BA0006DE472E083E795E00E94DA28CE010E949E
:101BB000881E4AE050E0682F83E795E00E94612983
:101BC00065E572E083E795E00E94DA28CE010E9485
:101BD0007D1E4AE050E0682F83E795E00E9461296E
:101BE00063E672E083E795E00E94DA286091F103F2
:101BF0007091F2034AE050E083E795E0DF91CF91E6
:101C00001F91FF90EF900C94E1290E94780261CF20
:101C10000E94060A67CFDF91CF911F91FF90EF904E
:101C200008950F9301E021E041E165E18BE293E04B
:101C30000E94BD180F9108958BE293E00C94681AEE
:101C400008950C940A2A2FE632E0FC0131832083A8
:101C500017AE16AEE05CFF4F1182108232961182F1
:101C6000108232961182108208950F931F93CF93A2
:101C7000DF93EC01C05CDF4F28813981232B09F011
:101C80003FC021E030E0398328839C012C5B3F4F2B
:101C9000F90140815181141615061CF01982188231
:101CA0002FC0DC01AE5BBF4F4D915C9111974C335F
:101CB00051051CF011961C921E928B01615F7F4FA3
:101CC0004D915C911197480F591FFA014281F8011B
:101CD00041938F014D915C9111974F5F5F4F11962A
:101CE0005C934E93F90140815181415051095183D8
:101CF00040830617170721F71982188281E001C077
:101D000080E0DF91CF911F910F910895FC01EE5B70
:101D1000FF4F20813181215F3F4F2C3331051CF46F
:101D2000318320830895118210820895EF92FF92EB
:101D30000F931F93CF93DF93FC017C0180E4E80EA7
:101D4000F11CD7018D919C911197892B99F581E018
:101D500090E08D939C9386AD97ADCC9714F017AE21
:101D600016AEDB019B01215F3F4F8F010C5B1F4FC4
:101D700086AD97AD6D91AF01480F591FEA016A8397
:101D8000019697AF86AFE801888199810196998382
:101D90008883A217B30761F7CD973CF0CF010E946B
:101DA000860E8CE390E099838883F701118210827C
:101DB00081E001C080E0DF91CF911F910F91FF90F2
:101DC000EF9008958C599F4FFC0180819181089577
:101DD000AF92BF92CF92DF92EF92FF920F931F9339
:101DE000CF93DF934D965C010E94A324C0E0D0E026
:101DF0006701E12CF12C42E06DE0C5010E94B124A5
:101E0000882351F02196C701B6010E948A26C01787
:101E1000D10788F380E001C081E0DF91CF911F916D
:101E20000F91FF90EF90DF90CF90BF90AF9008950B
:101E3000EF92FF920F931F932EE1E22EF12C04E11B
:101E400010E021E04DE050E00E94E80E1F910F915C
:101E5000FF90EF900895AF92BF92CF92DF92EF92F2
:101E6000FF920F93CF93DF935B017A016901EC013D
:101E70006D96CE010E94D125833011F080E00DC017
:101E8000202FA501B601CE010E94A8258111F6CF11
:101E9000B701CE010E94402181E0DF91CF910F91E7
:101EA000FF90EF90DF90CF90BF90AF9008950F9389
:101EB0001F93CF93DF93EC01FC01E45BFE4F108294
:101EC000E55DF1096083E15BFF4F84E090E0918381
:101ED00080838E01035E1F4F43E062E0C8010E94D1
:101EE0004A21FE01ED59FF4F408150E060E070E073
:101EF000C8010E9452250E945926C853DF4F6883AB
:101F000079838A839B83DF91CF911F910F910895ED
:101F1000FC01E35BFE4F0190F081E02D309719F05A
:101F2000BC01CD96099580E008950F931F93CF9340
:101F3000DF93EC018C01035C1F4FC8010E94951ECA
:101F4000873011F08E3511F40C940000FE01E35B34
:101F5000FE4F0190F081E02D309719F0BE01C801CD
:101F6000099580E0DF91CF911F910F910895CF9354
:101F7000DF93DB01119681E0841780F42D919FEFB0
:101F8000980FEB01C90FD11DFE013191231718F4F1
:101F900039839150F6CF20838F5FEECFDF91CF91C1
:101FA0000895FC01F596CD961192E817F907E1F72F
:101FB00008958F929F92AF92BF92CF92DF92EF924D
:101FC000FF920F931F93CF938C01FC01C5A9C2957B
:101FD000C695C770CF5F6C01FDE1CF0ED11C41E00B
:101FE00061E0C6010E944A21580185E3A80EB11C98
:101FF0004801E3E68E0E911CF401408150E060E060
:1020000070E075010C2F20E0C6010E94422581116D
:1020100002C080E010C013E0F401408150E060E0B5
:1020200070E075010C2F20E0C6010E944225882334
:1020300081F3115089F7CF911F910F91FF90EF908D
:10204000DF90CF90BF90AF909F908F9008959F9218
:10205000AF92BF92CF92DF92EF92FF920F931F93B6
:10206000CF93DF93FC01603709F47DC078F46135CC
:1020700009F488C020F4603509F484C091C0623549
:1020800009F480C0693509F47DC08AC0663B39F126
:1020900040F4643709F084C08185DF01AC59BF4F3B
:1020A00069C0623E79F16F3E09F07AC0DC01AE583A
:1020B000BF4F8C9113969C9111972C9111973C9145
:1020C00014974C9112965C9113977C9165AB76AB0B
:1020D00057AB40AF31AF22AF93AF84AF61C0DC01EB
:1020E000A059BF4F8C9111979C9111972C911A97E1
:1020F0003C9111964C9165AB46AB37AB20AF91AF9D
:1021000082AF4CC0962EEC018C010F591F4FC801B5
:102110000E94211EFC01F680C8010E94211EFC01C4
:10212000E580C8010E94211EFC01D480C8010E94E4
:10213000211EFC01C380C8010E94211EFC01B28047
:10214000C8010E94211EFC01A180C8010E94211E1D
:10215000FC0180819DAA8EABAFAAB8AEC9AEDAAE43
:10216000EBAEFCAE1DC0DC01AD58BF4F8C9191852C
:10217000891B1F979C9111962C9165AB26AB97AB51
:1021800080AF0AC0DF01AC59BF4F8C9111969C9172
:1021900065AB96AB87AB10AE11AE12AE13AE14AEFC
:1021A000DF91CF911F910F91FF90EF90DF90CF9033
:1021B000BF90AF909F900895CF93DF93EC01FC0107
:1021C000EA53FF4F85E090E09183808360E5CE0184
:1021D0000E942710CE01DF91CF910C94D90FFC0102
:1021E000DC01AC59BF4F8C9111969C912FE625AB29
:1021F00096AB87AB60AF11AE12AE13AE14AECF018B
:102200000C94D90FEF92FF920F931F93CF93DF930C
:10221000EC01FC01EA53FF4F83E090E0918380835F
:102220007E0184EBE81A8EEFF80A8E0104531F4FEB
:10223000F7014081B801CE010E94B70FF70120815C
:1022400030E0F80180E090E011E0180F821793076A
:102250002CF44191141710F00196F6CF612FCE01A6
:1022600002960E94701CFE01ED59FF4F1083749678
:1022700080818823E1F0FE01EC59FF4F808191813C
:1022800022E52DAB9EAB8FAB18AE19AE1AAE1BAECE
:102290001CAE7E01F5E3EF0EF11C412F50E060E033
:1022A00070E003E020E0CE014D960E944225DF91D0
:1022B000CF911F910F91FF90EF9008951F93CF93AF
:1022C000DF93EC01122FFC01EB58FF4F8081861742
:1022D00078F0CE0102960E94381C112339F069E58E
:1022E000CE010E942710CE010E94D90F81E009C0C3
:1022F0006F3FE1F3222321F069E0CE010E94EF104D
:1023000080E0DF91CF911F910895615020E00C94FF
:102310005E11AF92BF92CF92DF92EF92FF920F9336
:102320001F93CF93DF93EC017C012DE3E20EF11CB0
:10233000C7010E94951E182FC7010E94E71F5E016A
:10234000E4E6AE0EB11CF501C080D1808C159D0570
:1023500089F0EE59FF4F808191810297039750F4E5
:102360001D3009F464C0103109F473C0113109F053
:1023700090C27CC01D3509F402C130F5133509F453
:102380009DC078F4103109F464C020F41D3009F0C8
:1023900080C24DC0113109F469C0123409F471C012
:1023A00078C2163509F4A8C038F4143509F48BC086
:1023B000153509F494C06DC2173509F4AEC018354F
:1023C00009F067C264E71AC2153909F434C1E8F4A8
:1023D000123709F4F2C020F4113709F4DFC059C2F2
:1023E000133709F40BC1153709F053C263E0C70175
:1023F0000E94BB1EFE01ED59FF4F8083682FCE0166
:1024000002960E94701C62E5F9C1123B09F480C17A
:1024100038F4163909F43CC11C3909F454C139C2E5
:10242000123D09F4ACC1153F09F49CC132C2C1147C
:10243000D10409F42EC266EBCE010E942710B6012A
:10244000660F771F6C0D7D1D80E090E00E948A264C
:1024500057C0FE01EA53FF4F80819181059709F033
:1024600018C2CE010E94D10F6FEE47C0FE01EA53A1
:10247000FF4F80819181059711F462EE3EC063E0C9
:102480007AC18E010A531F4FF8018081918105970F
:10249000B1F7C7010E94E71FF50191838083BC015A
:1024A000CE0102960E94761C62E5CE010E942710A2
:1024B00083E090E0F8019183808322C0CA53DF4F0C
:1024C00019821882E6C1FE01EA53FF4F83E090E0D3
:1024D00091838083C758DF4F81E08883DAC1FE0192
:1024E000EA53FF4F80819181892B09F0D2C1CE013F
:1024F00002960E942C1CCDC160E7CE010E942710DD
:10250000CE01DF91CF911F910F91FF90EF90DF905F
:10251000CF90BF90AF900C94D90F0985002309F498
:10252000B8C1BD2C10E07E01F2E0EF0EF11C82EF8D
:10253000A82E101709F4ADC1612FC7010E94051B19
:10254000FC018C8D882311F06AE015C18381928192
:1025500021813081ADAABEAACFAA38AF29AF9AAFE8
:102560008BAF1CAFCE010E94D90F882331F062E6F9
:1025700071E083E795E00E94E7281F5FDACFC7018B
:102580000E94E71FF501208131818217930709F02E
:1025900080C161E0CE010E94570F7BC1C7010E943C
:1025A000CF1E182F6FEF680FCE0102960E94F41B0A
:1025B0009C8D9111C9CF97E935C0CE010E94D10FF2
:1025C000C7010E94E31E182F6FEF680FCE0102961D
:1025D0000E94051BFC019C8D992311F066E0CBC085
:1025E000838192812181308142EF4DABDEAACFAA57
:1025F00038AF29AF9AAF8BAF1CAF03C1C7010E94A0
:10260000C71E182F811107C08BE98DABDEAACFAA98
:1026100018AE88E00BC0682FCE018F599F4F0E94E3
:10262000231E9BE99DABDEAACFAA18AF89AF1AAED5
:102630001BAE1CAEE6C0C7010E94FC1F8C01C70187
:102640000E94E71F7E01F2E0EF0EF11CA801BC0121
:10265000C7010E94DE1B182FBE0164537F4FFB0190
:102660001082319610823196108231961082482F56
:10267000C7010E94331B1813B1CF612F70E020E017
:1026800040E0C7010E94BD1C882309F402C15CCF51
:10269000C7010E94CF1E0FEF080FC7010E94DA1E6C
:1026A000182F033149F4FE01ED59FF4F8083682F45
:1026B000CE0102960E94701C21E0412F602FCE01B6
:1026C0000E945E11E6C0C7010E94E31ED82EC7011A
:1026D0000E94F71E182FFE01EC58FF4F80818117D2
:1026E00008F432CF4FEF410F6FEF6D0DCE01029620
:1026F0000E94AD1C9C8D911127CFF5019081218105
:1027000035EB3DAB2EAB9FABD8AE19AF8AAF90CFB8
:10271000FE01EA53FF4F80819181892B59F5C70152
:102720000E94F71E182F682F6E01F2E0CF0ED11C09
:10273000C6010E94051B7C0140E0612FC6010E947A
:10274000AD1C9C8D91114ACFF7019381228131817B
:10275000408153ED5DAB4EAB3FAB28AF99AF1AAFA5
:102760008BAF67CFFE01EA53FF4F80819181892BA8
:1027700009F44BC062E0CE010E94EF108AC0C7018D
:102780000E94FC1FD82EC92EC7010E94E71FB82E39
:10279000A92EC7010E94F71E182FC7010E940B1F08
:1027A000082FBE0164537F4FFB01A0823196B08297
:1027B0003196C0823196D0827E01F2E0EF0EF11C9C
:1027C000412FC7010E94331B181308CF612F70E0FF
:1027D000202F40E0C7010E94BD1C182F63E772E064
:1027E00083E795E00E94DA284AE050E0612F83E712
:1027F00095E00E9468291111A7CE69E5CE010E94DB
:102800002710CE010E94D90F44C0C7010E94FC1FAF
:10281000D82EC92EC7010E94E71FB82EA92EC701C6
:102820000E94F71E182FC7010E940B1F082FC70117
:102830000E94E31EF82EBE0164537F4FFB01A0826D
:102840003196B0823196C0823196D0826E01F2E02C
:10285000CF0ED11C4FEF480FC6010E94331B682FCB
:1028600070E02F2D30E0215031096217730709F015
:10287000B5CE4FEF410F202FC6010E94BD1C90E046
:10288000212F30E0215031098217930709F05CCEE7
:10289000B4CF80E0DF91CF911F910F91FF90EF9027
:1028A000DF90CF90BF90AF900895CF92DF92EF92DC
:1028B000FF920F931F93CF93DF93EC01FC01E15A3A
:1028C000FF4F80818823A9F0359680819181892BE3
:1028D00081F07E0185E3E80EF11C3197408150E0E4
:1028E00060E070E000E020E0CE014D960E944225BD
:1028F00068C0FE01EA53FF4F80819181049709F57A
:102900006E01EDE3CE0ED11CC6010E947A1E182F77
:10291000811157C07E01F4EBEF1AFEEFFF0AF701B9
:102920000081033608F050C0C6010E94881EC00F07
:10293000D11DC453DF4F8883F70180818F5F80836F
:1029400043C0FE01ED5BFF4F808191818230910594
:1029500069F118F4019739F036C08330910581F0A0
:102960000497C9F030C0FE01E15BFE4F0190F08199
:10297000E02D309741F1BE01CE01CD96099523C0DF
:10298000CE018F599F4F0E94601E8823E1F0CE0137
:102990000E94880F18C0CE018F599F4F0E94601E61
:1029A000882389F0CE010E94950F0DC0CE01DF91E2
:1029B000CF911F910F91FF90EF90DF90CF900C94EB
:1029C000891110E001C011E0812FDF91CF911F919B
:1029D0000F91FF90EF90DF90CF900895AF92BF924C
:1029E000DF92EF92FF920F931F93CF93DF938C01AF
:1029F0007C0182E0E80EF11C60E0C7010E94F41B3C
:102A000081FBDD24D0F8E801ED96CE010E9447203D
:102A1000882319F0DD2009F44AC0CE010E9432203B
:102A2000882399F0CE010E941120009771F0AC012B
:102A300060E070E0C7010E94DE1BF801248530E0F1
:102A4000482F50E02417350784F5CE010E94472017
:102A50008823B1F0F1E0DF1213C0CE010E94FC1F09
:102A6000009771F0AC0160E070E0C7010E94DE1BCE
:102A7000F801248530E0482F50E024173507ACF4E6
:102A8000CE010E941120009711F480E026C0AC0115
:102A900060E070E0C7010E94DE1BF801248530E091
:102AA000482F50E02417350784F38F5F16C0CE01FE
:102AB0000E94FC1F5C01CE010E94E71FA501BC0122
:102AC000C7010E94DE1BF801248530E0482F50E04A
:102AD000241735070CF4A1CFE8CFDF91CF911F91D8
:102AE0000F91FF90EF90DF90BF90AF900895AF925D
:102AF000BF92CF92DF92FF920F931F93CF93DF93FA
:102B0000EC016C0188E7C80ED11CF60110825E0151
:102B1000FAEDAF1AFEEFBF0AB501CE0180589F4F04
:102B20000E94350EF82E882341F18E01035C1F4F61
:102B3000C8010E94A31EF5018081E45EF109808333
:102B4000BE01685D7E4FC8010E94981EBE01645D93
:102B50007E4FC8010E942221FE01E95DFE4F808167
:102B6000E85CF109811102C0108202C081E080831B
:102B7000CE010E94EE14F60180838F2DDF91CF915C
:102B80001F910F91FF90DF90CF90BF90AF9008956D
:102B900002960C94D81CCF93DF93EC01862FFE0194
:102BA000EE5AFE4F6083CD5ADE4F488361E00E94AB
:102BB000542761E08881DF91CF910C9454278F9244
:102BC0009F92AF92BF92EF92FF920F931F93CF937A
:102BD000DF938C010D5A1E4FF80120812F3F29F4FD
:102BE000319720812F3F09F44DC0EC010E945926F6
:102BF0007E01FAEAEF1AFEEFFF0AF701808091806A
:102C0000A280B380DC01CB0188199909AA09BB090C
:102C100084369105A105B105A8F1E059F10980813B
:102C200091810597A1F4CB5ADE4F8881813039F428
:102C300060E0F80180810E94902718821CC061E04A
:102C4000F80180810E94902781E0888314C08CA9BC
:102C5000CE5ADE4F813031F460E088810E949027A7
:102C600061E005C061E088810E94902760E0F80182
:102C700080810E9490270E945926F701608371830A
:102C800082839383DF91CF911F910F91FF90EF90FB
:102C9000BF90AF909F908F900895FC01E059FF4F37
:102CA000608102960C94931CCF93DF93EC011CAAD5
:102CB0008F599F4F0E94651ECE01DF91CF910C94DA
:102CC0004D16CF93DF93EC0102960E94871CFE0104
:102CD000EC59FF4F9183808331978E8180833D969D
:102CE00083E08083CE018F599F4F0E946F1E811118
:102CF00003C0CE010E945416CA53DF4F83E090E018
:102D000099838883DF91CF910895CF93DF93EC016E
:102D100002960E94661DCE01DF91CF910C94611640
:102D2000CF93DF93EC0181E08CABCE018F599F4FA5
:102D30000E946A1ECE01DF91CF910C944D160F9325
:102D40001F93CF93DF93EC01FC01E65AFE4F808185
:102D50008F3F09F49FC00E94BF278E01055A1E4F66
:102D6000F801892B79F48081813009F093C00E94A9
:102D70005926C853DF4F688379838A839B83F80180
:102D8000108288C08081811185C081E080830E948B
:102D90005926FE01E853FF4F0081118122813381C2
:102DA000DC01CB01801B910BA20BB30B8C019D01AD
:102DB000095E134021093109073813412105310506
:102DC000F0F48CA9FE01EA53FF4F813091F4808129
:102DD0009181059739F4CA53DF4F83E090E09983DE
:102DE000888358C0CE01DF91CF911F910F910C9431
:102DF000DC1080819181059709F04CC0ECCF8137C0
:102E00009741A105B10508F445C08CA981111BC0EB
:102E10008E010A531F4FF801808191810597D9F2E5
:102E200060E0E457FF4F80810E94902760E0CE0170
:102E30000E94570FF80180819181049799F6CE0185
:102E40000E944F17F7CF1CAA8E010F591F4FC801C0
:102E50000E94651ECE010E944D16C8010E94521E9E
:102E6000FE01EC59FF4F9E012E5F3F4F882339F042
:102E7000C658DF4F688179817183608304C01182F5
:102E8000108260E070E0C901DF91CF911F910F9136
:102E90000C94761CDF91CF911F910F910895EF92C2
:102EA000FF920F931F93CF93DF93EC010E94DF15E6
:102EB000CE010E949F16FE01EA53FF4F808191814F
:102EC0000497B9F40E945926FE01E853FF4F008190
:102ED000118122813381DC01CB01801B910BA20B7C
:102EE000B30B893E9340A105B10518F0CE010E94B5
:102EF00002117E0183EBE81A8EEFF80A8E01035C63
:102F00001F4FCE010E947715882371F0CE010E94D9
:102F100055148823B1F3D701ED91FC91309789F3D3
:102F2000BE01C8010995EDCF80E0DF91CF911F91DF
:102F30000F91FF90EF900895615002960C94F41B4E
:102F4000AF92BF92CF92DF92EF92FF920F931F93B7
:102F5000CF938C017B01C42FCB010E9432209801BA
:102F60002E5F3F4F6901882339F0C7010E9411206D
:102F7000AC0160E070E009C0C7010E94FC1F5C0169
:102F8000C7010E94E71FA501BC01C6010E94DE1B0C
:102F9000CC2319F04FEF4C0F01C040E0F801ED5881
:102FA000FF4F9081891768F4682FC601CF911F9158
:102FB0000F91FF90EF90DF90CF90BF90AF900C9467
:102FC000AD1C80E0CF911F910F91FF90EF90DF90AB
:102FD000CF90BF90AF900895DF92EF92FF920F9342
:102FE0001F93CF93DF93EC01F42EE52E662389F037
:102FF00063E18C010E5F1F4FC8010E94F41BD82EA5
:1030000063E1C8010E94F41B80E98DAB1EAADFAA10
:1030100009C0FC01EC59FF4F8081918128E92DAB5B
:103020009EAB8FABE8AEF9AE1AAE1BAE1CAECE01B6
:10303000DF91CF911F910F91FF90EF90DF900C9453
:10304000D90FDF92EF92FF920F931F93CF93DF93ED
:10305000EC01F42EE52E662389F063E18C010E5F0E
:103060001F4FC8010E94F41BD82E63E1C8010E94C3
:10307000F41B81E98DAB1EAADFAA09C0FC01EC5943
:10308000FF4F8081918129E92DAB9EAB8FABE8AEDC
:10309000F9AE1AAE1BAE1CAECE01DF91CF911F91DF
:1030A0000F91FF90EF90DF900C94D90F2F923F92E9
:1030B0004F925F926F927F928F929F92AF92BF9248
:1030C000CF92DF92EF92FF920F931F93CF93DF93F4
:1030D0001F92CDB7DEB77C01198210E02C0184EC81
:1030E000481A8EEF580A570190ECA91A9EEFB90AB8
:1030F0006701E6ECCE1AEEEFDE0A4701FDE18F0E26
:10310000911CC701855C9E4F1C01370190E8690E38
:10311000711C012F9E012F5F3F4FA201B501C70116
:103120000E942B0F882391F08981F6018083C401CE
:103130000E945821811103C0F101108203C081E077
:10314000F1018083B601C3010E94960E1F5F123009
:1031500001F70F90DF91CF911F910F91FF90EF90AA
:10316000DF90CF90BF90AF909F908F907F906F90A7
:103170005F904F903F902F9008952F923F924F92E3
:103180005F926F927F928F929F92AF92BF92CF92F7
:10319000DF92EF92FF920F931F93CF93DF93CDB700
:1031A000DEB7C654D1090FB6F894DEBF0FBECDBF4F
:1031B0007C01362E242E122F2FE732E0FC012193C2
:1031C0003193CF010E94A71A3701FDE16F0E711CE8
:1031D000C3010E94A22457018DE3A80EB11CC501B2
:1031E0000E94B41E6701E1E6CE0ED11CC6010E940A
:1031F000FC1D4701F0E88F0E911CC4010E94230EB4
:10320000270186E7480E511CF2011082EA52FF4F57
:103210001082CE0101960E94A22487E1FE01319620
:10322000D30101900D928A95E1F7CE0101960E949B
:10323000230EF4013296DE011396C70182549F4F8C
:103240002D9121938E179F07D9F721968EAD9FADB3
:103250002197F40197AF86AF23968EAD9FAD23974C
:10326000F701E054FF4F9183808325968EAD9FAD8B
:10327000259732969183808327968EAD9FAD2797B1
:10328000329691838083CE0101960E94200E212FD9
:10329000422D632DCE0101960E94901D8B819C8151
:1032A000F701958384838D8186838E8187838F81C7
:1032B000808788858187898582878A8583878B85B2
:1032C00084878C8585878D8586878E859F85908B65
:1032D00087878889818B8989828B8A89838B8B896F
:1032E000848B8C89858B8D89868B8E899F89908F25
:1032F000878B888D818F898D828F8A8D838F8B8D2F
:10330000848FCE0101960E948D1ACE0101960E94F3
:10331000FC1D8B81F60182838C819D819483838344
:103320003596DE011696C70182599F4F2D91219344
:103330008E179F07D9F78E85F60185878F8586873B
:10334000888987878989808B8A89818B8B89828B01
:103350008C89838B8D89848BCE0101960E94F91D07
:10336000F701ED58FF4F208232963082319710835B
:10337000CE0101960E94B41E8B81F70187AF8C812C
:10338000E05CFF4F80838D81319680838E81319602
:1033900080838F81988531969183808389859A85F2
:1033A0003296918380838B859C853296918380832E
:1033B0008D859E853296918380838F8598893296FC
:1033C0009183808389899A893296918380838B89BE
:1033D00032968083F5017396DE015496C701885AB0
:1033E0009F4F2D912193E817F907D9F78C8D808392
:1033F000F701E75AFF4F8D8D808331968E8D808344
:1034000031968F8D8083319688A18083319689A1F2
:103410009AA19183808332968BA1808331968CA16F
:103420008083CE0101960E94771EF2018081816027
:103430008083F701E958FF4F1082E552FF4F0FEFED
:10344000008331960083319611E01083319610820B
:103450000E945926F701EA5AFE4F608371838283E6
:1034600093833997118210823F9611821082E45E15
:10347000F109108231961083EF51FF4F008331968E
:103480001083E15EF10985EC90E0A0E0B0E080837C
:103490009183A283B383C7010E948516CA5BDF4F65
:1034A0000FB6F894DEBF0FBECDBFDF91CF911F9155
:1034B0000F91FF90EF90DF90CF90BF90AF909F90D3
:1034C0008F907F906F905F904F903F902F900895D6
:1034D000CF93DF93EC018FE792E099838883CE014D
:1034E00080589F4F0E94200ECE018F599F4F0E94FF
:1034F000F91DCE01CD960E94771ECE010296DF9176
:10350000CF910C948D1ACF93DF93EC010E94681A2F
:10351000CE01DF91CF910C940A2A27E832E0FC011A
:103520003183208382819381009711F00C940C2ABF
:103530000895CF93DF93EC010E948D1ACE01DF91A5
:10354000CF910C940A2A0C943E2C0C94462C27E81C
:1035500032E0FC01318320830895FC0180E090E09B
:10356000238530E0821793073CF4A281B381A80F32
:10357000B91F1C920196F4CF81E68483158285ECF5
:1035800086831782148A0895EF92FF920F931F93F8
:10359000CF93DF93FC01108A118A128A138A128E4C
:1035A00082859F01205F3F4F7901861718F0878140
:1035B000861718F481E0828F20C0EF01838590E0A8
:1035C0000496689F8001699F100D1124858596855A
:1035D000080F191FC8010E94A31A888BC801019601
:1035E0000E94A31A898BC80102960E94A31A8A8B93
:1035F000C80103960E94A31A8B8BC701DF91CF915C
:103600001F910F91FF90EF900895FC01108A118A8D
:10361000128A138A128E22854096261718F0278167
:10362000261718F421E0228F089570E0DB01AA0F1D
:10363000BB1FAF51BB4F2C91208BDB01AA0FBB1FCF
:10364000AD5FBA4F2C91218BDB01AA0FBB1FAB5D85
:10365000BA4F2C91228B660F771FDB01A95BBA4F03
:103660002C91238B0895CF92DF92EF92FF921F93BC
:10367000CF93DF93FC011285411718F081E0810F91
:103680004DC0142FFB01DC01842F90E0EC01CC0F26
:10369000DD1FCF51DB4F208130E039832883EC01DF
:1036A000CC0FDD1FCD5FDA4F218130E039832883D5
:1036B000EC01CC0FDD1FCB5DDA4F228130E0398386
:1036C0002883EC01CC0FDD1FC95BDA4F238130E08A
:1036D000398328831B962C911B9730E02C5F3F4F3A
:1036E000289F7001299FF00C389FF00C11241D9623
:1036F0008D919C911E97E80EF91E6B0184E0C80E17
:10370000D11CEB01E61AF70AC7018C0F9D1F6991C6
:103710000E94A51ACC15DD05B9F7812FDF91CF9155
:103720001F91FF90EF90DF90CF900895AF92BF92DE
:10373000CF92DF92EF92FF920F931F93CF93DF937D
:10374000EC018F81A1EEB4E0E5E2F5E090E0E62E39
:10375000F12CC42ED12C30E010E09817F9F0611153
:1037600002C0442369F0AD90BC901197EA14FB04A9
:1037700089F49296AD90BC909397CA14DB0451F4EF
:10378000A080B1802A153B0529F4A2A0B3A00A1598
:103790001B0541F09F5F12963296DFCF9A8581E03C
:1037A000890F01C0892FDF91CF911F910F91FF9059
:1037B000EF90DF90CF90BF90AF9008950F93252F9B
:1037C000042F462F672F0E94961B0F910895FC012E
:1037D000128E8185681728F4862F90E049960C9404
:1037E000A31A8FEF828F0895FC01128E81856817CE
:1037F00018F08FEF828F0895E62FF0E0EE0FFF1F95
:10380000E954FB4F80810895CF93DF93EC0167E586
:1038100080E090E00E94A51A6C8182E190E00E9415
:10382000A51A6D8183E190E00E94A51A6E8184E162
:1038300090E00E94A51A6C8985E190E00E94A51A8B
:103840006F8187E190E00E94A51A6B8588E190E086
:10385000DF91CF910C94A51ACF93DF93EC0160E038
:1038600087E190E00E94A51A1F82DF91CF91089511
:103870001F93CF93DF93FC0181858617F8F0142FF7
:10388000C62FD0E0FE01EE0FFF1FE954FB4F842F3F
:1038900090E0918380836996CE010E94A31A181745
:1038A00069F065E771E083E795E00E94E728612F02
:1038B000CE01DF91CF911F910C94A51ADF91CF918A
:1038C0001F910895FC018185861748F0E62FF0E0EE
:1038D000EE0FFF1FE954FB4F50E0518340830895E2
:1038E000FC01648382E190E00C94A51ACF93DF93EE
:1038F000EC017D836E83672F83E190E00E94A51A1F
:103900006E8184E190E0DF91CF910C94A51ACF9362
:10391000DF93EC016E818D810E94F3299E8B8D8B4C
:10392000DF91CF910895FC01648B85E190E00C94C8
:10393000A51AFC01238530E02C5F3F4F629FD00128
:10394000639FB00D1124858596858A0F9B1F50E0DB
:103950004C5F5F4F840F951F0895FC01128E878185
:10396000681740F48385481728F4CF010E94991CFA
:103970000C94A31A8FEF828F0895CF93DF93DC010D
:103980001796EC91F0E06E177F0718F081E0840F36
:103990000CC0FC0133854317C8F7D22FC42F0E94F7
:1039A000991C6D2F0E94A51A8C2FDF91CF9108953D
:1039B000EF92FF920F931F93CF93DF9300D000D02D
:1039C000CDB7DEB78C010E94AD1AF80182858783DE
:1039D00019821A828AE38B838CEF8C83E12CF12C81
:1039E000F8014285842F90E00197E816F906CCF49F
:1039F0004E2DBE016F5F7F4FC8010E94331B8C812B
:103A00008F5F8C83811103C08B818F5F8B8320E05C
:103A100040E0B701C8010E94BD1CFFEFEF1AFF0A8A
:103A2000DFCF19821A8282E18B8387E68C83415033
:103A3000BE016F5F7F4FC8010E94331BF801628592
:103A400070E06150710920E040E0C8010E94BD1C97
:103A500046E060E0C8010E94381CFF24F39442E075
:103A60006F2DC8010E94381CF394F9E0FF12F7CFC4
:103A700041E06F2DC8010E94381CF39481E1F812D7
:103A8000F7CF40E061E1C8010E94381C40E062E1EC
:103A9000C8010E94381C41E663E1C8010E94381C3D
:103AA00042E064E1C8010E94381CC8010E94041C65
:103AB000C8010E94661D0F900F900F900F90DF912C
:103AC000CF911F910F91FF90EF900895CF93DF93C7
:103AD000EC010E94AD1A80E090E00E94A31A8735A5
:103AE00019F0CE010E94D81C82E190E00E94A31A36
:103AF0008C8383E190E00E94A31A8D8384E190E09F
:103B00000E94A31A8E8385E190E00E94A31A8C8BF9
:103B100087E190E00E94A31A8F83DF91CF910895EF
:103B2000CF92DF92EF92FF920F931F93CF93DF9389
:103B3000EC0187E892E09983888369874A872B871D
:103B40000C87675E6F8770E0600F711D600F711DDD
:103B50007E876D87822F90E00E94082A9B838A834C
:103B6000CE010E94AD1ACE010E94661D27EBE22E07
:103B700024E0F22E10E0612FCE010E94E71B90E0BE
:103B8000D7018D939D937D011F5F1531A1F781EEC4
:103B9000C82E84E0D82E95E2E92E95E0F92E10E0AB
:103BA000612FCE010E94C41AFC01808190E0D601F1
:103BB0008D939D936D01818190E091969C938E935E
:103BC0009097828190E0D7018D939D937D018381B1
:103BD00090E091969C938E9390971F5F113101F71F
:103BE000DF91CF911F910F91FF90EF90DF90CF90D9
:103BF000089508950C940A2A2FE832E0FC013183DD
:103C0000208335960D9620E32193E817F907E1F715
:103C100008954830510514F048E050E0FC01359615
:103C20000D96DF011D92A817B907E1F7DB01CD0161
:103C3000861B970B841795071CF48D918193F7CF02
:103C4000089505960895DC01462F50E0FA0131975A
:103C5000E830F105E0F4E65AFF4F0C94082B1D966E
:103C60008C91089550968C9108951E968C9108958C
:103C700052968C91089553968C91089554968C91F8
:103C8000089551968C9108951F968C91089580E027
:103C90000895FC019785662311F0926001C09D7F15
:103CA00097870895FC018785869581700895FC01AA
:103CB0009785662311F0916001C09E7F97870895D4
:103CC000FC018785809581700895FC0197859B7F15
:103CD00097870895FC019785946097870895FC0164
:103CE000878582FB882780F991E0892708950895C8
:103CF0000C940A2AFC0185810895FC01238930E097
:103D000085E0359527958A95E1F72483822F0895DC
:103D1000FC01238D80E1289F90011124848D8295E0
:103D200086958770822B82830895FC018381089594
:103D3000FC017B964F96DB012D91BD012193E81785
:103D4000F907C9F70895FC01DC0153964B961D92C3
:103D5000A817B907E1F7138E148E158E168E178EDD
:103D600011A210A212A2089527E932E0FC013183CA
:103D700020830C94A31EFC01683038F483818823CF
:103D800029F0E60FF11D8389089580E00895FC0174
:103D90002381233711F48689089580E00895FC017A
:103DA0009381913719F09659923010F486890895CD
:103DB00080E00895FC0193819659923010F4878930
:103DC000089580E00895FC019381923721F09C3999
:103DD00011F0953B11F486890895953F11F4808D7B
:103DE0000895923F11F4828D089580E00895FC01BA
:103DF00093819C3911F0953B11F487890895923B8A
:103E000011F0923D11F4808D0895953F11F4818D4C
:103E1000089580E00895FC018381853B11F4808D35
:103E200008959EE2980F923010F4818D0895853F99
:103E300011F4828D089580E008954230510509F40F
:103E40005EC040F44115510581F04130510509F43F
:103E500070C0B7C04430510509F4A1C008F487C050
:103E60004530510509F4A2C0ACC0623409F4ACC0BD
:103E700080EB860F8B3008F4A7C084EA860F82306F
:103E800008F4A2C081E9860F873008F49DC080E75E
:103E9000860F8F3008F498C080E5860F873008F4CD
:103EA00093C088E4860F823008F48EC083E4860FC6
:103EB000823008F489C080E3860F863008F484C01D
:103EC00088E2860F823008F47FC083E2860F82305A
:103ED00008F47AC0633E09F477C080E1860F82302F
:103EE00008F472C08DE0860F873008F46DC081E061
:103EF0006D3F09F468C06E3F09F063C067C0862F4C
:103F00008F7B8059863008F45FC080E5860F85304E
:103F100008F45AC080E1860F823008F455C08DE065
:103F2000860F823008F450C081E0653F09F049C037
:103F30004DC06B3509F448C088E6860F833008F41D
:103F400043C0862F8F7D8D598230F0F188E4860F33
:103F50008230D0F188E2860F8230B0F183E2860FA2
:103F6000823090F188E0860F843008F62DC08FED06
:103F7000860F833048F18CEB860F873028F16C3444
:103F800019F1603609F16038F9F08EE7860F843058
:103F9000D8F0623AC9F081E0613E99F417C060340C
:103FA00099F0613689F0613CB1F70EC0603861F07C
:103FB0008EE7860F843040F081E0623A39F0613C50
:103FC00029F080E00895089581E008950895CF9341
:103FD000DF93EC0140E050E06B890E941D1F8823B5
:103FE00031F08C899D8998278927982702C080E025
:103FF00090E0DF91CF910895CF93DF93EC0142E001
:1040000050E06B810E941D1F882331F08E899F89AB
:1040100098278927982702C080E090E0DF91CF9110
:1040200008951F93CF93DF93EC011B8141E050E093
:10403000612F0E941D1F882379F086E0810F823056
:1040400010F01B3519F48C899D8902C08E899F89D7
:1040500098278927982702C080E090E0DF91CF91D0
:104060001F910895FC019381892F8F7D885982309B
:1040700058F088E2890F823038F081E0983F31F0C3
:10408000993F21F080E0089581E008950895FC01B2
:104090009381892F8F7D8059823058F080E3890F7A
:1040A000823038F081E0903F31F0913F21F080E0A4
:1040B000089581E008950895643008F4B4C067302D
:1040C00009F4B1C0962F9F7B9F3309F4ACC082EAFC
:1040D000860F823008F4A7C0862F8F7D8F3909F4B0
:1040E000A2C0663B09F49FC06F3D09F49CC02CEF51
:1040F000260F233008F49AC028EF260F233008F447
:1041000095C02FED260F233008F490C0603409F4D9
:104110008DC02CEB260F273008F488C06C3409F4CE
:1041200085C0262F2F7730EA320F323008F47EC058
:10413000233609F47BC0803809F478C02EE7260FB7
:10414000243008F473C0623A09F470C020E4260FEA
:10415000223008F46BC026EA260F223008F469C02A
:1041600020E7260F253008F464C028E6260F233008
:1041700008F45FC08D59823008F45BC0862F877FBA
:10418000805B823008F455C08DE4890F823008F4DA
:1041900050C081E3860F833008F44BC08CE2860F59
:1041A000823008F446C088E2860F823008F441C0AD
:1041B00083E2860F8230E8F180E1860F8230C8F119
:1041C0008AE0860F8630A8F183E0860F833088F17D
:1041D00084EF860F823080F180EF860F823060F1AD
:1041E000623451F180EB860F8A3030F184EA860F19
:1041F000823010F181E9860F8730F0F08BE6860F70
:104200008330D0F085E6860F8230B0F0923BA1F08B
:10421000953B91F08EE2860F823070F0623E61F045
:104220006F3E69F409C084E090E0089581E090E079
:10423000089583E090E0089582E090E0089580E0A2
:1042400090E00895CF93DF93EC01FC0173964B96B9
:10425000DB012D91BD012193E817F907C9F76B899F
:104260006B83CE010E945C209F838E83DF91CF9170
:1042700008958EBD00000DB407FEFDCF8EB50895E4
:10428000DC015196FB0145962D912193A817B907A2
:10429000D9F70895FC01633010F4658B02C082E009
:1042A000858B443010F4468B089582E0868B089508
:1042B000FC0186850895CF93DF93EC0160E0888947
:1042C0000E94902780EC0E94392161E088890E9439
:1042D00090276AE070E080E090E0DF91CF910C944D
:1042E0008A261F93CF93DF93EC01162F60E0888915
:1042F0000E94902783E00E943921812F0E9439215A
:1043000080E00E943921182F61E088890E9490275F
:10431000812FDF91CF911F910895DF92EF92FF924D
:104320000F931F93CF93DF937C01162FD42EC52FAD
:10433000D22F60E0FC0180890E94902783E00E94D8
:104340003921812F0E9439210D2D1C2FC0E0CD175E
:1043500051F0C83041F080E00E943921F80181938A
:104360008F01CF5FF4CF61E0F7018089DF91CF91BA
:104370001F910F91FF90EF90DF900C9490270F9377
:104380001F93CF93DF93EC01062F142F60E08889F1
:104390000E94902782E00E943921802F0E943921BB
:1043A000812F0E94392161E08889DF91CF911F918F
:1043B0000F910C949027DF92EF92FF920F931F932F
:1043C000CF93DF938C01C62FD42EE52EF22E60E022
:1043D000FC0180890E94902782E00E9439218C2F65
:1043E0000E943921CD2DDE2DCE018F0D911D7C0136
:1043F000CE15DF0521F089910E943921F9CF61E0C6
:10440000F8018089DF91CF911F910F91FF90EF907C
:10441000DF900C949027FF920F931F93CF93DF931D
:10442000EC01F62E042F122F60E088890E9490275D
:1044300085E00E9439218F2D0E943921802F0E9412
:104440003921812F0E94392161E08889DF91CF9144
:104450001F910F91FF900C9490271F93CF93DF93A0
:10446000EC0160E088890E94902780EA0E9439214F
:1044700080E00E943921182F61E088890E949027EE
:10448000812FDF91CF911F9108950F931F93CF93A9
:104490008C01C62F262F40EE6FE00E940B226FE0AA
:1044A000C8010E947121982F907E81E09C1301C069
:1044B00080E0CF911F910F9108950F931F93CF9399
:1044C000DF93413019F0423079F161C0462F50E05E
:1044D000FA013197E231F10508F059C0EE59FF4F6A
:1044E0000C94082BC7E8DFEF5EC0C5E8D1EF57C0DA
:1044F000C7E8DFEF2CC0C7E8DAEF29C0C7E8DFEF75
:104500002DC0C7E8DAEF2AC0C6E8D0EF27C0C7E859
:10451000DAEF2BC0C5E8D1EF41E446C0C6E8D0EFE2
:104520002BC0C2E8D0ED28C0462F50E0FA013197E9
:10453000E231F10560F5EC58FF4F0C94082BC7E011
:10454000DFEB2DC0C7E0DFEB02C0C4E0D4EA47E0F8
:104550002BC0C7E0DFEB02C0C6E0D4EB43E024C0D1
:10456000C7E0DFEB02C0C6E0D4EB41E01DC0C5E010
:10457000D1EBFBCFC6E0D4EB40E016C0C5E0D1EBF9
:10458000FBCFC2E0D0E9F8CFC0E0D0E8F5CF81E0C2
:104590001AC0C7E8DFEF4FE307C0C7E8DFEF4FE01F
:1045A00003C0C7E0DFEB4FE18C016AE20E94BF214C
:1045B0004D2F69E2C8010E94BF214C2F68E2C8015B
:1045C0000E94BF2180E0DF91CF911F910F9108954C
:1045D0000F931F93CF938C01C0E340E06C2FC80171
:1045E0000E94BF2160E16C0F40E0C8010E94BF2122
:1045F00060E26C0F40E0C8010E94BF21CF5FCE3364
:1046000061F740E060E6C8010E94BF2140E060E73A
:10461000C801CF911F910F910C94BF21FF920F936E
:104620001F93CF93DF93EC01062FF42E0E945B21A2
:1046300060E8CE010E944522182F6AE070E080E019
:1046400090E011110DC00E948A264F2D602FCE01DF
:104650000E945D22882339F06AE070E080E090E0FB
:104660000E948A2628C06AE070E080E090E00E9404
:104670008A26CE010E94E82243E06BE2CE010E942E
:10468000BF2124E044E660E6CE010E940B2220E038
:1046900040E660E7CE010E940B2260E0CE010E945E
:1046A0004522C82F8823C1F26AE070E080E090E0E4
:1046B0000E948A261C2F812FDF91CF911F910F918D
:1046C000FF9008950F931F93CF93DF9300D000D0F6
:1046D000CDB7DEB74130B1F40C831B8389012227AB
:1046E0003327502F5C71402F437078E0579F400D67
:1046F000112448604A8355E0169507955A95E1F7CD
:1047000009830DC0A80123E0569547952A95E1F746
:1047100049830295000F007E0A831C821B8224E0DD
:10472000AE014F5F5F4F0E94DB210F900F900F9003
:104730000F90DF91CF911F910F910895EF92FF920B
:104740000F931F93CF93DF9300D000D0CDB7DEB788
:104750007A018901FA011082F90110821182128214
:10476000138224E0AE014F5F5F4F0E948D212A81AA
:104770003981822F90E065E0959587956A95E1F7FC
:10478000F8E03F9F800D911D1124092E000CAA0B0B
:10479000BB0BF80180839183A283B38323FF25C0E1
:1047A00032E0880F991FAA1FBB1F3A95D1F72370DB
:1047B000820F911DA11DB11DBA2FA92F982F8827F7
:1047C0002B81820F911DA11DB11DBA2FA92F982FEA
:1047D00088272C81820F911DA11DB11D808391839B
:1047E000A283B38381E0F70180830F900F900F9035
:1047F0000F90DF91CF911F910F91FF90EF9008954F
:10480000FF920F931F93CF93DF93EC01F62EAC0131
:104810004A5F5F4F65E06F0D2D810E94DB218E8521
:10482000813019F48D8180648D8364E06F0D4D813A
:10483000CE010E94BF2109811A812B813C814881D0
:104840006F2DCE010E946223DF91CF911F910F91B6
:10485000FF9008950F931F93CF93DF93EC01162FD2
:104860009C012F5F3F4FAC010E949E236FEF610FB1
:10487000CE010E947121082F64E0610FCE010E94D9
:1048800071218D8303FF03C091E09E8701C01E86C6
:10489000282F2F702D83AE014A5F5F4F65E0610FB7
:1048A000CE01DF91CF911F910F910C948D2161501A
:1048B00028E048E00C940B228F929F92AF92BF9217
:1048C000CF92DF92EF92FF921F93CF93DF9300D0AE
:1048D0001F92CDB7DEB74C016B018091160190910C
:1048E0001701A091180189839A83AB83FB01108281
:1048F000CE0101967C015E0194E0A90EB11CF70186
:1049000011917F01612FC4010E947121982F98702D
:1049100083FD04C01F5FF601108304C0EA14FB048A
:1049200071F792E0892F0F900F900F90DF91CF9148
:104930001F91FF90EF90DF90CF90BF90AF909F902E
:104940008F9008950895CF93DF93EC01862F688BA5
:1049500061E00E94542761E08889DF91CF910C9437
:1049600090270F931F93CF93DF93EC01162F042F03
:104970000E94D925402F612FCE010E940E2391E085
:10498000811101C090E0892FDF91CF911F910F918C
:104990000895EF92FF920F931F93FC0120834183B0
:1049A000528363837483093008F008E00583168618
:1049B0003696D70110E0CD018E199F098017910717
:1049C0001CF48D918193F7CF80E01F910F91FF90A0
:1049D000EF900895FC0111821282138214821582D5
:1049E00010821686178680E00895EF92FF920F934B
:1049F0001F93CF93DF931F92CDB7DEB78C01E12CCD
:104A0000F12CBE016F5F7F4FC8010E945C249FEFB5
:104A1000E91AF90A823029F482E3E816F10489F7E9
:104A200026C092E3E916F10411F16981C8010E94E0
:104A300000246981C8010E945724E12CF12C8FEFDA
:104A4000E81AF80A69816150C8010E94712183FF48
:104A500005C092E3E916F10491F70BC082E3E81672
:104A6000F10439F0C8010E94EA2480E003C086E026
:104A700001C087E00F90DF91CF911F910F91FF90C0
:104A8000EF900895EF92FF920F93CF93DF93EC0195
:104A90000E94C924CE01DF91CF910F91FF90EF903A
:104AA0000C94F524CF92DF92EF92FF920F93CF9365
:104AB000DF93CDB7DEB728970FB6F894DEBF0FBEF1
:104AC000CDBF6C01FE013196CE0109967F01119296
:104AD000E817F907E1F781E0F601868700E020E0BA
:104AE000C6010E944225F601168628960FB6F89454
:104AF000DEBF0FBECDBFDF91CF910F91FF90EF9042
:104B0000DF90CF9008951F93CF93DF93EC01162F82
:104B10000E942D22111109C080FF15C061E6CE014F
:104B20000E942A2420E041E008C081FF0CC061E718
:104B3000CE010E942A2420E042E06CE2CE010E94D5
:104B40000B2280E001C084E0DF91CF911F91089596
:104B5000EF92FF920F931F93CF93DF93EC018B01A2
:104B60007A01622F0E948325811111C09D81F80175
:104B70009083DE011696F7012D8130E0AF014E19CA
:104B80005F094217530734F49D919193F5CFF801D3
:104B9000108284E0DF91CF911F910F91FF90EF90F1
:104BA00008950E942D22837011F484E0089583E01B
:104BB0000895CF93CFB7F89480916905811127C0EC
:104BC000E9ECF1E08491EEEAF1E09491E82FF0E075
:104BD000EE0FFF1FEE50FE4FA591B491EC91E9232B
:104BE00021F461E08AE00E94902761E08AE00E945F
:104BF00054278CB580618CBD8CB580648CBD61E020
:104C00008DE00E94542761E08BE00E945427809140
:104C100069058F5F80936905CFBFCF9108951F927B
:104C20000F920FB60F9211242F933F938F939F9360
:104C3000AF93BF9380916B0590916C05A0916D052A
:104C4000B0916E0530916A0523E0230F2D3720F4D3
:104C50000196A11DB11D05C026E8230F0296A11DD6
:104C6000B11D20936A0580936B0590936C05A0930A
:104C70006D05B0936E0580916F0590917005A091C0
:104C80007105B09172050196A11DB11D80936F054C
:104C900090937005A0937105B0937205BF91AF9189
:104CA0009F918F913F912F910F900FBE0F901F906A
:104CB00018952FB7F89460916B0570916C058091F1
:104CC0006D0590916E052FBF08953FB7F8948091C0
:104CD0006F0590917005A0917105B091720526B590
:104CE000A89B05C02F3F19F00196A11DB11D3FBF24
:104CF000BA2FA92F982F8827820F911DA11DB11DB2
:104D0000BC01CD0142E0660F771F881F991F4A95AD
:104D1000D1F708958F929F92AF92BF92CF92DF9278
:104D2000EF92FF926B017C010E9465264B015C01B2
:104D3000C114D104E104F10401F10E940E2A0E9481
:104D40006526DC01CB0188199909AA09BB09883EAF
:104D50009340A105B10560F321E0C21AD108E10832
:104D6000F10888EE880E83E0981EA11CB11CC114C6
:104D7000D104E104F10419F7DBCFFF90EF90DF904D
:104D8000CF90BF90AF909F908F900895789484B506
:104D9000826084BD84B5816084BD85B5826085BD37
:104DA00085B5816085BDEEE6F0E08081816080831D
:104DB000E1E8F0E010828081826080838081816000
:104DC0008083E0E8F0E0808181608083E1EBF0E0C7
:104DD000808184608083E0EBF0E08081816080836B
:104DE000E1E9F0E08081826080838081816080835E
:104DF000E0E9F0E0808181608083E1EAF0E0808199
:104E000082608083808181608083E0EAF0E080813D
:104E100081608083EAE7F0E0808184608083808124
:104E200082608083808181608083808180688083CC
:104E30001092C100089590E0FC013297ED30F10529
:104E400090F5EA57FF4F0C94082B809180008F77E4
:104E500003C0809180008F7D80938000089584B589
:104E60008F7702C084B58F7D84BD08958091B00096
:104E70008F7703C08091B0008F7D8093B00008953C
:104E8000809190008F7703C0809190008F7D8093F8
:104E9000900008958091A0008F7703C08091A000BA
:104EA0008F7D8093A0000895CF93DF9390E0FC0165
:104EB000EC55FE4F2491FC01E154FE4F8491882370
:104EC00061F190E0880F991FFC01EE50FE4FC591F3
:104ED000D491FC01EA51FE4FA591B491611109C032
:104EE0009FB7F8948881209582238883EC912E23A4
:104EF0000BC0623061F49FB7F8948881322F3095EF
:104F000083238883EC912E2B2C939FBF06C08FB7F1
:104F1000F894E8812E2B28838FBFDF91CF910895DD
:104F20001F93CF93DF93282F30E0F901E757FE4F0F
:104F30008491F901EC55FE4FD491F901E154FE4FF3
:104F4000C491CC23C1F0162F81110E941B27EC2F96
:104F5000F0E0EE0FFF1FEA51FE4FA591B4919FB70D
:104F6000F894111104C08C91D095D82302C0EC9113
:104F7000DE2BDC939FBFDF91CF911F910895CF93DC
:104F8000DF93282F30E0F901E757FE4F8491F901B4
:104F9000EC55FE4FD491F901E154FE4FC491CC235E
:104FA00091F081110E941B27EC2FF0E0EE0FFF1F04
:104FB000E652FE4FA591B491EC91ED2381E090E093
:104FC00021F480E002C080E090E0DF91CF9108956D
:104FD0001F920F920FB60F9211242F938F939F93CE
:104FE000EF93FF93E0918305F09184058081E09138
:104FF0008905F0918A0582FD12C0908180918C050F
:105000008F5F8F7320918D05821751F0E0918C0591
:10501000F0E0ED58FA4F958F80938C0501C08081A8
:10502000FF91EF919F918F912F910F900FBE0F9055
:105030001F9018951F920F920FB60F9211242F9365
:105040003F934F935F936F937F938F939F93AF9310
:10505000BF93EF93FF9383E795E00E945C2AFF9153
:10506000EF91BF91AF919F918F917F916F915F91E0
:105070004F913F912F910F900FBE0F901F90189559
:1050800083E795E00E940F2A21E0892B09F420E0B4
:10509000822F0895E3E7F5E01382128288EE93E011
:1050A000A0E0B0E084839583A683B7838EEA92E084
:1050B0009183808385EC90E09587848784EC90E0F1
:1050C0009787868780EC90E0918B808B81EC90E0D5
:1050D000938B828B82EC90E0958B848B86EC90E0B6
:1050E000978B868B118E128E138E148E0895CF920D
:1050F000DF92EF92FF920F931F93CF93DF936C0198
:105100007A018B01C0E0D0E0CE15DF0581F0D80137
:105110006D918D01D601ED91FC910190F081E02D12
:10512000C6010995892B11F02196EECF7E01C701AA
:10513000DF91CF911F910F91FF90EF90DF90CF9073
:1051400008956115710579F0FB0101900020E9F7E0
:105150003197AF01461B570BDC01ED91FC910280AA
:10516000F381E02D099480E090E00895EF92FF92A2
:105170000F931F93CF93DF938C017B01C0E0D0E0AE
:10518000F701EC0FFD1F6491662361F0D801ED91EA
:10519000FC910190F081E02DC8010995892B11F057
:1051A0002196EECFCE01DF91CF911F910F91FF900D
:1051B000EF9008950C94A128DC01ED91FC910190F1
:1051C000F081E02D09946BE972E00C94A1280F9313
:1051D0001F93CF93DF93EC010E94B6288C01CE0180
:1051E0000E94E328800F911FDF91CF911F910F91B3
:1051F00008950F931F93CF93DF93EC010E94A12892
:105200008C01CE010E94E328800F911FDF91CF9186
:105210001F910F9108958F929F92AF92BF92EF923C
:10522000FF920F931F93CF93DF93CDB7DEB7A19774
:105230000FB6F894DEBF0FBECDBF7C01FA01CB01E3
:1052400019A2223008F42AE08E010F5D1F4F822E32
:10525000912CA12CB12CBF01A50194010E94E62A3A
:10526000F901CA01015011096A3014F4605D01C0EE
:10527000695CD8016C93232B242B252B61F7B80193
:10528000C7010E94A128A1960FB6F894DEBF0FBEF9
:10529000CDBFDF91CF911F910F91FF90EF90BF9005
:1052A000AF909F908F9008952115310541F4DC0156
:1052B000ED91FC910190F081E02D642F09940C9404
:1052C0000B299A01462F50E060E070E00C945429BD
:1052D0000F931F93CF93DF93EC010E9461298C0100
:1052E000CE010E94E328800F911FDF91CF911F9183
:1052F0000F9108959A01AB0160E070E00C9454297D
:105300000F931F93CF93DF93EC010E947A298C01B6
:10531000CE010E94E328800F911FDF91CF911F9152
:105320000F910895CF92DF92EF92FF920F931F9308
:10533000CF93DF932115310581F4DC01ED91FC91D0
:105340000190F081E02D642FDF91CF911F910F919B
:10535000FF90EF90DF90CF9009942A30310501F54E
:1053600077FF1DC06A017B01EC016DE20E94DC2821
:105370008C0144275527BA014C195D096E097F0934
:105380002AE0CE010E940B29800F911FDF91CF915F
:105390001F910F91FF90EF90DF90CF9008952AE03A
:1053A000DF91CF911F910F91FF90EF90DF90CF9001
:1053B0000C940B299A01AB01770F660B770B0C94B9
:1053C00092290F931F93CF93DF93EC010E94DA2968
:1053D0008C01CE010E94E328800F911FDF91CF91B5
:1053E0001F910F91089570E09B01382BC90108951A
:1053F00008950E94C6260E94F8290E94800ACDE3E3
:10540000DAE20E949F062097E1F30E943D2AF9CF3D
:105410000C941D2B0C94B52B0C94B52B0895FC010A
:10542000918D228D892F90E0805C9F4F821B910986
:105430008F7399270895FC01918D828D981731F013
:10544000828DE80FF11D858D90E008958FEF9FEF1D
:105450000895FC01918D828D981761F0828DDF0196
:10546000A80FB11D5D968C91928D9F5F9F73928F57
:1054700090E008958FEF9FEF089580E498E2892BE4
:1054800041F080E090E0892B21F00E9440288111BA
:105490000DC080E090E0892B71F080E090E0892BD6
:1054A00051F00E940000811104C008950E94000084
:1054B000F0CF0C9400000895FC01848DDF01A80F4B
:1054C000B11DA35ABF4F2C91848D90E001968F732C
:1054D0009927848FA689B7892C93A089B1898C914B
:1054E00080648C93938D848D981306C00288F38911
:1054F000E02D80818F7D80830895EF92FF920F933E
:105500001F93CF93DF93EC0181E0888F9B8D8C8D6F
:10551000981305C0E889F989808185FD24C0F62E9D
:105520000B8D10E00F5F1F4F0F731127E02E8C8D36
:10553000E8120CC00FB607FCFACFE889F989808120
:1055400085FFF5CFCE010E945C2AF1CF8B8DFE0145
:10555000E80FF11DE35AFF4FF0820B8FEA89FB89B8
:105560008081806207C0EE89FF896083E889F989BC
:1055700080818064808381E090E0DF91CF911F91F2
:105580000F91FF90EF900895CF93DF93EC01888DFA
:105590008823C9F0EA89FB89808185FD05C0A88937
:1055A000B9898C9186FD0FC00FB607FCF5CF8081BD
:1055B00085FFF2CFA889B9898C9185FFEDCFCE0107
:1055C0000E945C2AE7CFDF91CF910895A1E21A2EC5
:1055D000AA1BBB1BFD010DC0AA1FBB1FEE1FFF1F97
:1055E000A217B307E407F50720F0A21BB30BE40BE7
:1055F000F50B661F771F881F991F1A9469F760952E
:105600007095809590959B01AC01BD01CF010895E7
:10561000EE0FFF1F0590F491E02D0994A29FB001B9
:10562000B39FC001A39F700D811D1124911DB29FD6
:10563000700D811D1124911D08950F931F93CF9319
:10564000DF938230910510F482E090E0E091120641
:10565000F091130620E030E0A0E0B0E0309719F1BF
:10566000408151810281138148175907C8F084177E
:10567000950769F4109731F012960C9312971396D0
:105680001C9327C0009312061093130622C0211505
:10569000310519F04217530718F49A01BD01EF01C3
:1056A000DF01F801DBCF21153105F9F0281B390B9B
:1056B0002430310580F48A819B816115710521F0C8
:1056C000FB019383828304C0909313068093120698
:1056D000FE01329644C0FE01E20FF31F81939193C5
:1056E00022503109398328833AC020911006309125
:1056F0001106232B41F420910201309103013093D4
:10570000110620931006209100013091010121150E
:10571000310541F42DB73EB7409104015091050188
:10572000241B350BE0911006F0911106E217F307E8
:10573000A0F42E1B3F0B2817390778F0AC014E5F01
:105740005F4F2417350748F04E0F5F1F5093110627
:10575000409310068193919302C0E0E0F0E0CF0106
:10576000DF91CF911F910F910895CF93DF93009711
:1057700009F481C0FC01329713821282A0911206B3
:10578000B0911306109781F420813181820F931F0D
:1057900020911006309111062817390751F5F09322
:1057A0001106E093100667C0ED0120E030E0CE174F
:1057B000DF0740F44A815B819E0141155105F1F0FC
:1057C000EA01F5CFD383C28340815181840F951FB5
:1057D000C817D90759F488819981840F951F0296BB
:1057E000918380838A819B819383828321153105F4
:1057F00029F4F0931306E09312063DC0E901FB8300
:10580000EA8349915991C40FD51FEC17FD0761F444
:1058100080819181840F951F0296E9019983888385
:10582000828193819B838A83E0E0F0E012968D91E0
:105830009C911397009719F0FD01DC01F7CF8D9132
:105840009C9111979D012E5F3F4F820F931F2091D6
:105850001006309111062817390769F4309729F49A
:10586000109213061092120602C013821282B09395
:105870001106A0931006DF91CF910895F999FECFFC
:1058800092BD81BDF89A992780B50895262FF99980
:10589000FECF1FBA92BD81BD20BD0FB6F894FA9A13
:1058A000F99A0FBE0196089511E0C1E0D1E004C05D
:1058B000FE010E94082B2196C230D107C9F7F89447
:0258C000FFCF18
:1058C2000000140680001A19100F12130E021103A1
:1058D20004050607080930405056617256616C751E
:1058E2006500496E7320454550524F4D20676573E0
:1058F200706569636865727400426974204E616301
:1059020068626172706F7274200020205374617437
:105912006520005665727A6F65676572746520410D
:1059220075736761626520002020506F72742000D9
:1059320020206F6E5F6F6666200020207374617492
:1059420065200050756C735F73706569636865727A
:10595200200053686F775F616B745F737461746565
:1059620020002073686F727400206C6F6E670020D5
:10597200205374617465007665727A6F656765722B
:1059820074657220506F72740050696E2072656186
:1059920064696E673A2000300020204576656E7497
:1059A200200020200020676573656E6465740073B3
:1059B2006574416C6C4F75747075747300736574A3
:1059C200416C6C4F757470757473456E64650041FB
:1059D2005244555F43414E002100557365725F4644
:1059E200756E6374696F6E3A20004576656E744D0C
:1059F2006174636820004576656E745661723A2060
:105A0200004F50433A00204E6F64653A00204361D4
:105A12006E49443A00204D65737361676553697A34
:105A2200653A002053746174653A0000000000205A
:105A32000E210E72657370566172000000000068DC
:105A42001A831A000000008D1A991A00000000F94A
:105A52001DFA1D00000000771E781E0D0A006E61FF
:105A62006E00696E66006F766600000000007D2A97
:0A5A720077280F2A292A1B2AC42ACC
:00000001FF
